{"_format":"hh3-artifact-1","contractName":"BossBattleArena","sourceName":"contracts/BossBattleArena.sol","abi":[{"inputs":[{"internalType":"address","name":"_whaleToken","type":"address"},{"internalType":"address","name":"_tradingEngine","type":"address"},{"internalType":"address","name":"_treasury","type":"address"}],"stateMutability":"nonpayable","type":"constructor"},{"inputs":[{"internalType":"address","name":"owner","type":"address"}],"name":"OwnableInvalidOwner","type":"error"},{"inputs":[{"internalType":"address","name":"account","type":"address"}],"name":"OwnableUnauthorizedAccount","type":"error"},{"inputs":[],"name":"ReentrancyGuardReentrantCall","type":"error"},{"anonymous":false,"inputs":[{"indexed":true,"internalType":"address","name":"user","type":"address"},{"indexed":true,"internalType":"uint256","name":"achievementId","type":"uint256"},{"indexed":false,"internalType":"uint256","name":"reward","type":"uint256"}],"name":"AchievementUnlocked","type":"event"},{"anonymous":false,"inputs":[{"indexed":true,"internalType":"uint256","name":"battleId","type":"uint256"},{"indexed":true,"internalType":"address","name":"winner","type":"address"},{"indexed":false,"internalType":"uint256","name":"prizePool","type":"uint256"},{"indexed":false,"internalType":"uint256","name":"participantCount","type":"uint256"}],"name":"BattleEnded","type":"event"},{"anonymous":false,"inputs":[{"indexed":true,"internalType":"uint256","name":"battleId","type":"uint256"},{"indexed":false,"internalType":"enum BossBattleArena.BattleType","name":"battleType","type":"uint8"},{"indexed":false,"internalType":"uint256","name":"startTime","type":"uint256"},{"indexed":false,"internalType":"uint256","name":"prizePool","type":"uint256"}],"name":"BattleStarted","type":"event"},{"anonymous":false,"inputs":[{"indexed":true,"internalType":"address","name":"token","type":"address"},{"indexed":false,"internalType":"uint256","name":"volume","type":"uint256"},{"indexed":false,"internalType":"uint256","name":"holders","type":"uint256"},{"indexed":false,"internalType":"uint256","name":"communityScore","type":"uint256"}],"name":"MetricsUpdated","type":"event"},{"anonymous":false,"inputs":[{"indexed":true,"internalType":"address","name":"previousOwner","type":"address"},{"indexed":true,"internalType":"address","name":"newOwner","type":"address"}],"name":"OwnershipTransferred","type":"event"},{"anonymous":false,"inputs":[{"indexed":true,"internalType":"address","name":"creator","type":"address"},{"indexed":true,"internalType":"address","name":"token","type":"address"},{"indexed":false,"internalType":"uint256","name":"reward","type":"uint256"},{"indexed":false,"internalType":"uint256","name":"rank","type":"uint256"}],"name":"RewardDistributed","type":"event"},{"anonymous":false,"inputs":[{"indexed":true,"internalType":"address","name":"token","type":"address"},{"indexed":true,"internalType":"address","name":"creator","type":"address"},{"indexed":false,"internalType":"uint256","name":"timestamp","type":"uint256"}],"name":"TokenRegistered","type":"event"},{"inputs":[],"name":"BATTLE_DURATION","outputs":[{"internalType":"uint256","name":"","type":"uint256"}],"stateMutability":"view","type":"function"},{"inputs":[],"name":"MAX_PARTICIPANTS","outputs":[{"internalType":"uint256","name":"","type":"uint256"}],"stateMutability":"view","type":"function"},{"inputs":[],"name":"MIN_PARTICIPANTS","outputs":[{"internalType":"uint256","name":"","type":"uint256"}],"stateMutability":"view","type":"function"},{"inputs":[{"internalType":"uint256","name":"","type":"uint256"}],"name":"achievements","outputs":[{"internalType":"string","name":"name","type":"string"},{"internalType":"string","name":"description","type":"string"},{"internalType":"uint256","name":"requirement","type":"uint256"},{"internalType":"uint256","name":"reward","type":"uint256"},{"internalType":"bool","name":"isActive","type":"bool"}],"stateMutability":"view","type":"function"},{"inputs":[],"name":"addTreasuryFunds","outputs":[],"stateMutability":"payable","type":"function"},{"inputs":[{"internalType":"uint256","name":"","type":"uint256"}],"name":"allCreators","outputs":[{"internalType":"address","name":"","type":"address"}],"stateMutability":"view","type":"function"},{"inputs":[{"internalType":"uint256","name":"","type":"uint256"},{"internalType":"uint256","name":"","type":"uint256"}],"name":"battleResults","outputs":[{"internalType":"address","name":"token","type":"address"},{"internalType":"uint256","name":"volumeScore","type":"uint256"},{"internalType":"uint256","name":"holderScore","type":"uint256"},{"internalType":"uint256","name":"communityScore","type":"uint256"},{"internalType":"uint256","name":"totalScore","type":"uint256"},{"internalType":"uint256","name":"rank","type":"uint256"}],"stateMutability":"view","type":"function"},{"inputs":[{"internalType":"uint256","name":"","type":"uint256"}],"name":"battles","outputs":[{"internalType":"uint256","name":"battleId","type":"uint256"},{"internalType":"uint256","name":"startTime","type":"uint256"},{"internalType":"uint256","name":"endTime","type":"uint256"},{"internalType":"address","name":"winner","type":"address"},{"internalType":"uint256","name":"prizePool","type":"uint256"},{"internalType":"bool","name":"isActive","type":"bool"},{"internalType":"enum BossBattleArena.BattleType","name":"battleType","type":"uint8"}],"stateMutability":"view","type":"function"},{"inputs":[],"name":"currentBattleId","outputs":[{"internalType":"uint256","name":"","type":"uint256"}],"stateMutability":"view","type":"function"},{"inputs":[],"name":"dailyBattleReward","outputs":[{"internalType":"uint256","name":"","type":"uint256"}],"stateMutability":"view","type":"function"},{"inputs":[],"name":"emergencyEndBattle","outputs":[],"stateMutability":"nonpayable","type":"function"},{"inputs":[],"name":"endBattle","outputs":[],"stateMutability":"nonpayable","type":"function"},{"inputs":[{"internalType":"uint256","name":"battleId","type":"uint256"}],"name":"getBattleInfo","outputs":[{"internalType":"uint256","name":"startTime","type":"uint256"},{"internalType":"uint256","name":"endTime","type":"uint256"},{"internalType":"address[]","name":"participants","type":"address[]"},{"internalType":"address","name":"winner","type":"address"},{"internalType":"uint256","name":"prizePool","type":"uint256"},{"internalType":"bool","name":"isActive","type":"bool"},{"internalType":"enum BossBattleArena.BattleType","name":"battleType","type":"uint8"}],"stateMutability":"view","type":"function"},{"inputs":[{"internalType":"uint256","name":"battleId","type":"uint256"}],"name":"getBattleResults","outputs":[{"components":[{"internalType":"address","name":"token","type":"address"},{"internalType":"uint256","name":"volumeScore","type":"uint256"},{"internalType":"uint256","name":"holderScore","type":"uint256"},{"internalType":"uint256","name":"communityScore","type":"uint256"},{"internalType":"uint256","name":"totalScore","type":"uint256"},{"internalType":"uint256","name":"rank","type":"uint256"}],"internalType":"struct BossBattleArena.BattleScore[]","name":"","type":"tuple[]"}],"stateMutability":"view","type":"function"},{"inputs":[{"internalType":"address","name":"user","type":"address"}],"name":"getUserProgress","outputs":[{"internalType":"uint256","name":"battlesWon","type":"uint256"},{"internalType":"uint256","name":"battlesParticipated","type":"uint256"},{"internalType":"uint256","name":"totalRewardsEarned","type":"uint256"},{"internalType":"uint256","name":"achievementPoints","type":"uint256"}],"stateMutability":"view","type":"function"},{"inputs":[],"name":"owner","outputs":[{"internalType":"address","name":"","type":"address"}],"stateMutability":"view","type":"function"},{"inputs":[{"internalType":"address","name":"token","type":"address"}],"name":"registerForBattle","outputs":[],"stateMutability":"nonpayable","type":"function"},{"inputs":[{"internalType":"address","name":"token","type":"address"},{"internalType":"address","name":"creator","type":"address"}],"name":"registerTokenCreator","outputs":[],"stateMutability":"nonpayable","type":"function"},{"inputs":[{"internalType":"address","name":"","type":"address"}],"name":"registeredCreators","outputs":[{"internalType":"bool","name":"","type":"bool"}],"stateMutability":"view","type":"function"},{"inputs":[],"name":"renounceOwnership","outputs":[],"stateMutability":"nonpayable","type":"function"},{"inputs":[{"internalType":"uint256","name":"newReward","type":"uint256"}],"name":"setDailyBattleReward","outputs":[],"stateMutability":"nonpayable","type":"function"},{"inputs":[{"internalType":"address","name":"newTreasury","type":"address"}],"name":"setTreasuryAddress","outputs":[],"stateMutability":"nonpayable","type":"function"},{"inputs":[{"internalType":"enum BossBattleArena.BattleType","name":"battleType","type":"uint8"}],"name":"startNewBattle","outputs":[],"stateMutability":"nonpayable","type":"function"},{"inputs":[{"internalType":"address","name":"","type":"address"}],"name":"tokenMetrics","outputs":[{"internalType":"uint256","name":"tradingVolume","type":"uint256"},{"internalType":"uint256","name":"holderCount","type":"uint256"},{"internalType":"uint256","name":"communityScore","type":"uint256"},{"internalType":"uint256","name":"liquidityDepth","type":"uint256"},{"internalType":"uint256","name":"priceStability","type":"uint256"},{"internalType":"uint256","name":"lastUpdated","type":"uint256"}],"stateMutability":"view","type":"function"},{"inputs":[{"internalType":"address","name":"","type":"address"}],"name":"tokenToCreator","outputs":[{"internalType":"address","name":"","type":"address"}],"stateMutability":"view","type":"function"},{"inputs":[],"name":"totalRewardsDistributed","outputs":[{"internalType":"uint256","name":"","type":"uint256"}],"stateMutability":"view","type":"function"},{"inputs":[],"name":"tradingEngine","outputs":[{"internalType":"contract ITradingEngine","name":"","type":"address"}],"stateMutability":"view","type":"function"},{"inputs":[{"internalType":"address","name":"newOwner","type":"address"}],"name":"transferOwnership","outputs":[],"stateMutability":"nonpayable","type":"function"},{"inputs":[],"name":"treasuryAddress","outputs":[{"internalType":"address","name":"","type":"address"}],"stateMutability":"view","type":"function"},{"inputs":[],"name":"treasuryBalance","outputs":[{"internalType":"uint256","name":"","type":"uint256"}],"stateMutability":"view","type":"function"},{"inputs":[{"internalType":"address","name":"token","type":"address"},{"internalType":"uint256","name":"tradingVolume","type":"uint256"},{"internalType":"uint256","name":"holderCount","type":"uint256"},{"internalType":"uint256","name":"communityScore","type":"uint256"},{"internalType":"uint256","name":"liquidityDepth","type":"uint256"},{"internalType":"uint256","name":"priceStability","type":"uint256"}],"name":"updateTokenMetrics","outputs":[],"stateMutability":"nonpayable","type":"function"},{"inputs":[{"internalType":"address","name":"","type":"address"}],"name":"userProgress","outputs":[{"internalType":"uint256","name":"battlesWon","type":"uint256"},{"internalType":"uint256","name":"battlesParticipated","type":"uint256"},{"internalType":"uint256","name":"totalRewardsEarned","type":"uint256"},{"internalType":"uint256","name":"achievementPoints","type":"uint256"}],"stateMutability":"view","type":"function"},{"inputs":[],"name":"whaleToken","outputs":[{"internalType":"contract IWhaleToken","name":"","type":"address"}],"stateMutability":"view","type":"function"},{"inputs":[{"internalType":"uint256","name":"amount","type":"uint256"}],"name":"withdrawTreasury","outputs":[],"stateMutability":"nonpayable","type":"function"},{"stateMutability":"payable","type":"receive"}],"bytecode":"0x60806040523461114857613b8d6060813803918261001c8161116b565b9384928339810103126111485761003281611190565b9061004b604061004460208401611190565b9201611190565b9160015f5533156111355760018054336001600160a01b0319821681179092556001600160a01b03167f8be0079c531659141344cd1fd0a4f28419497f9722a3daafe3b4186f6b6457e05f80a369021e19e0c9bab2400000600a55600280546001600160a01b03199081166001600160a01b039384161790915560038054821693831693909317909255600b805490921692169190911790556100ec61114c565b6100f6604061116b565b600d81526c466972737420566963746f727960981b6020820152815261011c604061116b565b90601582527f57696e20796f757220666972737420626174746c650000000000000000000000602083015260208101918252604081016001815260608201683635c9adc5dea00000815260808301916001835260015f52600860205260405f20935180519060018060401b038211610a6e57855490600182811c9216801561112b575b6020831014610b9f5781601f8493116110fb575b50602090601f8311600114611098575f9261108d575b50508160011b915f199060031b1c19161784555b9351805190949060018501906001600160401b038111610a6e578154600181811c91168015611083575b6020821014610b9f57601f8111611053575b506020601f821160011461100157908060049695949392610265995f92610aee575b50508160011b915f199060031b1c19161790555b51600285015551600384015551151591016111ba565b61026d61114c565b610277604061116b565b600b81526a566f6c756d65204b696e6760a81b6020820152815261029b604061116b565b90601e82527f47656e657261746520314d2b20696e2074726164696e6720766f6c756d6500006020830152602081019182526040810169d3c21bcecceda100000081526060820169010f0cf064dd59200000815260808301916001835260025f52600860205260405f20935180519060018060401b038211610a6e57855490600182811c92168015610ff7575b6020831014610b9f5781601f849311610fc7575b50602090601f8311600114610f64575f92610f59575b50508160011b915f199060031b1c19161784555b9351805190949060018501906001600160401b038111610a6e578154600181811c91168015610f4f575b6020821014610b9f57601f8111610f1f575b506020601f8211600114610ecd579080600496959493926103ec995f92610aee5750508160011b915f199060031b1c191617905551600285015551600384015551151591016111ba565b6103f461114c565b6103fe604061116b565b601181527021b7b6b6bab734ba3c90213ab4b63232b960791b60208201528152610428604061116b565b90601982527f526561636820313030302b20746f6b656e20686f6c6465727300000000000000602083015260208101918252604081016103e881526060820168a2a15d09519be00000815260808301916001835260035f52600860205260405f20935180519060018060401b038211610a6e57855490600182811c92168015610ec3575b6020831014610b9f5781601f849311610e93575b50602090601f8311600114610e30575f92610e25575b50508160011b915f199060031b1c19161784555b9351805190949060018501906001600160401b038111610a6e578154600181811c91168015610e1b575b6020821014610b9f57601f8111610deb575b506020601f8211600114610d9957908060049695949392610570995f92610aee5750508160011b915f199060031b1c191617905551600285015551600384015551151591016111ba565b61057861114c565b610582604061116b565b600d81526c2130ba3a36329026b0b9ba32b960991b602082015281526105a8604061116b565b90600e82526d57696e20313020626174746c657360901b60208301526020810191825260408101600a81526060820169021e19e0c9bab2400000815260808301916001835260045f52600860205260405f20935180519060018060401b038211610a6e57855490600182811c92168015610d8f575b6020831014610b9f5781601f849311610d5f575b50602090601f8311600114610cfc575f92610cf1575b50508160011b915f199060031b1c19161784555b9351805190949060018501906001600160401b038111610a6e578154600181811c91168015610ce7575b6020821014610b9f57601f8111610cb7575b506020601f8211600114610c65579080600496959493926106e1995f92610aee5750508160011b915f199060031b1c191617905551600285015551600384015551151591016111ba565b6106e961114c565b6106f3604061116b565b600c81526b2bb430b6329029b630bcb2b960a11b60208201528152610718604061116b565b90601f82527f446566656174206120746f7020313020746f6b656e20696e20626174746c650060208301526020810191825260408101600181526060820169032d26d12e980b600000815260808301916001835260055f52600860205260405f20935180519060018060401b038211610a6e57855490600182811c92168015610c5b575b6020831014610b9f5781601f849311610c2b575b50602090601f8311600114610bc8575f92610bbd575b50508160011b915f199060031b1c19161784555b9351805190949060018501906001600160401b038111610a6e578154600181811c91168015610bb3575b6020821014610b9f57601f8111610b64575b506020601f8211600114610af957908060049695949392610860995f92610aee5750508160011b915f199060031b1c191617905551600285015551600384015551151591016111ba565b600154336001600160a01b0390911603610adb57600954805f52600460205260ff600660405f20015416610a96575f198114610a825760010180600955620151804201804211610a82576020916108b68361116b565b915f83525f368137600a546040519161010083016001600160401b03811184821017610a6e5760405283835285830194428652604084019182526060840190815260808401915f835260a0850193845260c08501966001885260e0860196600388525f526004895260405f20955186555160018601555160028501556003840190519081519160018060401b038311610a6e57680100000000000000008311610a6e5788908254848455808510610a53575b5001905f52875f205f5b838110610a3857505091516004850180546001600160a01b0319166001600160a01b0392909216919091179055505051600582015591516006909201916109bb901515836111ba565b516004811015610a245761ff0082549160081b169061ff0019161790557f855450c791a75324130ef95d99417a61ce700824dac5eeef69f740d5d0af40a8606060095492600a54604051916003835242908301526040820152a26040516129c190816111cc8239f35b634e487b7160e01b5f52602160045260245ffd5b82516001600160a01b03168282015591890191600101610972565b610a6890845f5285845f2091820191016111a4565b5f610968565b634e487b7160e01b5f52604160045260245ffd5b634e487b7160e01b5f52601160045260245ffd5b60405162461bcd60e51b815260206004820152601b60248201527f43757272656e7420626174746c65207374696c6c2061637469766500000000006044820152606490fd5b63118cdaa760e01b5f523360045260245ffd5b015190505f8061023b565b601f19821697835f52815f20985f5b818110610b4c5750986001928492600499989796956108609c10610b34575b505050811b01905561024f565b01515f1960f88460031b161c191690555f8080610b27565b838301518b556001909a019960209384019301610b08565b610b8f90835f5260205f20601f840160051c81019160208510610b95575b601f0160051c01906111a4565b5f610816565b9091508190610b82565b634e487b7160e01b5f52602260045260245ffd5b90607f1690610804565b015190505f806107c6565b5f8881528281209350601f198516905b818110610c135750908460019594939210610bfb575b505050811b0184556107da565b01515f1960f88460031b161c191690555f8080610bee565b92936020600181928786015181550195019301610bd8565b610c5590885f5260205f20601f850160051c81019160208610610b9557601f0160051c01906111a4565b5f6107b0565b91607f169161079c565b601f19821697835f52815f20985f5b818110610c9f5750986001928492600499989796956106e19c10610b3457505050811b01905561024f565b838301518b556001909a019960209384019301610c74565b610ce190835f5260205f20601f840160051c81019160208510610b9557601f0160051c01906111a4565b5f610697565b90607f1690610685565b015190505f80610647565b5f8881528281209350601f198516905b818110610d475750908460019594939210610d2f575b505050811b01845561065b565b01515f1960f88460031b161c191690555f8080610d22565b92936020600181928786015181550195019301610d0c565b610d8990885f5260205f20601f850160051c81019160208610610b9557601f0160051c01906111a4565b5f610631565b91607f169161061d565b601f19821697835f52815f20985f5b818110610dd35750986001928492600499989796956105709c10610b3457505050811b01905561024f565b838301518b556001909a019960209384019301610da8565b610e1590835f5260205f20601f840160051c81019160208510610b9557601f0160051c01906111a4565b5f610526565b90607f1690610514565b015190505f806104d6565b5f8881528281209350601f198516905b818110610e7b5750908460019594939210610e63575b505050811b0184556104ea565b01515f1960f88460031b161c191690555f8080610e56565b92936020600181928786015181550195019301610e40565b610ebd90885f5260205f20601f850160051c81019160208610610b9557601f0160051c01906111a4565b5f6104c0565b91607f16916104ac565b601f19821697835f52815f20985f5b818110610f075750986001928492600499989796956103ec9c10610b3457505050811b01905561024f565b838301518b556001909a019960209384019301610edc565b610f4990835f5260205f20601f840160051c81019160208510610b9557601f0160051c01906111a4565b5f6103a2565b90607f1690610390565b015190505f80610352565b5f8881528281209350601f198516905b818110610faf5750908460019594939210610f97575b505050811b018455610366565b01515f1960f88460031b161c191690555f8080610f8a565b92936020600181928786015181550195019301610f74565b610ff190885f5260205f20601f850160051c81019160208610610b9557601f0160051c01906111a4565b5f61033c565b91607f1691610328565b601f19821697835f52815f20985f5b81811061103b5750986001928492600499989796956102659c10610b3457505050811b01905561024f565b838301518b556001909a019960209384019301611010565b61107d90835f5260205f20601f840160051c81019160208510610b9557601f0160051c01906111a4565b5f610219565b90607f1690610207565b015190505f806101c9565b5f8881528281209350601f198516905b8181106110e357509084600195949392106110cb575b505050811b0184556101dd565b01515f1960f88460031b161c191690555f80806110be565b929360206001819287860151815501950193016110a8565b61112590885f5260205f20601f850160051c81019160208610610b9557601f0160051c01906111a4565b5f6101b3565b91607f169161019f565b631e4fbdf760e01b5f525f60045260245ffd5b5f80fd5b6040519060a082016001600160401b03811183821017610a6e57604052565b6040519190601f01601f191682016001600160401b03811183821017610a6e57604052565b51906001600160a01b038216820361114857565b8181106111af575050565b5f81556001016111a4565b9060ff80198354169115151617905556fe60806040526004361015610029575b3615610018575f80fd5b61002434600c54611b91565b600c55005b5f3560e01c806311f1fc9914611921578063121d80701461190e57806327aed72e1461188757806330a54bf7146115e3578063313dab20146115c65780633a984bc5146115ab57806350d10a651461152b57806352ca29261461150e57806355a2abcc146114ed5780635cfb9fa1146114c55780635ed8d93b14611489578063606d2e96146114075780636605bfda14611381578063715018a61461133957806387d243b41461123c578063888e5d9e146111d85780638da5cb5b146111b05780638e4cc10814610e365780639458df55146110e95780639d7ef7fe146110ac5780639df3ea1614610eaf578063b236eb8d14610e92578063bb3cbae114610e36578063c0a6e9d714610cb3578063c5f956af14610c8b578063c66fd44814610c1c578063c7b6825b14610bff578063d1c986181461040c578063ee172546146103ef578063f1d15744146103c7578063f27f801114610387578063f2fde38b14610314578063f3baf070146102f95763f8b452060361000e57346102f55760403660031901126102f5576101bc611b33565b6024356001600160a01b03811691908290036102f5576003546001600160a01b0316331480156102e1575b156102ad576001600160a01b039081165f818152600e60205260409020549091161561020f57005b5f52600e60205260405f208160018060a01b0319825416179055805f52600f60205260ff60405f2054161561024057005b5f818152600f60205260409020805460ff19166001179055601054600160401b8110156102995780600161027992016010556010611b6f565b81546001600160a01b0360039290921b91821b191692901b919091179055005b634e487b7160e01b5f52604160045260245ffd5b60405162461bcd60e51b815260206004820152600c60248201526b155b985d5d1a1bdc9a5e995960a21b6044820152606490fd5b506001546001600160a01b031633146101e7565b5f80fd5b346102f5575f3660031901126102f557602060405160328152f35b346102f55760203660031901126102f55761032d611b33565b610335611c5f565b6001600160a01b0316801561037457600180546001600160a01b0319811683179091556001600160a01b03165f51602061294c5f395f51905f525f80a3005b631e4fbdf760e01b5f525f60045260245ffd5b346102f55760203660031901126102f5576001600160a01b036103a8611b33565b165f52600e602052602060018060a01b0360405f205416604051908152f35b346102f5575f3660031901126102f5576002546040516001600160a01b039091168152602090f35b346102f5575f3660031901126102f5576020600d54604051908152f35b346102f5575f3660031901126102f557610424611c86565b600954805f52600460205260405f206006810160ff81541615610bc65760028201544210610b8b5760038201926003845410610b4c575f52600660205260405f20925f5b81548110156106ca5761047b8183611b6f565b60018060a01b0391549060031b1c1690815f52600560205260405f20604051906104a4826119ce565b805482526001810154602083019081526005600283015492604085019384526003810154606086015260048101546080860152015460a084015260ff875460081c16905f60a06040516104f6816119ce565b82815282602082015282604082015282606082015282608082015201525f935f925f9460048210159081610651578215938480156106bd575b6106a9575b508161065157600183149485801561069c575b61067b575b50816106515760028314801561066e575b610665575b5061065157600303610632575050602883028381046028148415171561061e57601e820290828204601e148315171561061e576064806105a493049104611b91565b601e830290838204601e148415171561061e5760646105c4920490611b91565b925b604051956105d3876119ce565b865260208601526040850152606084015260808301525f60a08301528554600160401b81101561029957600192610612828561061894018a5589611b49565b90611c07565b01610468565b634e487b7160e01b5f52601160045260245ffd5b1561063e5750826105c6565b1561064a5780926105c6565b81926105c6565b634e487b7160e01b5f52602160045260245ffd5b5195508d610562565b505f91506003831461055d565b90919550519060648202918083046064149015171561061e5785919561054c565b505f925060038414610547565b51670de0b6b3a76400009004975081610534565b505f92506003841461052f565b5092916009545f52600660205260405f20938454935f935f1986019386851193845b61061e5785871015610809575f5b610704888a611b84565b5f19810190811161061e578110156107fc576004610722828c611b49565b50015490600181019182821161061e57600461073e848e611b49565b50015411610751575b60019150016106fa565b8a61076561075f8383611b49565b50611bac565b61077a836107738685611b49565b5093611b49565b6107e9576001948e828561079996610612950361079e575b5050611b49565b610747565b8054825460a08b901b8b900391821691191617825588810154898301556002808201549083015560038082015490830155600480820154908301556005908101549101555f80610792565b634e487b7160e01b5f525f60045260245ffd5b50600190960195846106ec565b88885f5b818110610b2857505050835415610b14575f9384526020909320546004820180546001600160a01b0319166001600160a01b03929092169182179055825460ff19169092556009546005937f1da0b29fc20261565bcf107c004d4c7d78e307478c4570fccede3bac53a23829916040919061088790611cd7565b610890856120d9565b6001600160a01b03811690869082610aed575b5050506009549586940154905482519182526020820152a360038116906004821015610651576108d1611c5f565b805f52600460205260ff600660405f20015416610aaa576108f190611b9e565b90816009556201518042019081421161061e57602092604051926109158585611a20565b5f84525f368137600a546040519161092c836119e9565b83835286830195428752604084019182526060840190815260808401915f835260a0850193845260c08501976001895260e086019661096b8989611bfb565b5f90815260048b5260409020955186555160018601555160028501555180519060038501906001600160401b03831161029957600160401b83116102995789908254848455808510610a82575b5001905f52885f205f5b838110610a6757505091516004850180546001600160a01b039092166001600160a01b0319909216919091179055505051600582015592516006909301805460ff191693151560ff1693909317835551906004821015610651575f51602061292c5f395f51905f529260609261ff0082549160081b169061ff00191617905560095493600a5490610a566040518094611b62565b42908301526040820152a260015f55005b82516001600160a01b031682820155918a01916001016109c2565b835f5284835f2091820191015b818110610a9c57506109b8565b5f81558c9350600101610a8f565b60405162461bcd60e51b815260206004820152601b60248201527a43757272656e7420626174746c65207374696c6c2061637469766560281b6044820152606490fd5b610b0c925f526007602052845f20610b058154611b9e565b905561227e565b8685816108a3565b634e487b7160e01b5f52603260045260245ffd5b600181019081811161061e576001916005610b438387611b49565b5001550161080d565b60405162461bcd60e51b81526020600482015260176024820152764e6f7420656e6f756768207061727469636970616e747360481b6044820152606490fd5b60405162461bcd60e51b815260206004820152601360248201527210985d1d1b19481b9bdd08199a5b9a5cda1959606a1b6044820152606490fd5b60405162461bcd60e51b8152602060048201526011602482015270426174746c65206e6f742061637469766560781b6044820152606490fd5b346102f5575f3660031901126102f5576020600a54604051908152f35b346102f55760203660031901126102f5576001600160a01b03610c3d611b33565b165f52600560205260c060405f2080549060018101549060028101546003820154906005600484015493015493604051958652602086015260408501526060840152608083015260a0820152f35b346102f5575f3660031901126102f557600b546040516001600160a01b039091168152602090f35b346102f55760203660031901126102f5576004355f52600460205260405f20604051610cde816119e9565b8154815260018201549160208201928352600281015492604083019384526003820192604051808560208297549384815201905f5260205f20925f5b818110610e14575050610d2f92500385611a20565b6060810193845260018060a01b036004840154169260808201938452600660058201549160a08401928352015492610d7c60ff60e060c086019582881615158752019560081c1685611bfb565b51955194519360018060a01b039051169051915115159251956004871015610651576040519560e08701918752602087015260e060408701528451809152602061010087019501905f5b818110610df55750505091849591610df1936060870152608086015260a085015260c0840190611b62565b0390f35b82516001600160a01b0316875260209687019690920191600101610dc6565b84546001600160a01b0316835260019485019489945060209093019201610d1a565b346102f55760203660031901126102f5576001600160a01b03610e57611b33565b165f90815260076020908152604091829020805460018201546002830154600390930154855192835293820152928301526060820152608090f35b346102f5575f3660031901126102f5576020604051620151808152f35b346102f55760203660031901126102f55760043560048110156102f557610ed4611c5f565b600954805f52600460205260ff600660405f20015416610aaa57610ef790611b9e565b90816009556201518042019081421161061e5760209260405192610f1b8585611a20565b5f84525f368137600a5460405191610f32836119e9565b83835286830195428752604084019182526060840190815260808401915f835260a0850193845260c08501976001895260e0860196610f718989611bfb565b5f90815260048b5260409020955186555160018601555160028501555180519060038501906001600160401b03831161029957600160401b83116102995789908254848455808510611084575b5001905f52885f205f5b83811061106957505091516004850180546001600160a01b039092166001600160a01b0319909216919091179055505051600582015592516006909301805460ff191693151560ff1693909317835551906004821015610651575f51602061292c5f395f51905f529260609261ff0082549160081b169061ff00191617905560095493600a549061105c6040518094611b62565b42908301526040820152a2005b82516001600160a01b031682820155918a0191600101610fc8565b835f5284835f2091820191015b81811061109e5750610fbe565b5f81558c9350600101611091565b346102f55760203660031901126102f5576001600160a01b036110cd611b33565b165f52600f602052602060ff60405f2054166040519015158152f35b346102f55760c03660031901126102f557611102611b33565b7fd0f1f29eac89d6c0f153049ba5b26856c5d353d986a006647cff7ecd98c85a4060606024356044356064359060405161113b816119ce565b83815260056020820197838952604083018581528784016084358152608085019160a435835260a086019342855260018060a01b03169b8c5f528560205260405f20965187555160018701555160028601555160038501555160048401555191015560405192835260208301526040820152a2005b346102f5575f3660031901126102f5576001546040516001600160a01b039091168152602090f35b346102f55760203660031901126102f5576004356010548110156102f557601054811015610b145760105f527f1b6847dc741a1b0cd08d278845f9d819d87b734759afb55fe2de5cb82a9ae67201546040516001600160a01b039091168152602090f35b346102f55760203660031901126102f5576004355f9081526006602052604090208054906001600160401b0382116102995760208260051b01916112836040519384611a20565b8083526020830180925f5260205f205f915b83831061131b578486604051918291602083019060208452518091526040830191905f5b8181106112c7575050500390f35b91935091602060c060019260a087518580831b0381511683528481015185840152604081015160408401526060810151606084015260808101516080840152015160a08201520194019101918493926112b9565b6006602060019261132b85611bac565b815201920192019190611295565b346102f5575f3660031901126102f557611351611c5f565b600180546001600160a01b031981169091555f906001600160a01b03165f51602061294c5f395f51905f528280a3005b346102f55760203660031901126102f55761139a611b33565b6113a2611c5f565b6001600160a01b031680156113c757600b80546001600160a01b031916919091179055005b60405162461bcd60e51b8152602060048201526018602482015277496e76616c6964207472656173757279206164647265737360401b6044820152606490fd5b346102f55760203660031901126102f5576004355f52600460205260e060405f20611487815491600181015490600281015460018060a01b03600483015416906006600584015493015493604051968752602087015260408601526060850152608084015260ff8116151560a084015260ff60c084019160081c16611b62565bf35b346102f5575f3660031901126102f5576114a1611c5f565b6009545f52600460205260405f206006810160ff1981541690556002429101555f80f35b346102f5575f3660031901126102f5576003546040516001600160a01b039091168152602090f35b346102f55760203660031901126102f557611506611c5f565b600435600a55005b346102f5575f3660031901126102f5576020600954604051908152f35b346102f55760403660031901126102f5576024356004355f52600660205260405f2080548210156102f55760c09161156291611b49565b5060018060a01b038154169060018101549060028101546003820154906005600484015493015493604051958652602086015260408501526060840152608083015260a0820152f35b346102f5575f3660031901126102f557602060405160038152f35b346102f5575f3660031901126102f5576020600c54604051908152f35b346102f55760203660031901126102f5576115fc611b33565b611604611c86565b6009545f52600460205260405f2060ff6006820154161561184f57600281015442101561181b5760030180549160328310156117e8576001600160a01b0316915f5b818110611784575050815f52600560205260405f20541561174b57815f526005602052600a600160405f20015410611708578054600160401b8110156102995761169591600182018155611b6f565b81549060031b9083821b9160018060a01b03901b1916179055335f526007602052600560405f20016009545f5260205260405f206116d38154611b9e565b9055604051904282527ff8e444c42a5a7ea760a42d30d8fa8ccd8915208c2fb7dfe353501d7322d2e13260203393a360015f55005b60405162461bcd60e51b815260206004820152601b60248201527a135a5b9a5b5d5b480c4c081a1bdb19195c9cc81c995c5d5a5c9959602a1b6044820152606490fd5b60405162461bcd60e51b81526020600482015260116024820152704e6f2074726164696e6720766f6c756d6560781b6044820152606490fd5b8361178f8285611b6f565b905460039190911b1c6001600160a01b0316146117ae57600101611646565b60405162461bcd60e51b8152602060048201526012602482015271105b1c9958591e481c9959da5cdd195c995960721b6044820152606490fd5b60405162461bcd60e51b815260206004820152600b60248201526a10985d1d1b1948199d5b1b60aa1b6044820152606490fd5b60405162461bcd60e51b815260206004820152600c60248201526b10985d1d1b1948195b99195960a21b6044820152606490fd5b60405162461bcd60e51b815260206004820152601060248201526f4e6f2061637469766520626174746c6560801b6044820152606490fd5b346102f55760203660031901126102f5576004355f5260086020526118ea60405f206118b281611a43565b906118bf60018201611a43565b6002820154916118f860ff60046003840154930154169260405196879660a0885260a0880190611b0f565b908682036020880152611b0f565b9260408501526060840152151560808301520390f35b5f3660031901126102f557610018611c5f565b346102f55760203660031901126102f55760043561193d611c5f565b600c54808211611989575f808361195682958395611b84565b600c55600b546001600160a01b0316828215611980575bf11561197557005b6040513d5f823e3d90fd5b506108fc61196d565b60405162461bcd60e51b815260206004820152601d60248201527f496e73756666696369656e742074726561737572792062616c616e63650000006044820152606490fd5b60c081019081106001600160401b0382111761029957604052565b61010081019081106001600160401b0382111761029957604052565b60a081019081106001600160401b0382111761029957604052565b601f909101601f19168101906001600160401b0382119082101761029957604052565b90604051915f8154908160011c9260018316928315611b05575b602085108414611af1578487528693908115611acf5750600114611a8b575b50611a8992500383611a20565b565b90505f9291925260205f20905f915b818310611ab3575050906020611a89928201015f611a7c565b6020919350806001915483858901015201910190918492611a9a565b905060209250611a8994915060ff191682840152151560051b8201015f611a7c565b634e487b7160e01b5f52602260045260245ffd5b93607f1693611a5d565b805180835260209291819084018484015e5f828201840152601f01601f1916010190565b600435906001600160a01b03821682036102f557565b8054821015610b14575f52600660205f20910201905f90565b9060048210156106515752565b8054821015610b14575f5260205f2001905f90565b9190820391821161061e57565b9190820180921161061e57565b5f19811461061e5760010190565b90604051611bb9816119ce565b82546001600160a01b031681526001830154602082015260028301546040820152600383015460608201526004830154608082015260059092015460a0830152565b60048210156106515752565b91906107e957805182546001600160a01b0319166001600160a01b03919091161782556020810151600183015560408101516002830155606081015160038301556080810151600483015560a0015160059190910155565b6001546001600160a01b03163303611c7357565b63118cdaa760e01b5f523360045260245ffd5b60025f5414611c955760025f55565b633ee5aeb560e01b5f5260045ffd5b908160209103126102f5575180151581036102f55790565b6001600160a01b039091168152602081019190915260400190565b90815f52600460205260405f20915f52600660205260405f20918254156120785760036005820154910192835490821594858015612070575b612068575f5b825481108061205f575b15611ff557611d2f8184611b49565b50546001600160a01b031690611d44826120d9565b916001600160a01b0383168015611fe9575f83611f345750603288028881046032148b171561061e5760649004935b84151580611ebc575b611d93575b505050611d8e9150611b9e565b611d16565b60025460405163a9059cbb60e01b81529060209082906001600160a01b0316815f81611dc38c8960048401611cbc565b03925af1908115611975575f91611e8e575b5015611e505782611dfa91835f526007602052600260405f2001610b05888254611b91565b611e0684600d54611b91565b600d55600183019384841161061e5760407fd53ea54cd361f7c49d3ca11bfcb71b4783448ade1b32513783ee19776f2adf3191611d8e9682519182526020820152a35f8080611d81565b60405162461bcd60e51b815260206004820152601660248201527514995dd85c99081d1c985b9cd9995c8819985a5b195960521b6044820152606490fd5b611eaf915060203d8111611eb5575b611ea78183611a20565b810190611ca4565b5f611dd5565b503d611e9d565b506002546040516370a0823160e01b815230600482015290602090829060249082906001600160a01b03165afa80156119755786915f91611f00575b501015611d7c565b9150506020813d8211611f2c575b81611f1b60209383611a20565b810103126102f5578590515f611ef8565b3d9150611f0e565b60018403611f585750601988028881046019148b171561061e576064900493611d73565b60028403611f7c5750600f8802888104600f148b171561061e576064900493611d73565b936003881115611fe357600219880188811161061e575b80611f9f575b50611d73565b909450600a8902898104600a148c171561061e578160640291606483040361061e578115611fcf5704935f611f99565b634e487b7160e01b5f52601260045260245ffd5b5f611f93565b5050611d8e9150611b9e565b5094505050505f5b825481101561205a578061202d61201660019386611b6f565b905460a085901b859003929160031b1c82166120d9565b168061203b575b5001611ffd565b5f5260076020528160405f20016120528154611b9e565b90555f612034565b509050565b50838110611d20565b505050509050565b508215611d10565b60405162461bcd60e51b815260206004820152601a6024820152794e6f20626174746c652073636f72657320617661696c61626c6560301b6044820152606490fd5b908160209103126102f557516001600160a01b03811681036102f55790565b6001600160a01b039081165f818152600e6020526040902054909116612264576040516302d05d3f60e01b8152602081600481855afa5f9181612243575b5061223e575060035460405163c78418b960e01b8152600481018390526001600160a01b039091169190602081602481865afa5f918161221d575b5061221757506020600492604051938480926373bbb97f60e11b82525afa5f92816121f6575b50612184575b50505f90565b60405163f27f801160e01b8152600481019190915290602090829060249082906001600160a01b03165afa5f91816121c5575b506121c2578061217e565b90565b6121e891925060203d6020116121ef575b6121e08183611a20565b8101906120ba565b905f6121b7565b503d6121d6565b61221091935060203d6020116121ef576121e08183611a20565b915f612178565b91505090565b61223791925060203d6020116121ef576121e08183611a20565b905f612152565b905090565b61225d91925060203d6020116121ef576121e08183611a20565b905f612117565b5f908152600e60205260409020546001600160a01b031690565b9060018060a01b03821690815f52600760205260405f209060018060a01b03165f52600560205260405f206040516122b5816119ce565b81548152600560018301549260208301938452600281015460408401526003810154606084015260048101546080840152015460a0820152600183541480612911575b6127d9575b5160025f5260086020527f6add646517a5b0f6793cd5891b7937d28a5b2981a5d88ebc7cd776088fea9043541115806127bf575b612688575b5160035f5260086020527f625b35f5e76f098dd7c3a05b10e2e5e78a4a01228d60c3b143426cdf36d264575411158061266e575b612537575b805460045f5260086020527f9321edea6e3be4df59a344b401fab4f888b556fda1f954244cff9204bad624ba541115908161251d575b506123ae575050565b60045f5260086020526040517f9321edea6e3be4df59a344b401fab4f888b556fda1f954244cff9204bad624b892906123e681611a05565b6123ef84611a43565b81526123fd60018501611a43565b60208201526002840154604082015260ff6004600386015495606084019687520154161590608082159101526124df57602061249591835f526007825260405f2060045f5260048101835260405f20600160ff19825416179055612468600387519201918254611b91565b905560018060a01b03600254168551915f60405180968195829463a9059cbb60e01b845260048401611cbc565b03925af18015611975576004935f51602061296c5f395f51905f52926020926124c4575b5051604051908152a3565b6124da90833d8511611eb557611ea78183611a20565b6124b9565b60405162461bcd60e51b8152602060048201526016602482015275416368696576656d656e74206e6f742061637469766560501b6044820152606490fd5b60048092505f520160205260ff60405f205416155f6123a5565b60035f5260086020526040517f625b35f5e76f098dd7c3a05b10e2e5e78a4a01228d60c3b143426cdf36d264559061256e81611a05565b61257782611a43565b815261258560018301611a43565b60208201526002820154604082015260ff6004600384015493606084019485520154161590608082159101526124df575f90838252600760205260408220600383526004810160205260408320600160ff198254161790556125ee600383519201918254611b91565b9055602061261f60018060a01b0360025416835160405195868094819363a9059cbb60e01b83528c60048401611cbc565b03925af191821561197557602085925f51602061296c5f395f51905f5292600395612653575b5051604051908152a361236f565b61266990833d8511611eb557611ea78183611a20565b612645565b5060035f526004810160205260ff60405f2054161561236a565b60025f5260086020526040517f6add646517a5b0f6793cd5891b7937d28a5b2981a5d88ebc7cd776088fea9041906126bf81611a05565b6126c882611a43565b81526126d660018301611a43565b60208201526002820154604082015260ff6004600384015493606084019485520154161590608082159101526124df575f90848252600760205260408220600283526004810160205260408320600160ff1982541617905561273f600383519201918254611b91565b9055602061277060018060a01b0360025416835160405195868094819363a9059cbb60e01b83528d60048401611cbc565b03925af191821561197557602086925f51602061296c5f395f51905f52926002956127a4575b5051604051908152a3612336565b6127ba90833d8511611eb557611ea78183611a20565b612796565b5060025f526004820160205260ff60405f20541615612331565b60015f5260086020526040517fad67d757c34507f157cacfa2e3153e9f260a2244f30428821be7be64587ac55f9061281081611a05565b61281982611a43565b815261282760018301611a43565b60208201526002820154604082015260ff6004600384015493606084019485520154161590608082159101526124df576128c290855f52600760205260405f2060015f526004810160205260405f20600160ff19825416179055612892600383519201918254611b91565b9055602060018060a01b0360025416825190895f60405180978195829463a9059cbb60e01b845260048401611cbc565b03925af191821561197557602087925f51602061296c5f395f51905f52926001956128f6575b5051604051908152a36122fd565b61290c90833d8511611eb557611ea78183611a20565b6128e8565b5060015f526004830160205260ff60405f205416156122f856fe855450c791a75324130ef95d99417a61ce700824dac5eeef69f740d5d0af40a88be0079c531659141344cd1fd0a4f28419497f9722a3daafe3b4186f6b6457e00d2905f03971dd710b34c1a52dde26e0e95c254f1b25942b22ce357c654f6dd7a2646970667358221220bb875a7581367b4f10bde3b2bc31a493b134c2d53cb573bee0c3560b1b9ba4db64736f6c634300081c0033","linkReferences":{},"deployedLinkReferences":{},"immutableReferences":{},"inputSourceName":"project/contracts/BossBattleArena.sol","buildInfoId":"solc-0_8_28-7079be9912eddb04e01c38da66a2cee036e8873d"}