{"_format":"hh3-artifact-1","contractName":"StreamLaunchDeployer","sourceName":"contracts/StreamLaunchDeployer.sol","abi":[{"inputs":[{"internalType":"address[]","name":"_multiSigOwners","type":"address[]"}],"stateMutability":"nonpayable","type":"constructor"},{"anonymous":false,"inputs":[{"indexed":false,"internalType":"uint256","name":"timestamp","type":"uint256"}],"name":"AdvancedConfigurationCompleted","type":"event"},{"anonymous":false,"inputs":[{"indexed":false,"internalType":"address","name":"whaleToken","type":"address"},{"indexed":false,"internalType":"address","name":"tokenFactory","type":"address"},{"indexed":false,"internalType":"address","name":"tradingEngine","type":"address"},{"indexed":false,"internalType":"address","name":"bossBattleArena","type":"address"},{"indexed":false,"internalType":"uint256","name":"timestamp","type":"uint256"}],"name":"SystemDeployed","type":"event"},{"inputs":[],"name":"INITIAL_WHALE_SUPPLY","outputs":[{"internalType":"uint256","name":"","type":"uint256"}],"stateMutability":"view","type":"function"},{"inputs":[],"name":"REQUIRED_CONFIRMATIONS","outputs":[{"internalType":"uint256","name":"","type":"uint256"}],"stateMutability":"view","type":"function"},{"inputs":[],"name":"TIMELOCK_DELAY","outputs":[{"internalType":"uint256","name":"","type":"uint256"}],"stateMutability":"view","type":"function"},{"inputs":[],"name":"TOKEN_FACTORY_HASH","outputs":[{"internalType":"bytes32","name":"","type":"bytes32"}],"stateMutability":"view","type":"function"},{"inputs":[],"name":"WHALE_TOKEN_HASH","outputs":[{"internalType":"bytes32","name":"","type":"bytes32"}],"stateMutability":"view","type":"function"},{"inputs":[],"name":"bossBattleArena","outputs":[{"internalType":"contract IBossBattleArena","name":"","type":"address"}],"stateMutability":"view","type":"function"},{"inputs":[],"name":"configureAdvancedSettings","outputs":[],"stateMutability":"nonpayable","type":"function"},{"inputs":[],"name":"deploySystem","outputs":[{"internalType":"address[]","name":"deployedContracts","type":"address[]"}],"stateMutability":"nonpayable","type":"function"},{"inputs":[],"name":"deployer","outputs":[{"internalType":"address","name":"","type":"address"}],"stateMutability":"view","type":"function"},{"inputs":[],"name":"emergencyPause","outputs":[],"stateMutability":"nonpayable","type":"function"},{"inputs":[],"name":"getDeployedContracts","outputs":[{"internalType":"address","name":"_whaleToken","type":"address"},{"internalType":"address","name":"_tokenFactory","type":"address"},{"internalType":"address","name":"_tradingEngine","type":"address"},{"internalType":"address","name":"_bossBattleArena","type":"address"},{"internalType":"address","name":"_multiSigWallet","type":"address"},{"internalType":"address","name":"_timeLockController","type":"address"},{"internalType":"address","name":"_governanceController","type":"address"},{"internalType":"address","name":"_securityController","type":"address"}],"stateMutability":"view","type":"function"},{"inputs":[{"internalType":"string","name":"name","type":"string"}],"name":"getPreDeployedContract","outputs":[{"internalType":"address","name":"","type":"address"}],"stateMutability":"view","type":"function"},{"inputs":[],"name":"governanceController","outputs":[{"internalType":"contract IGovernanceController","name":"","type":"address"}],"stateMutability":"view","type":"function"},{"inputs":[{"internalType":"uint256","name":"","type":"uint256"}],"name":"multiSigOwners","outputs":[{"internalType":"address","name":"","type":"address"}],"stateMutability":"view","type":"function"},{"inputs":[],"name":"multiSigWallet","outputs":[{"internalType":"contract IMultiSigWallet","name":"","type":"address"}],"stateMutability":"view","type":"function"},{"inputs":[{"internalType":"string","name":"","type":"string"}],"name":"preDeployedContracts","outputs":[{"internalType":"address","name":"","type":"address"}],"stateMutability":"view","type":"function"},{"inputs":[],"name":"securityController","outputs":[{"internalType":"contract ISecurityController","name":"","type":"address"}],"stateMutability":"view","type":"function"},{"inputs":[{"internalType":"string","name":"name","type":"string"},{"internalType":"address","name":"contractAddress","type":"address"}],"name":"setPreDeployedContract","outputs":[],"stateMutability":"nonpayable","type":"function"},{"inputs":[],"name":"timeLockController","outputs":[{"internalType":"contract ITimeLockController","name":"","type":"address"}],"stateMutability":"view","type":"function"},{"inputs":[],"name":"tokenFactory","outputs":[{"internalType":"contract ITokenFactory","name":"","type":"address"}],"stateMutability":"view","type":"function"},{"inputs":[],"name":"tradingEngine","outputs":[{"internalType":"contract ITradingEngine","name":"","type":"address"}],"stateMutability":"view","type":"function"},{"inputs":[],"name":"whaleToken","outputs":[{"internalType":"contract IWhaleToken","name":"","type":"address"}],"stateMutability":"view","type":"function"}],"bytecode":"0x60a0604052346102765761118d803803806100198161027a565b928339810190602081830312610276578051906001600160401b038211610276570181601f82011215610276578051916001600160401b038311610150578260051b9160208061006a81860161027a565b80968152019382010191821161027657602001915b8183106102565783600381511061021257600a8151116101cd57336080525f5b8151811015610199576001600160a01b036100ba828461029f565b511615610164576001600160a01b036100d3828461029f565b511690600854916801000000000000000083101561015057600183018060085583101561013c5760085f527ff3f7a9fe364faab93b216da50a3214154f22a0a2b415b23a84c8169e8b636ee390920180546001600160a01b03191690921790915560010161009f565b634e487b7160e01b5f52603260045260245ffd5b634e487b7160e01b5f52604160045260245ffd5b60405162461bcd60e51b815260206004820152600d60248201526c24b73b30b634b21037bbb732b960991b6044820152606490fd5b604051610ed990816102b48239608051818181610175015281816102310152818161037801528181610b390152610d270152f35b60405162461bcd60e51b815260206004820152601960248201527f546f6f206d616e79206d756c74692d736967206f776e657273000000000000006044820152606490fd5b606460405162461bcd60e51b815260206004820152602060248201527f4e656564206174206c656173742033206d756c74692d736967206f776e6572736044820152fd5b82516001600160a01b03811681036102765781526020928301920161007f565b5f80fd5b6040519190601f01601f191682016001600160401b0381118382101761015057604052565b805182101561013c5760209160051b01019056fe60806040526004361015610011575f80fd5b5f5f3560e01c80631ab1a0c114610cdb5780631fa097a214610cb357806323a7e47514610c795780632edfd1c214610c3f57806330238d7c14610c0d578063475ad03a14610be55780634b8feb4f14610bbd57806351858e2714610b225780635396526c14610af9578063587d812714610add5780635ba1c1a914610abf5780635cfb9fa114610a965780636603a7b214610a36578063695eacb614610a0f5780636dc58960146103615780639a50db9c146102ff578063a84195ea146102d6578063aa9a068f14610260578063d5f394881461021b578063e4bda9c71461015e578063e77772fe146101355763f1d157441461010c575f80fd5b34610132578060031936011261013257546040516001600160a01b039091168152602090f35b80fd5b50346101325780600319360112610132576001546040516001600160a01b039091168152602090f35b50346101325780600319360112610132576101a3337f00000000000000000000000000000000000000000000000000000000000000006001600160a01b031614610e4f565b80546001600160a01b0316156101e0577fad3d04915acaeef42f4fe5f6a16406c015d512b8a4043cf7f949336f84f24d1d6020604051428152a180f35b60405162461bcd60e51b815260206004820152601360248201527214de5cdd195b481b9bdd0819195c1b1bde5959606a1b6044820152606490fd5b50346101325780600319360112610132576040517f00000000000000000000000000000000000000000000000000000000000000006001600160a01b03168152602090f35b503461013257806003193601126101325754600154600254600354600454600554600654600754604080516001600160a01b03998a16815297891660208901529588169587019590955292861660608601529085166080850152841660a0840152831660c083015290911660e082015261010090f35b50346101325780600319360112610132576006546040516001600160a01b039091168152602090f35b503461013257602036600319011261013257600435906001600160401b0382116101325760206103323660048501610dfa565b8160405191805191829101835e600990820190815281900382019020546040516001600160a01b039091168152f35b50346101325780600319360112610132576103a6337f00000000000000000000000000000000000000000000000000000000000000006001600160a01b031614610e4f565b6101206040516103b68282610dc3565b600881526020810191601f190136833760408051692bb430b632aa37b5b2b760b11b81526009600a808301829052602a928390205484516b546f6b656e466163746f727960a01b8152600c8101849052602c90205485516c54726164696e67456e67696e6560981b8152600d8101859052602d90205486516e426f7373426174746c654172656e6160881b8152600f8101869052602f9020548751674d756c746953696760c01b81526008808201889052602891829020548a516754696d654c6f636b60c01b81529182018990529190205489517129b2b1bab934ba3ca1b7b73a3937b63632b960711b8152601281018990526032902054995169476f7665726e616e636560b01b81529687019790975296909420546001600160a01b039182169792821696938216959482169493821693908216928216911685156109d057861561098f57871561094d5784156109095783156108cc57801561088f57811561084a57821561080b578a546001600160a01b031990811687178c55600180548216891790556002805482168a1790556003805482168717905560048054821686179055600580548216831790556007805482168417905560068054909116841790558851156107f757858a528851600110156107f7578360408a01528851600210156107f75760608901528751600310156107e35760808801528651600410156107cf578460a08801528651600510156107cf578560c08801528651600610156107cf578260e08801528651600710156107cf5761010087015260405163a9059cbb60e01b815260048101919091526af8277896582678ac00000060248201526020816044818b875af1801561078a576107b2575b50865460035460405163a9059cbb60e01b81526001600160a01b0391821660048201526aa56fa5b99019a5c8000000602482015291602091839160449183918d91165af1801561078a57610795575b50865460025460405163a9059cbb60e01b81526001600160a01b0391821660048201526acecb8f27f4200f3a00000060248201529591602091879160449183918d91165af193841561078a577ffd4dce81de2aea172b8bffc7ecc76d58d57177e3d6994d810db6f41e749b73239560a09561075b575b50604097969751938452602084015260408301526060820152426080820152a1604051928392602084019060208552518091526040840192915b818110610739575050500390f35b82516001600160a01b031684528594506020938401939092019160010161072b565b61077c9060203d602011610783575b6107748183610dc3565b810190610e8b565b505f6106f1565b503d61076a565b6040513d8a823e3d90fd5b6107ad9060203d602011610783576107748183610dc3565b61067b565b6107ca9060203d602011610783576107748183610dc3565b61062c565b634e487b7160e01b89526032600452602489fd5b634e487b7160e01b8a52603260045260248afd5b634e487b7160e01b8b52603260045260248bfd5b60405162461bcd60e51b815260206004820152601760248201527611dbdd995c9b985b98d9481b9bdd0819195c1b1bde5959604a1b6044820152606490fd5b60405162461bcd60e51b815260206004820152601f60248201527f5365637572697479436f6e74726f6c6c6572206e6f74206465706c6f796564006044820152606490fd5b60405162461bcd60e51b8152602060048201526015602482015274151a5b59531bd8dac81b9bdd0819195c1b1bde5959605a1b6044820152606490fd5b60405162461bcd60e51b8152602060048201526015602482015274135d5b1d1a54da59c81b9bdd0819195c1b1bde5959605a1b6044820152606490fd5b60405162461bcd60e51b815260206004820152601c60248201527b109bdcdcd0985d1d1b19505c995b98481b9bdd0819195c1b1bde595960221b6044820152606490fd5b60405162461bcd60e51b815260206004820152601a602482015279151c98591a5b99d15b99da5b99481b9bdd0819195c1b1bde595960321b6044820152606490fd5b60405162461bcd60e51b8152602060048201526019602482015278151bdad95b919858dd1bdc9e481b9bdd0819195c1b1bde5959603a1b6044820152606490fd5b60405162461bcd60e51b815260206004820152601760248201527615da185b19551bdad95b881b9bdd0819195c1b1bde5959604a1b6044820152606490fd5b5034610132578060031936011261013257604051676765c793fa10079d601b1b8152602090f35b503461013257602036600319011261013257600435600854811015610a925760089091527ff3f7a9fe364faab93b216da50a3214154f22a0a2b415b23a84c8169e8b636ee301546040516001600160a01b039091168152602090f35b5080fd5b50346101325780600319360112610132576002546040516001600160a01b039091168152602090f35b503461013257806003193601126101325760206040516202a3008152f35b5034610132578060031936011261013257602060405160038152f35b50346101325780600319360112610132576005546040516001600160a01b039091168152602090f35b5034610bb9575f366003190112610bb957610b67337f00000000000000000000000000000000000000000000000000000000000000006001600160a01b031614610e4f565b6007546001600160a01b0316803b15610bb9575f80916004604051809481936344b55ccb60e01b83525af18015610bae57610ba0575080f35b610bac91505f90610dc3565b005b6040513d5f823e3d90fd5b5f80fd5b34610bb9575f366003190112610bb9576004546040516001600160a01b039091168152602090f35b34610bb9575f366003190112610bb9576003546040516001600160a01b039091168152602090f35b34610bb9576020366003190112610bb9576004356001600160401b038111610bb9576103326020913690600401610dfa565b34610bb9575f366003190112610bb95760206040517f3d756f2d713885339bf87a67d06485521802e959f50d61d7607ed7117e51bc168152f35b34610bb9575f366003190112610bb95760206040517fd740fe3d0fc08c84d2a873aea691406d73359036a0f9480893664d504390210a8152f35b34610bb9575f366003190112610bb9576007546040516001600160a01b039091168152602090f35b34610bb9576040366003190112610bb9576004356001600160401b038111610bb957610d0b903690600401610dfa565b6024356001600160a01b0381169190829003610bb957610d55337f00000000000000000000000000000000000000000000000000000000000000006001600160a01b031614610e4f565b8115610d8c5760208091604051928184925191829101835e60099082019081520301902080546001600160a01b0319169091179055005b60405162461bcd60e51b815260206004820152600f60248201526e496e76616c6964206164647265737360881b6044820152606490fd5b601f909101601f19168101906001600160401b03821190821017610de657604052565b634e487b7160e01b5f52604160045260245ffd5b81601f82011215610bb9578035906001600160401b038211610de65760405192610e2e601f8401601f191660200185610dc3565b82845260208383010111610bb957815f926020809301838601378301015290565b15610e5657565b60405162461bcd60e51b815260206004820152600d60248201526c27b7363c903232b83637bcb2b960991b6044820152606490fd5b90816020910312610bb957518015158103610bb9579056fea26469706673582212203f059dab8ccdfa57309dcef9124af0f8ea17073fe2794999fc09e67efde0e20864736f6c634300081c0033","linkReferences":{},"deployedLinkReferences":{},"immutableReferences":{"11398":[{"length":32,"start":373},{"length":32,"start":561},{"length":32,"start":888},{"length":32,"start":2873},{"length":32,"start":3367}]},"inputSourceName":"project/contracts/StreamLaunchDeployer.sol","buildInfoId":"solc-0_8_28-7079be9912eddb04e01c38da66a2cee036e8873d"}