{"_format":"hh3-artifact-1","contractName":"TokenFactory","sourceName":"contracts/TokenFactory.sol","abi":[{"inputs":[{"internalType":"address","name":"_whaleToken","type":"address"}],"stateMutability":"nonpayable","type":"constructor"},{"inputs":[{"internalType":"address","name":"owner","type":"address"}],"name":"OwnableInvalidOwner","type":"error"},{"inputs":[{"internalType":"address","name":"account","type":"address"}],"name":"OwnableUnauthorizedAccount","type":"error"},{"inputs":[],"name":"ReentrancyGuardReentrantCall","type":"error"},{"anonymous":false,"inputs":[{"indexed":true,"internalType":"uint256","name":"oldFee","type":"uint256"},{"indexed":true,"internalType":"uint256","name":"newFee","type":"uint256"}],"name":"LaunchFeeUpdated","type":"event"},{"anonymous":false,"inputs":[{"indexed":true,"internalType":"address","name":"previousOwner","type":"address"},{"indexed":true,"internalType":"address","name":"newOwner","type":"address"}],"name":"OwnershipTransferred","type":"event"},{"anonymous":false,"inputs":[{"indexed":true,"internalType":"address","name":"token","type":"address"},{"indexed":true,"internalType":"address","name":"creator","type":"address"},{"indexed":false,"internalType":"string","name":"name","type":"string"},{"indexed":false,"internalType":"string","name":"symbol","type":"string"},{"indexed":false,"internalType":"uint256","name":"totalSupply","type":"uint256"},{"indexed":false,"internalType":"uint256","name":"timestamp","type":"uint256"}],"name":"TokenCreated","type":"event"},{"inputs":[],"name":"CREATION_COOLDOWN","outputs":[{"internalType":"uint256","name":"","type":"uint256"}],"stateMutability":"view","type":"function"},{"inputs":[{"internalType":"uint256","name":"","type":"uint256"}],"name":"allTokens","outputs":[{"internalType":"address","name":"","type":"address"}],"stateMutability":"view","type":"function"},{"inputs":[{"internalType":"string","name":"name","type":"string"},{"internalType":"string","name":"symbol","type":"string"},{"internalType":"uint256","name":"totalSupply","type":"uint256"},{"internalType":"uint256","name":"targetMarketCap","type":"uint256"},{"internalType":"uint256","name":"creatorFeePercent","type":"uint256"},{"internalType":"string","name":"description","type":"string"},{"internalType":"string","name":"logoUrl","type":"string"}],"name":"createToken","outputs":[{"internalType":"address","name":"","type":"address"}],"stateMutability":"payable","type":"function"},{"inputs":[{"internalType":"string","name":"name","type":"string"},{"internalType":"string","name":"symbol","type":"string"},{"internalType":"uint256","name":"totalSupply","type":"uint256"},{"internalType":"uint256","name":"targetMarketCap","type":"uint256"},{"internalType":"uint256","name":"creatorFeePercent","type":"uint256"},{"internalType":"string","name":"description","type":"string"},{"internalType":"string","name":"logoUrl","type":"string"},{"internalType":"uint256","name":"expectedCommunitySize","type":"uint256"}],"name":"createTokenWithCommunityData","outputs":[{"internalType":"address","name":"","type":"address"}],"stateMutability":"payable","type":"function"},{"inputs":[{"internalType":"address","name":"","type":"address"}],"name":"creatorTokenCount","outputs":[{"internalType":"uint256","name":"","type":"uint256"}],"stateMutability":"view","type":"function"},{"inputs":[{"internalType":"address","name":"","type":"address"},{"internalType":"uint256","name":"","type":"uint256"}],"name":"creatorTokens","outputs":[{"internalType":"address","name":"","type":"address"}],"stateMutability":"view","type":"function"},{"inputs":[{"internalType":"address","name":"","type":"address"}],"name":"creatorUniqueTokens","outputs":[{"internalType":"uint256","name":"","type":"uint256"}],"stateMutability":"view","type":"function"},{"inputs":[],"name":"getAllTokens","outputs":[{"internalType":"address[]","name":"","type":"address[]"}],"stateMutability":"view","type":"function"},{"inputs":[{"internalType":"address","name":"creator","type":"address"}],"name":"getCreatorMetrics","outputs":[{"internalType":"uint256","name":"tokensCreated","type":"uint256"},{"internalType":"uint256","name":"successfulTokens","type":"uint256"},{"internalType":"uint256","name":"totalMarketCap","type":"uint256"},{"internalType":"uint256","name":"averageTokenAge","type":"uint256"},{"internalType":"uint256","name":"totalFeesEarned","type":"uint256"}],"stateMutability":"view","type":"function"},{"inputs":[{"internalType":"address","name":"creator","type":"address"}],"name":"getCreatorTokens","outputs":[{"internalType":"address[]","name":"","type":"address[]"}],"stateMutability":"view","type":"function"},{"inputs":[],"name":"getFactoryAnalytics","outputs":[{"internalType":"uint256","name":"avgTokensPerCreator","type":"uint256"},{"internalType":"uint256","name":"successRate","type":"uint256"},{"internalType":"uint256","name":"totalMarketCap","type":"uint256"}],"stateMutability":"view","type":"function"},{"inputs":[],"name":"getFactoryStats","outputs":[{"internalType":"uint256","name":"_totalTokensCreated","type":"uint256"},{"internalType":"uint256","name":"_totalVolumeTraded","type":"uint256"},{"internalType":"uint256","name":"_totalFeesCollected","type":"uint256"},{"internalType":"uint256","name":"_launchFee","type":"uint256"}],"stateMutability":"view","type":"function"},{"inputs":[],"name":"getPlatformMetrics","outputs":[{"internalType":"uint256","name":"totalTokensCreated_","type":"uint256"},{"internalType":"uint256","name":"activeTokens","type":"uint256"},{"internalType":"uint256","name":"totalVolumeTraded_","type":"uint256"},{"internalType":"uint256","name":"avgTokenAge","type":"uint256"},{"internalType":"uint256","name":"topTokenMarketCap","type":"uint256"}],"stateMutability":"view","type":"function"},{"inputs":[{"internalType":"address","name":"","type":"address"}],"name":"isValidToken","outputs":[{"internalType":"bool","name":"","type":"bool"}],"stateMutability":"view","type":"function"},{"inputs":[{"internalType":"address","name":"","type":"address"}],"name":"lastTokenCreation","outputs":[{"internalType":"uint256","name":"","type":"uint256"}],"stateMutability":"view","type":"function"},{"inputs":[],"name":"launchFee","outputs":[{"internalType":"uint256","name":"","type":"uint256"}],"stateMutability":"view","type":"function"},{"inputs":[],"name":"maxTokensPerCreator","outputs":[{"internalType":"uint256","name":"","type":"uint256"}],"stateMutability":"view","type":"function"},{"inputs":[],"name":"minInitialLiquidity","outputs":[{"internalType":"uint256","name":"","type":"uint256"}],"stateMutability":"view","type":"function"},{"inputs":[],"name":"owner","outputs":[{"internalType":"address","name":"","type":"address"}],"stateMutability":"view","type":"function"},{"inputs":[],"name":"renounceOwnership","outputs":[],"stateMutability":"nonpayable","type":"function"},{"inputs":[{"internalType":"uint256","name":"newFee","type":"uint256"}],"name":"setLaunchFee","outputs":[],"stateMutability":"nonpayable","type":"function"},{"inputs":[{"internalType":"uint256","name":"newMax","type":"uint256"}],"name":"setMaxTokensPerCreator","outputs":[],"stateMutability":"nonpayable","type":"function"},{"inputs":[{"internalType":"uint256","name":"newMin","type":"uint256"}],"name":"setMinInitialLiquidity","outputs":[],"stateMutability":"nonpayable","type":"function"},{"inputs":[{"internalType":"address","name":"","type":"address"}],"name":"tokenToCreator","outputs":[{"internalType":"address","name":"","type":"address"}],"stateMutability":"view","type":"function"},{"inputs":[{"internalType":"address","name":"","type":"address"}],"name":"tokenToLaunchTime","outputs":[{"internalType":"uint256","name":"","type":"uint256"}],"stateMutability":"view","type":"function"},{"inputs":[],"name":"totalFeesCollected","outputs":[{"internalType":"uint256","name":"","type":"uint256"}],"stateMutability":"view","type":"function"},{"inputs":[],"name":"totalTokensCreated","outputs":[{"internalType":"uint256","name":"","type":"uint256"}],"stateMutability":"view","type":"function"},{"inputs":[],"name":"totalVolumeTraded","outputs":[{"internalType":"uint256","name":"","type":"uint256"}],"stateMutability":"view","type":"function"},{"inputs":[{"internalType":"address","name":"newOwner","type":"address"}],"name":"transferOwnership","outputs":[],"stateMutability":"nonpayable","type":"function"},{"inputs":[{"internalType":"uint256","name":"","type":"uint256"}],"name":"uniqueCreators","outputs":[{"internalType":"address","name":"","type":"address"}],"stateMutability":"view","type":"function"},{"inputs":[],"name":"whaleToken","outputs":[{"internalType":"address","name":"","type":"address"}],"stateMutability":"view","type":"function"},{"inputs":[],"name":"withdrawFees","outputs":[],"stateMutability":"nonpayable","type":"function"},{"stateMutability":"payable","type":"receive"}],"bytecode":"0x60a0346100ef57601f61601838819003918201601f19168301916001600160401b038311848410176100f3578084926020946040528339810103126100ef57516001600160a01b03811681036100ef5760015f5533156100dc5760018054336001600160a01b0319821681179092556040519291906001600160a01b03167f8be0079c531659141344cd1fd0a4f28419497f9722a3daafe3b4186f6b6457e05f80a3662386f26fc1000060055567016345785d8a00006006556005600755608052615f10908161010882396080518181816102a901526104910152f35b631e4fbdf760e01b5f525f60045260245ffd5b5f80fd5b634e487b7160e01b5f52604160045260245ffdfe608080604052600436101561001c575b50361561001a575f80fd5b005b5f3560e01c9081631e7d04c81461142e575080632a5c792a146113b15780633d82f13814611057578063476343ee146110155780635313be2c14610f895780635adc19c714610f6c5780635eec742b14610f3f57806360c6d8ae14610f22578063634282af14610ef9578063715018a614610eb1578063738c443814610e9457806374abfa5414610e0d5780638da5cb5b14610de5578063969ee14d14610db15780639a57bcdb14610d79578063abb2b68214610d5c578063b08bcc1014610d40578063ba0e208a14610d08578063c187645314610ccb578063c5d3226e14610c5e578063c922644514610c28578063cde0531614610bca578063cf3cf57314610bad578063d422d4fc14610b35578063db3fa4cc14610ad3578063e1a411ae14610948578063e8acc93a146102d8578063f1d1574414610294578063f27f801114610254578063f2fde38b146101e1578063f8568880146101a95763fec7a97814610188575f61000f565b346101a5575f3660031901126101a5576020600754604051908152f35b5f80fd5b346101a55760203660031901126101a5576001600160a01b036101ca611462565b165f52600f602052602060405f2054604051908152f35b346101a55760203660031901126101a5576101fa611462565b6102026119fc565b6001600160a01b0316801561024157600180546001600160a01b0319811683179091556001600160a01b03165f516020615ebb5f395f51905f525f80a3005b631e4fbdf760e01b5f525f60045260245ffd5b346101a55760203660031901126101a5576001600160a01b03610275611462565b165f52600d602052602060018060a01b0360405f205416604051908152f35b346101a5575f3660031901126101a5576040517f00000000000000000000000000000000000000000000000000000000000000006001600160a01b03168152602090f35b6101003660031901126101a5576004356001600160401b0381116101a5576103049036906004016114dd565b6024356001600160401b0381116101a5576103239036906004016114dd565b90606435906044359060843560a4356001600160401b0381116101a55761034e9036906004016114dd565b9060c4356001600160401b0381116101a55761036e9036906004016114dd565b6005549561037c87346115b3565b9660025f54146109395760025f556006546103969161160c565b341061090157851515806108ec575b156108b657801515806108a2575b1561086f57601e83101580610864575b156108315784518015159081610825575b50156107f157875180151590816107e5575b50156107af57335f52600b60205260405f2054600754111561077557335f52600c60205260405f2054610e1081018091116106e457421061073e57604051936143c993848601936001600160401b0385118786101761072a576104d08a94610140946104df9461047a8f61046c8e8e9d8e611ad290396101608d526101608d0190611955565b908b820360208d0152611955565b60408a018e905260608a01939093523360808a01527f00000000000000000000000000000000000000000000000000000000000000006001600160a01b031660a08a015260c089015287820360e0890152611955565b90858203610100870152611955565b9260e435610120820152015203905ff08015610651576001600160a01b03169261050884611979565b335f52600360205261051d8460405f206119df565b835f52600460205260405f20600160ff1982541617905561053f600854611619565b600855335f52600b60205260405f206105588154611619565b9055335f818152600c602090815260408083204290819055888452600d835281842080546001600160a01b03191686179055600e835281842055928252600f905220541561071c575b335f52600f60205260405f206105b78154611619565b90556105c23a611a23565b6105cb42611a4a565b601460115411610665575b5f808080938782821561065c575bf115610651575f516020615e9b5f395f51905f52839161063360209661060e600554600a5461160c565b600a5561062660405193608085526080850190611955565b9083820389850152611955565b9360408201524260608201528033940390a360015f55604051908152f35b6040513d5f823e3d90fd5b506108fc6105e4565b939291905f5b6011545f1981019081116106e4578110156106f85760018101908181116106e4576106de6106ce836106c96106a1600196611532565b90549060031b1c6106b186611532565b90919082549060031b91821b915f19901b1916179055565b61154a565b90549060031b1c6106b18361154a565b0161066b565b634e487b7160e01b5f52601160045260245ffd5b50909192935f8080809361070a611a6f565b610712611ab2565b93505050506105d6565b610725336119be565b6105a1565b634e487b7160e01b5f52604160045260245ffd5b60405162461bcd60e51b815260206004820152600f60248201526e436f6f6c646f776e2061637469766560881b6044820152606490fd5b60405162461bcd60e51b815260206004820152601260248201527113585e081d1bdad95b9cc81c995858da195960721b6044820152606490fd5b60405162461bcd60e51b815260206004820152600e60248201526d125b9d985b1a59081cde5b589bdb60921b6044820152606490fd5b600a91501115896103e6565b60405162461bcd60e51b815260206004820152600c60248201526b496e76616c6964206e616d6560a01b6044820152606490fd5b602091501115896103d4565b60405162461bcd60e51b815260206004820152600b60248201526a496e76616c69642066656560a81b6044820152606490fd5b50605f8311156103c3565b60405162461bcd60e51b815260206004820152600b60248201526a0496e76616c6964206361760ac1b6044820152606490fd5b5069d3c21bcecceda10000008111156103b3565b60405162461bcd60e51b815260206004820152600e60248201526d496e76616c696420737570706c7960901b6044820152606490fd5b50676765c793fa10079d601b1b8611156103a5565b60405162461bcd60e51b815260206004820152601060248201526f496e73756666696369656e742066656560801b6044820152606490fd5b633ee5aeb560e01b5f5260045ffd5b346101a5575f3660031901126101a5576008546009545f915f915f905f600254905b8181106109a6575093949293506109999284801561099d5761098b916115c0565b905b6040519586958661158f565b0390f35b50505f9061098d565b6109de6109b282611562565b60018060a01b0391549060031b1c1697885f52600e6020526109d860405f2054426115b3565b9061160c565b9660405163097cd9bf60e01b815260c081600481855afa5f9181610a9d575b50610a0d575b505060010161096a565b858111610a94575b50602060049160405192838092634c6443bf60e11b82525afa5f9181610a61575b50610a42575b80610a03565b610a4d575b87610a3c565b94610a59600191611619565b959050610a47565b9091506020813d8211610a8c575b81610a7c602093836114ba565b810103126101a557519089610a36565b3d9150610a6f565b94506020610a15565b610abf91925060c03d8111610acc575b610ab781836114ba565b8101906115de565b505092505050908a6109fd565b503d610aad565b346101a55760403660031901126101a557610aec611462565b6001600160a01b03165f908152600360205260409020805460243591908210156101a557602091610b1c9161157a565b905460405160039290921b1c6001600160a01b03168152f35b346101a55760203660031901126101a5576004356010548110156101a557601054811015610b995760105f527f1b6847dc741a1b0cd08d278845f9d819d87b734759afb55fe2de5cb82a9ae67201546040516001600160a01b039091168152602090f35b634e487b7160e01b5f52603260045260245ffd5b346101a5575f3660031901126101a5576020600554604051908152f35b346101a55760203660031901126101a557600435610be66119fc565b662386f26fc100008110610bf957600655005b60405162461bcd60e51b8152602060048201526007602482015266546f6f206c6f7760c81b6044820152606490fd5b346101a5575f3660031901126101a5576080600854600954600a5460055491604051938452602084015260408301526060820152f35b346101a55760203660031901126101a557600435610c7a6119fc565b80151580610cc0575b15610c8d57600755005b60405162461bcd60e51b815260206004820152600b60248201526a092dcecc2d8d2c840dac2f60ab1b6044820152606490fd5b506014811115610c83565b346101a55760203660031901126101a5576001600160a01b03610cec611462565b165f526004602052602060ff60405f2054166040519015158152f35b346101a55760203660031901126101a5576001600160a01b03610d29611462565b165f52600e602052602060405f2054604051908152f35b346101a5575f3660031901126101a5576020604051610e108152f35b346101a5575f3660031901126101a5576020600854604051908152f35b346101a55760203660031901126101a5576001600160a01b03610d9a611462565b165f52600b602052602060405f2054604051908152f35b346101a55760203660031901126101a557610999610dd5610dd0611462565b6117e7565b916040959395519586958661158f565b346101a5575f3660031901126101a5576001546040516001600160a01b039091168152602090f35b346101a55760203660031901126101a5576001600160a01b03610e2e611462565b165f52600360205260405f206040519081602082549182815201915f5260205f20905f5b818110610e755761099985610e69818703826114ba565b60405191829182611478565b82546001600160a01b0316845260209093019260019283019201610e52565b346101a5575f3660031901126101a5576020600654604051908152f35b346101a5575f3660031901126101a557610ec96119fc565b600180546001600160a01b031981169091555f906001600160a01b03165f516020615ebb5f395f51905f528280a3005b346101a55760203660031901126101a5576004356002548110156101a557610b1c602091611562565b346101a5575f3660031901126101a5576020600a54604051908152f35b346101a5575f3660031901126101a5576060610f59611627565b9060405192835260208301526040820152f35b346101a5575f3660031901126101a5576020600954604051908152f35b346101a55760203660031901126101a557600435610fa56119fc565b67016345785d8a00008111610fe157806005547f0fd958ac60db1437ae35514054402c4e597e81881e4b6dd47a6509bd891214285f80a3600555005b60405162461bcd60e51b815260206004820152600c60248201526b08ccaca40e8dede40d0d2ced60a31b6044820152606490fd5b346101a5575f3660031901126101a55761102d6119fc565b5f80808060018060a01b0360015416479082821561104e575bf11561065157005b506108fc611046565b60e03660031901126101a5576004356001600160401b0381116101a5576110829036906004016114dd565b6024356001600160401b0381116101a5576110a19036906004016114dd565b90606435906044359060843560a4356001600160401b0381116101a5576110cc9036906004016114dd565b9060c4356001600160401b0381116101a5576110ec9036906004016114dd565b600554956110fa87346115b3565b9660025f54146109395760025f556006546111149161160c565b3410610901578515158061139c575b156108b65780151580611388575b1561086f57601e8310158061137d575b156108315784518015159081611371575b50156107f15787518015159081611365575b50156107af57335f52600b60205260405f2054600754111561077557335f52600c60205260405f2054610e1081018091116106e457421061073e57604051936143c993848601936001600160401b0385118786101761072a576104d08a94610140946111ea9461047a8f61046c8e8e9d8e611ad290396101608d526101608d0190611955565b925f610120820152015203905ff08015610651576001600160a01b03169261121184611979565b335f5260036020526112268460405f206119df565b835f52600460205260405f20600160ff19825416179055611248600854611619565b600855335f52600b60205260405f206112618154611619565b9055335f818152600c602090815260408083204290819055888452600d835281842080546001600160a01b03191686179055600e835281842055928252600f9052205415611357575b335f52600f60205260405f206112c08154611619565b90556112cb3a611a23565b6112d442611a4a565b601460115411611315575f808080938782821561065c57f115610651575f516020615e9b5f395f51905f52839161063360209661060e600554600a5461160c565b939291905f5b6011545f1981019081116106e4578110156106f85760018101908181116106e4576113516106ce836106c96106a1600196611532565b0161131b565b611360336119be565b6112aa565b600a9150111589611164565b60209150111589611152565b50605f831115611141565b5069d3c21bcecceda1000000811115611131565b50676765c793fa10079d601b1b861115611123565b346101a5575f3660031901126101a557604051600280548083525f91825260208301917f405787fa12a823e0f2b7631cc41b3ba8828b3321ca811111fa75cd3aa3bb5ace91905b81811061140f5761099985610e69818703826114ba565b82546001600160a01b03168452602090930192600192830192016113f8565b346101a55760203660031901126101a5576020906001600160a01b03611452611462565b165f52600c825260405f20548152f35b600435906001600160a01b03821682036101a557565b60206040818301928281528451809452019201905f5b81811061149b5750505090565b82516001600160a01b031684526020938401939092019160010161148e565b601f909101601f19168101906001600160401b0382119082101761072a57604052565b81601f820112156101a5578035906001600160401b03821161072a5760405192611511601f8401601f1916602001856114ba565b828452602083830101116101a557815f926020809301838601378301015290565b601154811015610b995760115f5260205f2001905f90565b601254811015610b995760125f5260205f2001905f90565b600254811015610b995760025f5260205f2001905f90565b8054821015610b99575f5260205f2001905f90565b9192608093969594919660a084019784526020840152604083015260608201520152565b919082039182116106e457565b81156115ca570490565b634e487b7160e01b5f52601260045260245ffd5b91908260c09103126101a55781519160208101519160408201519160608101519160a0608083015192015190565b919082018092116106e457565b5f1981146106e45760010190565b60085480156117de5760105480156117d6576103e88202908282046103e8036106e457611653916115c0565b915b6002545f92839182805b828110611689575050506064820291808304606414901517156106e457611685916115c0565b9190565b61169281611562565b905460405163097cd9bf60e01b81529160031b1c6001600160a01b031660c082600481845afa5f92816117b0575b506116d15750506001905b0161165f565b90976116e689670de0b6b3a76400009261160c565b9811815f52600e60205262093a8061170260405f2054426115b3565b1181156117a8575b50611791575b602060049160405192838092634c6443bf60e11b82525afa5f918161175e575b5061173f575b506001906116cb565b61174a575b5f611736565b90611756600191611619565b919050611744565b9091506020813d8211611789575b81611779602093836114ba565b810103126101a55751905f611730565b3d915061176c565b94602061179f600492611619565b96915050611710565b90505f61170a565b6117c991935060c03d8111610acc57610ab781836114ba565b505092505050915f6116c0565b505f91611655565b505f905f905f90565b60018060a01b03165f52600360205260405f2090604051808360208295549384815201905f5260205f20925f5b818110611933575050611829925003836114ba565b81518015611925575f905f935f905f925f5b825181101561190d57600460c061187460018060a01b0360208560051b880101511696875f52600e6020526109d860405f2054426115b3565b956040519283809263097cd9bf60e01b82525afa805f925f926118e3575b506118a2575b505060010161183b565b6118c1906118bb83670de0b6b3a764000094999c61160c565b9a61160c565b95116118cf575b5f80611898565b946118db600191611619565b9590506118c8565b9092506118fe915060c03d8111610acc57610ab781836114ba565b9594505091505091905f611892565b5061191d915080949695926115c0565b929493929190565b505f91508190819081908190565b84546001600160a01b0316835260019485019487945060209093019201611814565b805180835260209291819084018484015e5f828201840152601f01601f1916010190565b600254600160401b81101561072a5780600161199a9201600255600261157a565b81546001600160a01b0393841660039290921b91821b9390911b1916919091179055565b601054600160401b81101561072a5780600161199a9201601055601061157a565b8054600160401b81101561072a5761199a9160018201815561157a565b6001546001600160a01b03163303611a1057565b63118cdaa760e01b5f523360045260245ffd5b60115490600160401b82101561072a576106b1826001611a489401601155601161157a565b565b60125490600160401b82101561072a576106b1826001611a489401601255601261157a565b6011548015611a9e575f1901611a99611a8982601161157a565b8154905f199060031b1b19169055565b601155565b634e487b7160e01b5f52603160045260245ffd5b6012548015611a9e575f1901611acc611a8982601261157a565b60125556fe61010060405234610c4f576143c98038038061001a81610c72565b928339810161016082820312610c4f5781516001600160401b038111610c4f5781610046918401610c97565b60208301519092906001600160401b038111610c4f5782610068918301610c97565b9260408201519360608301519361008160808501610ce8565b61008d60a08601610ce8565b60c086015160e08701519092906001600160401b038111610c4f57846100b4918901610c97565b61010088015190946001600160401b038211610c4f576100d5918901610c97565b946101406101208901519801519680519060018060401b0382116105d75760035490600182811c92168015610c45575b60208310146109765781601f849311610bd7575b50602090601f8311600114610b71575f92610b66575b50508160011b915f199060031b1c1916176003555b8051906001600160401b0382116105d75760045490600182811c92168015610b5c575b60208310146109765781601f849311610aee575b50602090601f8311600114610a88575f92610a7d575b50508160011b915f199060031b1c1916176004555b60016005556080523360a05260c05260128790556022558051906001600160401b0382116105d75760065490600182811c92168015610a73575b60208310146109765781601f849311610a05575b50602090601f831160011461099f575f92610994575b50508160011b915f199060031b1c1916176006555b8051906001600160401b0382116105d75760075490600182811c9216801561098a575b60208310146109765781601f849311610908575b50602090601f83116001146108a2575f92610897575b50508160011b915f199060031b1c1916176007555b4260e05262278d00601f55600160c0610298610d06565b6101f4815261012c602082015261012c604082015268056bc75e2d631000006060820152600260808201528260a082015201526101f460165561012c60175561012c60185568056bc75e2d631000006019556002601a5561010161ffff19601b541617601b55610306610d06565b916064811080610885575b15610849575060018252671bc16d674ec8000060608301525b670de0b6b3a7640000830292808404670de0b6b3a7640000149015171561061b576103e884028481046103e8148515171561061b578461036d61037a9286610d38565b9460208501958652610d38565b926040830193845260c0830191825260a083016706f05b59d3b20000815283519160058310156108355760ff8019600b54169316809317600b55519485600c55519283600d55608060608601519586600e5501519182600f555190816010555190816011556103e7610c53565b9360058110156108355784526020840196875260408401948552606084019586526080840192835260a084015260c0830152815161042481610cfc565b61042d81610cfc565b61062f575050915190515f9250156001171561061b57670de0b6b3a7640000610457920490610d55565b64e8d4a51000811061060f575b69152d02c7e14af680000081116105fe575b60145530156105eb5761048b81600254610d55565b600255305f525f60205260405f208181540190556040519081525f7fddf252ad1be2c89b69c2b068fc378daa952ba7f163c4a11628f55a4df523b3ef60203093a3601454602754680100000000000000008110156105d75760018101806027558110156105c35760275f527f98a476f1687bc3d60a2da2adbcba2c46958e61fa2fb4042cd7bc5816a710195b0155602854680100000000000000008110156105d75760018101806028558110156105c35760285f52427fe16da923a2d88192e5070f37b4571d58682c0d66212ec634d495f33de3f77ab59091015560405161350a9081610ebf8239608051818181610513015281816111fb01528181611618015281816117800152611bd4015260a0518161063a015260c05181610263015260e0518181816105430152818161127d01526119c10152f35b634e487b7160e01b5f52603260045260245ffd5b634e487b7160e01b5f52604160045260245ffd5b63ec442f0560e01b5f525f60045260245ffd5b5069152d02c7e14af6800000610476565b5064e8d4a51000610464565b634e487b7160e01b5f52601160045260245ffd5b6001825161063c81610cfc565b61064581610cfc565b0361068157505090515f929150156001171561061b57670de0b6b3a7640000916106758361067b93519204610d72565b90610d42565b04610457565b909291936002845161069281610cfc565b61069b81610cfc565b036106ae57505050602001519050610457565b909192600381516106be81610cfc565b6106c781610cfc565b036107b757505051905f82810392125f83128116905f84139015161761061b576106f19051610d62565b808202915f8212600160ff1b82141661061b57818305149015171561061b57670de0b6b3a764000090055f81126107765761072b90610d72565b670de0b6b3a7640000019081670de0b6b3a76400001161061b575190670de0b6b3a7640000820291808304670de0b6b3a7640000149015171561061b5761077191610d38565b610457565b61078261078791610d62565b610d72565b80156107a3576ec097ce7bc90715b34b9f10000000000461072b565b634e487b7160e01b5f52601260045260245ffd5b90935060049150516107c881610cfc565b6107d181610cfc565b036107fb575f906107f4670de0b6b3a76400009182610771955194049051610d42565b0490610d55565b60405162461bcd60e51b8152602060048201526012602482015271496e76616c6964206375727665207479706560701b6044820152606490fd5b634e487b7160e01b5f52602160045260245ffd5b6103e81080610873575b1561086a57600382528360011c608083015261032a565b6002825261032a565b50683635c9adc5dea000008311610853565b5068056bc75e2d631000008410610311565b015190505f8061026c565b60075f9081528281209350601f198516905b8181106108f057509084600195949392106108d8575b505050811b01600755610281565b01515f1960f88460031b161c191690555f80806108ca565b929360206001819287860151815501950193016108b4565b60075f529091507fa66cc928b5edb82af9bd49922954155ab7b0942694bea4ce44661d9a8736c688601f840160051c8101916020851061096c575b90601f859493920160051c01905b81811061095e5750610256565b5f8155849350600101610951565b9091508190610943565b634e487b7160e01b5f52602260045260245ffd5b91607f1691610242565b015190505f8061020a565b60065f9081528281209350601f198516905b8181106109ed57509084600195949392106109d5575b505050811b0160065561021f565b01515f1960f88460031b161c191690555f80806109c7565b929360206001819287860151815501950193016109b1565b60065f529091507ff652222313e28459528d920b65115c16c04f3efc82aaedc97be59f3f377c0d3f601f840160051c81019160208510610a69575b90601f859493920160051c01905b818110610a5b57506101f4565b5f8155849350600101610a4e565b9091508190610a40565b91607f16916101e0565b015190505f80610191565b60045f9081528281209350601f198516905b818110610ad65750908460019594939210610abe575b505050811b016004556101a6565b01515f1960f88460031b161c191690555f8080610ab0565b92936020600181928786015181550195019301610a9a565b60045f529091507f8a35acfbc15ff81a39ae7d344fd709f28e8600b4aa8c65c6b64bfe7fe36bd19b601f840160051c81019160208510610b52575b90601f859493920160051c01905b818110610b44575061017b565b5f8155849350600101610b37565b9091508190610b29565b91607f1691610167565b015190505f8061012f565b60035f9081528281209350601f198516905b818110610bbf5750908460019594939210610ba7575b505050811b01600355610144565b01515f1960f88460031b161c191690555f8080610b99565b92936020600181928786015181550195019301610b83565b60035f529091507fc2575a0e9e593c00f959f8c92f12db2869c3395a3b0502d05e2516446f71f85b601f840160051c81019160208510610c3b575b90601f859493920160051c01905b818110610c2d5750610119565b5f8155849350600101610c20565b9091508190610c12565b91607f1691610105565b5f80fd5b6040519060e082016001600160401b038111838210176105d757604052565b6040519190601f01601f191682016001600160401b038111838210176105d757604052565b81601f82011215610c4f578051906001600160401b0382116105d757610cc6601f8301601f1916602001610c72565b9282845260208383010111610c4f57815f9260208093018386015e8301015290565b51906001600160a01b0382168203610c4f57565b6005111561083557565b610d0e610c53565b905f82525f60208301525f60408301525f60608301525f60808301525f60a08301525f60c0830152565b81156107a3570490565b8181029291811591840414171561061b57565b9190820180921161061b57565b600160ff1b811461061b575f0390565b8015610e01576802b5e3af16b18800008111610dfb57670de0b6b3a7640000908060015b6014811115610da6575b50505090565b909192610dd883610dd2670de0b6b3a764000093610dcc610dc687610e0e565b89610d38565b90610d55565b95610d42565b04906103e88210610df6575f19811461061b57600101919091610d96565b610da0565b505f1990565b50670de0b6b3a764000090565b6001811115610eb857600a811115610e35578062375f00029062375f0082040361061b5790565b6040519061016082016001600160401b038111838210176105d7576040526001825260016020830152600260408301526006606083015260186080830152607860a08301526102d060c08301526113b060e0830152619d806101008301526205898061012083015262375f00610140830152600b8110156105c35760051b015190565b5060019056fe608080604052600436101561001c575b50361561001a575f80fd5b005b5f3560e01c90816302d05d3f14611bc25750806306fdde0314611b0757806307b5204e14611aad578063095ea7b314611a2b578063097cd9bf146119e4578063134e2e03146119aa578063135a9c811461197f57806318160ddd146119625780631aab9a9f1461194557806323b872dd146118665780632bfbd9cf146117665780632c135b93146117495780632e5e2b3b14611716578063313ce567146116fb578063324536eb146116de578063340e2d19146116c1578063351fee46146116065780633610724e1461157f5780633acd6d50146111b257806346876508146106c257806353613dd314611195578063536e48491461102e57806359a7c15514610f735780636063e63414610eb85780636c11bcd314610bc857806370a0823114610b915780637284e41614610ad65780638c7c02d914610a685780639106d7ba14610a4b57806395d89b411461099057806398c8877e14610973578063993d77af146108b85780639d1b464a146102965780639ee946a514610880578063a707603814610848578063a9059cbb14610817578063abb5ca0914610717578063b27a0484146106df578063b9b2b5cd146106c2578063c42db01414610669578063c45a015514610625578063d3742ecb146104f0578063da2309ee146103ef578063dd62ed3e1461039f578063deec61881461037e578063e4a0e7e91461031c578063e5bd9fa1146102ff578063e8c6e474146102b3578063eb91d37e146102965763f1d157441461024e575f61000f565b34610292575f366003190112610292576040517f00000000000000000000000000000000000000000000000000000000000000006001600160a01b03168152602090f35b5f80fd5b34610292575f366003190112610292576020601454604051908152f35b34610292576020366003190112610292576001600160a01b036102d4611c3a565b165f52601c60205260405f2080546102fb6002600184015493015460405193849384611d9f565b0390f35b34610292575f366003190112610292576020602654604051908152f35b34610292576020366003190112610292576004355f52601d60205260a060405f2060ff81549160026001820154910154906040519384526020840152600180851b03811660408401528181851c161515606084015260a81c1615156080820152f35b34610292575f36600319011261029257602060ff8154166040519015158152f35b34610292576040366003190112610292576103b8611c3a565b6103c0611c50565b6001600160a01b039182165f908152600160209081526040808320949093168252928352819020549051908152f35b60403660031901126102925760243560043561040961254b565b61047a61041830848433612e7a565b92835f52601d60205260405f209060ff60026040519361043785611c66565b805485526001810154602086015201546001600160a01b038116604085015260a081901c82161515606085015260a81c1615156080830152309184903390612ecc565b156104b35761048b903490336126f5565b5f908152601d60205260409020600201805460ff60a01b1916600160a01b1790556001600555005b60405162461bcd60e51b8152602060048201526015602482015274125b9d985b1a590818dbdb5b5a5d0b5c995d99585b605a1b6044820152606490fd5b3461029257604036600319011261029257600435600581101561029257610541337f00000000000000000000000000000000000000000000000000000000000000006001600160a01b031614611e06565b7f0000000000000000000000000000000000000000000000000000000000000000620151808101809111610611574210156105db5760407f4cb6e1df372fb5b7e6301f6096e2a33a3d52cfd536ae23f65cc09045982efc009160ff19600b541660ff821617600b55602435600e556105c36013546105bd611db5565b90612bc8565b6014556105d282518092611c2d565b426020820152a1005b60405162461bcd60e51b815260206004820152600e60248201526d15da5b991bddc8195e1c1a5c995960921b6044820152606490fd5b634e487b7160e01b5f52601160045260245ffd5b34610292575f366003190112610292576040517f00000000000000000000000000000000000000000000000000000000000000006001600160a01b03168152602090f35b34610292575f3660031901126102925760e060165460ff601754601854601954601a5491601b54936040519687526020870152604086015260608501526080840152818116151560a084015260081c16151560c0820152f35b34610292575f366003190112610292576020602154604051908152f35b346102925760203660031901126102925760043560275481101561029257610708602091611cbf565b90549060031b1c604051908152f35b34610292575f366003190112610292576040515f6008548060011c9060018116801561080d575b6020831081146107f9578285529081156107d55750600114610777575b6102fb8361076b81850382611c9c565b60405191829182611c03565b60085f9081527ff3f7a9fe364faab93b216da50a3214154f22a0a2b415b23a84c8169e8b636ee3939250905b8082106107bb5750909150810160200161076b61075b565b9192600181602092548385880101520191019092916107a3565b60ff191660208086019190915291151560051b8401909101915061076b905061075b565b634e487b7160e01b5f52602260045260245ffd5b91607f169161073e565b346102925760403660031901126102925761083d610833611c3a565b6024359033612430565b602060405160018152f35b34610292576020366003190112610292576001600160a01b03610869611c3a565b165f52601e602052602060405f2054604051908152f35b34610292576020366003190112610292576001600160a01b036108a1611c3a565b165f526023602052602060405f2054604051908152f35b34610292575f366003190112610292576040515f6007548060011c90600181168015610969575b6020831081146107f9578285529081156107d5575060011461090b576102fb8361076b81850382611c9c565b60075f9081527fa66cc928b5edb82af9bd49922954155ab7b0942694bea4ce44661d9a8736c688939250905b80821061094f5750909150810160200161076b61075b565b919260018160209254838588010152019101909291610937565b91607f16916108df565b34610292575f366003190112610292576020602554604051908152f35b34610292575f366003190112610292576040515f6004548060011c90600181168015610a41575b6020831081146107f9578285529081156107d557506001146109e3576102fb8361076b81850382611c9c565b60045f9081527f8a35acfbc15ff81a39ae7d344fd709f28e8600b4aa8c65c6b64bfe7fe36bd19b939250905b808210610a275750909150810160200161076b61075b565b919260018160209254838588010152019101909291610a0f565b91607f16916109b7565b34610292575f366003190112610292576020601354604051908152f35b346102925760203660031901126102925760043560285481101561029257602854811015610ac25760285f527fe16da923a2d88192e5070f37b4571d58682c0d66212ec634d495f33de3f77ab50154604051908152602090f35b634e487b7160e01b5f52603260045260245ffd5b34610292575f366003190112610292576040515f6006548060011c90600181168015610b87575b6020831081146107f9578285529081156107d55750600114610b29576102fb8361076b81850382611c9c565b60065f9081527ff652222313e28459528d920b65115c16c04f3efc82aaedc97be59f3f377c0d3f939250905b808210610b6d5750909150810160200161076b61075b565b919260018160209254838588010152019101909291610b55565b91607f1691610afd565b34610292576020366003190112610292576001600160a01b03610bb2611c3a565b165f525f602052602060405f2054604051908152f35b3461029257602036600319011261029257600435610be461254b565b610bf6610bf1823361256b565b611e41565b610c01811515611edc565b335f525f6020528060405f205410610e7c57601354610c28610c21611db5565b83836124ed565b612710610c3760225483611e88565b0491610c438383611ecf565b92834710610e3757610c5885610c9093611ecf565b601355610c696013546105bd611db5565b601455670de0b6b3a7640000610c8460135460145490611e88565b04601555602154611f2e565b602155610c9c33611d86565b610ca7848254611ecf565b9055610cb233611d86565b5415610e20575b610cc290612d4f565b60646027541015610e0b575b610cd9601454611f9e565b610ce242611fc3565b610ced823033612430565b805f8115610e02575b5f80809381933390f115610df7577f8323bebb324b6e1a1d4886a1f210640461bb275263dae69967f001d053ab0b2b90601454610d3a604051928392339684611d9f565b0390a2335f52601e6020524360405f2055601460295410155f14610de0575f5b60138110610d8e5750610d75610d6e611d07565b3a91611f3b565b610d87610d80611d3c565b4291611f3b565b6001600555005b600181019081811161061157610dda610dca83610dc5610daf600196611cd7565b90549060031b1c610dbf86611cd7565b90611f3b565b611cef565b90549060031b1c610dbf83611cef565b01610d5a565b610de93a611f52565b610df242611f79565b610d87565b6040513d5f823e3d90fd5b506108fc610cf6565b610e13612d80565b610e1b612e0f565b610cce565b602454908115610611575f19909101602455610cb9565b60405162461bcd60e51b815260206004820152601d60248201527f496e73756666696369656e7420636f6e74726163742062616c616e63650000006044820152606490fd5b60405162461bcd60e51b8152602060048201526014602482015273496e73756666696369656e742062616c616e636560601b6044820152606490fd5b34610292575f366003190112610292576040515f600a548060011c90600181168015610f69575b6020831081146107f9578285529081156107d55750600114610f0b576102fb8361076b81850382611c9c565b600a5f9081527fc65a7bb8d6351c1cf70c95a316cc6a92839c986682d98bc35f958f4883f9d2a8939250905b808210610f4f5750909150810160200161076b61075b565b919260018160209254838588010152019101909291610f37565b91607f1691610edf565b34610292575f366003190112610292576040515f6009548060011c90600181168015611024575b6020831081146107f9578285529081156107d55750600114610fc6576102fb8361076b81850382611c9c565b60095f9081527f6e1540171b6c0c960b71a7020d9f60077f6af931a8bbf590da0223dacf75c7af939250905b80821061100a5750909150810160200161076b61075b565b919260018160209254838588010152019101909291610ff2565b91607f1691610f9a565b3461029257602036600319011261029257600435801561115a57805f52601d60205260405f205461111d5760405161106581611c66565b8181524260208083018281523360408086018281525f60608801818152608089018281528a8352601d885291849020985189559451600189015590516002979097018054945191516001600160b01b03199095166001600160a01b03989098169790971790151560a01b60ff60a01b161792151560a81b60ff60a81b169290921790945580519485529084019190915290917f77dbf6a5133cc7c3cbdf810d39185bfddfec4ff38273d34819a47cf5b687cdce9190a2005b60405162461bcd60e51b8152602060048201526015602482015274436f6d6d697420616c72656164792065786973747360581b6044820152606490fd5b60405162461bcd60e51b8152602060048201526013602482015272092dcecc2d8d2c840c6dedadad2e840d0c2e6d606b1b6044820152606490fd5b34610292575f366003190112610292576020602254604051908152f35b34610292575f36600319011261029257471561157957601554606481029080820460641490151715610611576111e9904790611e9b565b60125480156115715760018060a01b037f0000000000000000000000000000000000000000000000000000000000000000165f525f60205260405f2054906064820291808304606414901517156106115761124391611e9b565b905b601554801561156957602554906064820291808304606414901517156106115761126e91611e9b565b905b611278612b0b565b6112a27f000000000000000000000000000000000000000000000000000000000000000042611ecf565b60ff602054169460405194610100860186811060018060401b03821117611555576040528486526020860191825260408601908152606086019384526080860192835260e060a0870196604b885260c08101981515895201945f86525f90600581105f1461152557506019810180911161061157915b5160328111156114d25750906014810180911161061157905b516101f48111156114b45750600f810180911161061157915b51603281111561147e575090600f810180911161061157905b516103e881101561145f5750600a810180911161061157925b511561144d575b511561143b575b5160328110156114135750600f8101809111610611575b606481111561140e575060645b604b81106113e7576003905b6040519060048310156113d35760409282526020820152f35b634e487b7160e01b5f52602160045260245ffd5b603281106113f7576002906113ba565b60198110611407576001906113ba565b5f906113ba565b6113ae565b605011156113a15760058101809111156113a157634e487b7160e01b5f52601160045260245ffd5b9060078101809111610611579061138a565b91600881018091116106115791611383565b61138890949194101561137c579260058101809111610611579261137c565b601e81111561149a575090600a81018091116106115790611363565b601410156113635790600581018091116106115790611363565b600190939193101561134a5791600a8101809111610611579161134a565b601e8111156114ef575090600f810180911161061157905b611331565b601481111561150b575090600a81018091116106115790611331565b600a10156114ea5790600581018091116106115790611331565b600a8110156115405750600f81018091116106115791611318565b60149093919310156113185760059250611318565b634e487b7160e01b5f52604160045260245ffd5b505f90611270565b505f90611245565b5f6111e9565b6020366003190112610292576115ae60043561159961254b565b6115a6610bf1823361256b565b3490336126f5565b335f52601e6020524360405f2055601460295410155f14610de0575f5b601381106115df5750610d75610d6e611d07565b600181019081811161061157611600610dca83610dc5610daf600196611cd7565b016115cb565b34610292575f366003190112610292577f00000000000000000000000000000000000000000000000000000000000000006001600160a01b031661164b338214611e06565b6021548015611692575f6021555f808080848682f115610df75760207fb0941a79b0a1d2dc32262e01138093b93ba4e92878c9b282875850dec054f00991604051908152a2005b60405162461bcd60e51b81526020600482015260076024820152664e6f206665657360c81b6044820152606490fd5b34610292575f366003190112610292576020601f54604051908152f35b34610292575f366003190112610292576020601254604051908152f35b34610292575f36600319011261029257602060405160128152f35b34610292576020366003190112610292576020611741601354611737611db5565b90600435906124ed565b604051908152f35b34610292575f366003190112610292576020601554604051908152f35b34610292576020366003190112610292576004356117ae337f00000000000000000000000000000000000000000000000000000000000000006001600160a01b031614611e06565b60205460ff81166118305762093a8082106117fe578160016020927f0b177c6d9c2aafdc1522f87e503e6d37d8a4692c1cf8c2530c187b0033bcfc9494601f5560ff1916178255604051908152a1005b60405162461bcd60e51b815260206004820152600a6024820152694d696e2037206461797360b01b6044820152606490fd5b60405162461bcd60e51b815260206004820152600e60248201526d105b1c9958591e481b1bd8dad95960921b6044820152606490fd5b346102925760603660031901126102925761187f611c3a565b611887611c50565b6001600160a01b0382165f818152600160209081526040808320338452909152902054909260443592915f1981106118c5575b5061083d9350612430565b83811061192a5784156119175733156119045761083d945f52600160205260405f2060018060a01b0333165f526020528360405f2091039055846118ba565b634a1406b160e11b5f525f60045260245ffd5b63e602df0560e01b5f525f60045260245ffd5b8390637dc7a0d960e11b5f523360045260245260445260645ffd5b34610292575f366003190112610292576020602454604051908152f35b34610292575f366003190112610292576020600254604051908152f35b346102925760203660031901126102925760206117416013546119a0611db5565b9060043590611fe8565b34610292575f3660031901126102925760206040517f00000000000000000000000000000000000000000000000000000000000000008152f35b34610292575f3660031901126102925760c06012546013546014546015546024549160215493604051958652602086015260408501526060840152608083015260a0820152f35b3461029257604036600319011261029257611a44611c3a565b602435903315611917576001600160a01b031690811561190457335f52600160205260405f20825f526020528060405f20556040519081527f8c5be1e5ebec7d5bd14f71427d1e84f3dd0314c0f7b2291e5b200ac8c7c3b92560203392a3602060405160018152f35b34610292575f3660031901126102925760e060ff600b5416600c54600d54600e54600f54906010549260115494611ae76040518098611c2d565b602087015260408601526060850152608084015260a083015260c0820152f35b34610292575f366003190112610292576040515f6003548060011c90600181168015611bb8575b6020831081146107f9578285529081156107d55750600114611b5a576102fb8361076b81850382611c9c565b60035f9081527fc2575a0e9e593c00f959f8c92f12db2869c3395a3b0502d05e2516446f71f85b939250905b808210611b9e5750909150810160200161076b61075b565b919260018160209254838588010152019101909291611b86565b91607f1691611b2e565b34610292575f366003190112610292577f00000000000000000000000000000000000000000000000000000000000000006001600160a01b03168152602090f35b602060409281835280519182918282860152018484015e5f828201840152601f01601f1916010190565b9060058210156113d35752565b600435906001600160a01b038216820361029257565b602435906001600160a01b038216820361029257565b60a081019081106001600160401b0382111761155557604052565b60e081019081106001600160401b0382111761155557604052565b601f909101601f19168101906001600160401b0382119082101761155557604052565b602754811015610ac25760275f5260205f2001905f90565b602954811015610ac25760295f5260205f2001905f90565b602a54811015610ac257602a5f5260205f2001905f90565b60295460131015610ac25760295f9081527fcb7c14ce178f56e2e8d86ab33ebc0ae081ba8556a00cd122038841867181cabf91565b602a5460131015610ac257602a5f9081527fbeced09521047d05b8960b7e7bcc1d1292cf3e4b2a6b63f48335cbde5f7545e591565b8054821015610ac2575f5260205f2001905f90565b6001600160a01b03165f90815260236020526040902090565b6040919493926060820195825260208201520152565b60405190611dc282611c81565b8160ff600b541660058110156113d3578152600c546020820152600d546040820152600e546060820152600f54608082015260105460a082015260c0601154910152565b15611e0d57565b60405162461bcd60e51b815260206004820152600c60248201526b27b7363c9031b932b0ba37b960a11b6044820152606490fd5b15611e4857565b60405162461bcd60e51b8152602060048201526018602482015277135155881c1c9bdd1958dd1a5bdb881d1c9a59d9d95c995960421b6044820152606490fd5b8181029291811591840414171561061157565b8115611ea5570490565b634e487b7160e01b5f52601260045260245ffd5b670de0b6b3a763ffff1981019190821161061157565b9190820391821161061157565b15611ee357565b60405162461bcd60e51b815260206004820152600e60248201526d125b9d985b1a5908185b5bdd5b9d60921b6044820152606490fd5b9067099e8db03256ce5d820180921161061157565b9190820180921161061157565b919082549060031b91821b915f19901b1916179055565b60295490600160401b82101561155557610dbf826001611f7794016029556029611d71565b565b602a5490600160401b82101561155557610dbf826001611f779401602a55602a611d71565b60275490600160401b82101561155557610dbf826001611f7794016027556027611d71565b60285490600160401b82101561155557610dbf826001611f7794016028556028611d71565b905f676765c793fa10079d601b1b6120008385611f2e565b116123f657835160058110156113d3576120a6575061201f9082611f2e565b808060208501948486519061203391611e88565b90606001948086519061204591611e88565b9061204f91611e88565b671bc16d674ec80000900461206391611f2e565b94519061206f91611e88565b92519061207b91611e88565b9061208591611e88565b671bc16d674ec80000900461209991611f2e565b906120a391611ecf565b90565b8392935160058110156113d35760010361218d57506120c59083611f2e565b90670de0b6b3a76400006120d98484611ecf565b0491600183018093116106115783908315612184575b926121006121059282949695611ecf565b611e9b565b5f935f935b83851061211957505050505090565b9091929394612179600191670de0b6b3a76400006121728761216b612147612141838e611e88565b89611f2e565b6121658a61215f816121598786611f2e565b946131ee565b926131ee565b90611f2e565b861c611e88565b0490611f2e565b95019392919061210a565b600193506120ef565b82519060058210156113d357849160020361223257509192806121b5600a936121ba93611f2e565b611ecf565b04905f925f92671bc16d674ec80000915b600a85106121db57505050505090565b909192939461222760019161216586612100876122226122046121fe838f611e88565b8d611f2e565b6121658a61221c816122168786611f2e565b946131a3565b926131a3565b611e88565b9501939291906121cb565b9050825160058110156113d357600303612320575061225390839293611f2e565b91612279600a6122638486611ecf565b04936121658361227381876130cb565b926130cb565b916001915b600a83106122a0575050506729a2241af62c00009161229c91611e88565b0490565b9091926122b66122b08686611e88565b84611f2e565b82600186166122f1576122c8916130cb565b6001600160ff1b0381168103610611576001916122e791831b90611f2e565b935b01919061227e565b6122fa916130cb565b6001600160fe1b03811681036106115760019161231a9160021b90611f2e565b936122e9565b9290825160058110156113d35760041461233b575b50505090565b8161234892939450611f2e565b80808060208601958587519061235d91611e88565b9060600195808088519061237091611e88565b9061237a91611e88565b9061238491611e88565b6a241c76b735b154119e2dd360241b900461239e91611f2e565b9551906123aa91611e88565b9351906123b691611e88565b906123c091611e88565b906123ca91611e88565b6a241c76b735b154119e2dd360241b90046123e491611f2e565b906123ee91611ecf565b5f8080612335565b60405162461bcd60e51b815260206004820152601260248201527145786365656473206d617820737570706c7960701b6044820152606490fd5b6001600160a01b03169081156124da576001600160a01b03169182156124c757815f525f60205260405f20548181106124ae57817fddf252ad1be2c89b69c2b068fc378daa952ba7f163c4a11628f55a4df523b3ef92602092855f525f84520360405f2055845f525f825260405f20818154019055604051908152a3565b8263391434e360e21b5f5260045260245260445260645ffd5b63ec442f0560e01b5f525f60045260245ffd5b634b637e8f60e11b5f525f60045260245ffd5b919080831061250857612503816120a394611ecf565b611fe8565b60405162461bcd60e51b815260206004820152601b60248201527a125b9cdd59999a58da595b9d081cdd5c1c1b1e481d1bc81cd95b1b602a1b6044820152606490fd5b60026005541461255c576002600555565b633ee5aeb560e01b5f5260045ffd5b6125d660018060a01b03821692835f52601c60205260405f20906040519161259283611c81565b6016548352601754602084015260185460408401526019546060840152601a54608084015260ff601b54818116151560a086015260081c16151560c0840152612f38565b6126aa576125ee906125e6612fbd565b903a9061307b565b61266f57805f52601e60205260405f205415158061264e575b6126115750600190565b5f5160206134b55f395f51905f52608060405160408152600b60408201526a426c6f636b2064656c617960a81b6060820152426020820152a25f90565b50805f52601e60205261266860405f2054601a5490611f2e565b4310612607565b5f5160206134b55f395f51905f526080604051604081526009604082015268233937b73a16b93ab760b91b6060820152426020820152a25f90565b505f5160206134b55f395f51905f52608060405160408152600a60408201526914985d19481b1a5b5a5d60b21b6060820152426020820152a25f90565b5f1981146106115760010190565b91612701821515611edc565b305f525f6020528160405f205410612ad25760135490612729612722611db5565b8484611fe8565b91828210612a9a5747670de0b6b3a764000061274760145484611e88565b6040519190049190608081016001600160401b03811182821017611555576040525f8152602081015f815260408201935f855260608301935f855280151580612a91575b15612a5957670de0b6b3a76400008202828104670de0b6b3a7640000148315171561061157816127ba91611e9b565b84526103e58902908982046103e5148a151715610611576128008a6127fa6103e861280695046127f46127ed8883611e88565b9186611f2e565b90611e9b565b92611f2e565b92611ecf565b90670de0b6b3a7640000820291808304670de0b6b3a764000014901517156106115761283191611e9b565b90819052815190818110612a29575050505f82525b8151906103e882118091526129a4575b50506128a190670de0b6b3a7640000610c846128828761271061287b6022548a611e88565b0494611f2e565b80601355612897612891611db5565b82612bc8565b9081601455611e88565b60215561290d8360018060a01b03861695865f52602360205260405f205415612991575b865f52602360205260405f206128dc838254611f2e565b90556128e785612d4f565b6064602754101561297c575b6128fe601454611f9e565b61290742611fc3565b30612430565b818111612950575b507f2b0c4dfbf2e34a2292e9110d6ea90d7c78f54b3aebe3974d2db7197308f21ff89161294b6014549260405193849384611d9f565b0390a2565b5f808061295e858295611ecf565b87828215612973575bf115610df7575f612915565b506108fc612967565b612984612d80565b61298c612e0f565b6128f3565b61299c6024546126e7565b6024556128c5565b604080519182524260208301526001600160a01b038816917f94ffa3339175859cb73b44846007324e5d9f5a499b5543177f5cd50de75742f79190a251601754106129f0575f80612856565b60405162461bcd60e51b81526020600482015260116024820152700a0e4d2c6ca40d2dae0c2c6e840d0d2ced607b1b6044820152606490fd5b612a3291611ecf565b612710810290808204612710149015171561061157612a52915190611e9b565b8252612846565b60405162461bcd60e51b815260206004820152601060248201526f496e76616c696420726573657276657360801b6044820152606490fd5b5081151561278b565b60405162461bcd60e51b815260206004820152601060248201526f092dce6eaccccd2c6d2cadce8408aa8960831b6044820152606490fd5b60405162461bcd60e51b81526020600482015260116024820152704e6f7420656e6f75676820746f6b656e7360781b6044820152606490fd5b60275460028110612bc3575f905f1990825b818110612b595750508115612b5357612b369082611ecf565b90606482029180830460641490151715610611576120a391611e9b565b50505f90565b83612b6382611cbf565b90549060031b1c11612bab575b82612b7a82611cbf565b90549060031b1c10612b8f575b600101612b1d565b91506001612b9c83611cbf565b90549060031b1c929050612b87565b9250612bb683611cbf565b90549060031b1c92612b70565b505f90565b90676765c793fa10079d601b1b8211612d1157805160058110156113d357612c4557670de0b6b3a7640000612172612c099360606020850151940151611e88565b64e8d4a510008110612c39575b69152d02c7e14af68000008111612c2a5790565b5069152d02c7e14af680000090565b5064e8d4a51000612c16565b805160058110156113d357600103612c6557612c60916131ee565b612c09565b805160058110156113d357600203612c8057612c60916131a3565b805160058110156113d357600303612c9b57612c60916130cb565b805160058110156113d357600403612cd757670de0b6b3a764000061217281612cc785612c6096611e88565b0460606020850151940151611e88565b60405162461bcd60e51b8152602060048201526012602482015271496e76616c6964206375727665207479706560701b6044820152606490fd5b60405162461bcd60e51b8152602060048201526016602482015275537570706c792065786365656473206d6178696d756d60501b6044820152606490fd5b60265462015180810180911161061157421115612d6f5760255542602655565b612d7b90602554611f2e565b602555565b5f5b6027545f19810190811161061157811015612dcb57600181019081811161061157612dc5612db36001936027611d71565b90549060031b1c610dbf836027611d71565b01612d82565b506027548015612dfb575f1901612df6612de6826027611d71565b8154905f199060031b1b19169055565b602755565b634e487b7160e01b5f52603160045260245ffd5b5f5b6028545f19810190811161061157811015612e5a57600181019081811161061157612e54612e426001936028611d71565b90549060031b1c610dbf836028611d71565b01612e11565b506028548015612dfb575f1901612e75612de6826028611d71565b602855565b92909160405192602084019460018060601b03199060601b1685526034840152605483015260018060601b03199060601b16607482015246608882015260888152612ec660a882611c9c565b51902090565b9390928451158015612f2b575b612f2257602085015160188101809111610611574210612f2257612efd9284612e7a565b8251149182612f0b57505090565b604001516001600160a01b03918216911614919050565b50505050505f90565b5060608501511515612ed9565b909160018201612f4e8154604084015190611f2e565b421015612fab575b508154906060612f668584611f2e565b910151108015612f9c575b612f9457600292612f8191611f2e565b815501612f8e81546126e7565b90555f90565b505050600190565b50600a60028301541015612f71565b5f83555f60028401554290555f612f56565b6029548015613076575f905f905f5b81811061301c575050801561301657612fe491611e9b565b60468102908082046046149015171561061157601e3a02903a8204601e143a1517156106115760649161229c91611f2e565b50503a90565b61012c61303861302b83611cef565b90549060031b1c42611ecf565b1115613047575b600101612fcc565b919261306e61306860019261305b86611cd7565b90549060031b1c90611f2e565b946126e7565b92905061303f565b503a90565b916096810290808204609614901517156106115760649004106130b557612710600a9160018060a01b031606106130b0575f90565b600190565b50600190565b600160ff1b8114610611575f0390565b6080820151905f8282039212818312811691831390151617610611576130f460608301516130bb565b808202915f8212600160ff1b82141661061157818305149015171561061157670de0b6b3a764000090055f81126131775761312e90613215565b670de0b6b3a7640000019081670de0b6b3a764000011610611576040015190670de0b6b3a7640000820291808304670de0b6b3a76400001490151715610611576120a391611e9b565b613183613188916130bb565b613215565b8015611ea5576a0c097ce7bc90715b34b9f160241b0461312e565b9081156131e55760606020820151910151670de0b6b3a7640000830180931161061157612172670de0b6b3a7640000916131df6120a3956132e6565b90611e88565b60209150015190565b670de0b6b3a7640000916131df60208461320f61229c956060860151611e88565b04920151915b801561329b576802b5e3af16b1880000811161329557670de0b6b3a7640000908060015b60148111156132485750505090565b9091926132748361326e670de0b6b3a7640000936121656132688761340a565b89611e9b565b95611e88565b04906103e8821061329057613288906126e7565b919091613239565b612335565b505f1990565b50670de0b6b3a764000090565b156132af57565b60405162461bcd60e51b815260206004820152600f60248201526e1b1b8a0c0a481d5b9919599a5b9959608a1b6044820152606490fd5b6132f18115156132a8565b670de0b6b3a764000081106133e5575f90671bc16d674ec800005b808210156133ca575061331e90611eb9565b80915f9160015b600f81111561333b575b50506120a39250611f2e565b8461334882849694611e9b565b809360016133568560011690565b0361339b5760649261336e6133829361337493611f2e565b97611e88565b670de0b6b3a7640000900490565b921061339657613391906126e7565b613325565b61332f565b905083808211156133b95760649261336e6133749261338294611ecf565b50506133826133746064925f61336e565b90916133d86133df91611f19565b9260011c90565b9061330c565b61340690613401906a0c097ce7bc90715b34b9f160241b611e9b565b6132e6565b1990565b60018111156130b557600a811115613431578062375f00029062375f008204036106115790565b6040519061016082016001600160401b03811183821017611555576040526001825260016020830152600260408301526006606083015260186080830152607860a08301526102d060c08301526113b060e0830152619d806101008301526205898061012083015262375f00610140830152600b811015610ac25760051b01519056fe2bfdc3ed7c2502b5d6fdf16383f2cf58fccba866de92bb654c18b053ab675a0ea2646970667358221220194316f228f9c0c6823e1d9e2d4958915cf1482a9b404774636b618a68a1ab9764736f6c634300081c0033c12630d761ddbf18b9530f31d91e67493535a2b635711bcff59fded8bf381cce8be0079c531659141344cd1fd0a4f28419497f9722a3daafe3b4186f6b6457e0a2646970667358221220f176be23588f01874cedbe04553a938ecaafc4d9e88147bfd907a0a9f01af5da64736f6c634300081c0033","linkReferences":{},"deployedLinkReferences":{},"immutableReferences":{"14083":[{"length":32,"start":681},{"length":32,"start":1169}]},"inputSourceName":"project/contracts/TokenFactory.sol","buildInfoId":"solc-0_8_28-7079be9912eddb04e01c38da66a2cee036e8873d"}