{"_format":"hh3-artifact-1","contractName":"TradingEngine","sourceName":"contracts/TradingEngine.sol","abi":[{"inputs":[{"internalType":"address payable","name":"_whaleToken","type":"address"},{"internalType":"address payable","name":"_tokenFactory","type":"address"}],"stateMutability":"nonpayable","type":"constructor"},{"inputs":[{"internalType":"address","name":"owner","type":"address"}],"name":"OwnableInvalidOwner","type":"error"},{"inputs":[{"internalType":"address","name":"account","type":"address"}],"name":"OwnableUnauthorizedAccount","type":"error"},{"inputs":[],"name":"ReentrancyGuardReentrantCall","type":"error"},{"anonymous":false,"inputs":[{"indexed":false,"internalType":"string","name":"feeType","type":"string"},{"indexed":false,"internalType":"uint256","name":"oldFee","type":"uint256"},{"indexed":false,"internalType":"uint256","name":"newFee","type":"uint256"}],"name":"FeeUpdated","type":"event"},{"anonymous":false,"inputs":[{"indexed":true,"internalType":"address","name":"provider","type":"address"},{"indexed":true,"internalType":"bytes32","name":"pairId","type":"bytes32"},{"indexed":false,"internalType":"uint256","name":"amountA","type":"uint256"},{"indexed":false,"internalType":"uint256","name":"amountB","type":"uint256"},{"indexed":false,"internalType":"uint256","name":"liquidity","type":"uint256"}],"name":"LiquidityAdded","type":"event"},{"anonymous":false,"inputs":[{"indexed":true,"internalType":"address","name":"provider","type":"address"},{"indexed":true,"internalType":"bytes32","name":"pairId","type":"bytes32"},{"indexed":false,"internalType":"uint256","name":"amountA","type":"uint256"},{"indexed":false,"internalType":"uint256","name":"amountB","type":"uint256"},{"indexed":false,"internalType":"uint256","name":"liquidity","type":"uint256"}],"name":"LiquidityRemoved","type":"event"},{"anonymous":false,"inputs":[{"indexed":true,"internalType":"address","name":"previousOwner","type":"address"},{"indexed":true,"internalType":"address","name":"newOwner","type":"address"}],"name":"OwnershipTransferred","type":"event"},{"anonymous":false,"inputs":[{"indexed":true,"internalType":"address","name":"trader","type":"address"},{"indexed":true,"internalType":"address","name":"tokenIn","type":"address"},{"indexed":true,"internalType":"address","name":"tokenOut","type":"address"},{"indexed":false,"internalType":"uint256","name":"amountIn","type":"uint256"},{"indexed":false,"internalType":"uint256","name":"amountOut","type":"uint256"},{"indexed":false,"internalType":"uint256","name":"fee","type":"uint256"},{"indexed":false,"internalType":"uint256","name":"timestamp","type":"uint256"}],"name":"Trade","type":"event"},{"inputs":[{"internalType":"bytes32","name":"pairId","type":"bytes32"},{"internalType":"uint256","name":"amountADesired","type":"uint256"},{"internalType":"uint256","name":"amountBDesired","type":"uint256"},{"internalType":"uint256","name":"amountAMin","type":"uint256"},{"internalType":"uint256","name":"amountBMin","type":"uint256"}],"name":"addLiquidity","outputs":[{"internalType":"uint256","name":"liquidity","type":"uint256"}],"stateMutability":"nonpayable","type":"function"},{"inputs":[{"internalType":"uint256","name":"","type":"uint256"}],"name":"allPairs","outputs":[{"internalType":"bytes32","name":"","type":"bytes32"}],"stateMutability":"view","type":"function"},{"inputs":[{"internalType":"address","name":"token","type":"address"}],"name":"calculateDynamicFee","outputs":[{"internalType":"uint256","name":"","type":"uint256"}],"stateMutability":"view","type":"function"},{"inputs":[{"internalType":"address","name":"tokenA","type":"address"},{"internalType":"address","name":"tokenB","type":"address"}],"name":"createPair","outputs":[{"internalType":"bytes32","name":"","type":"bytes32"}],"stateMutability":"nonpayable","type":"function"},{"inputs":[{"internalType":"address","name":"","type":"address"}],"name":"creatorEarnings","outputs":[{"internalType":"uint256","name":"","type":"uint256"}],"stateMutability":"view","type":"function"},{"inputs":[],"name":"distributeStakingRewards","outputs":[],"stateMutability":"nonpayable","type":"function"},{"inputs":[],"name":"fees","outputs":[{"internalType":"uint256","name":"baseFee","type":"uint256"},{"internalType":"uint256","name":"maxFee","type":"uint256"},{"internalType":"uint256","name":"creatorShare","type":"uint256"},{"internalType":"uint256","name":"platformShare","type":"uint256"},{"internalType":"uint256","name":"stakingShare","type":"uint256"}],"stateMutability":"view","type":"function"},{"inputs":[{"internalType":"bytes32","name":"pairId","type":"bytes32"}],"name":"getPairInfo","outputs":[{"internalType":"address","name":"tokenA","type":"address"},{"internalType":"address","name":"tokenB","type":"address"},{"internalType":"uint256","name":"reserveA","type":"uint256"},{"internalType":"uint256","name":"reserveB","type":"uint256"},{"internalType":"uint256","name":"totalSupply","type":"uint256"},{"internalType":"bool","name":"isActive","type":"bool"}],"stateMutability":"view","type":"function"},{"inputs":[{"internalType":"address","name":"token","type":"address"}],"name":"getTokenStats","outputs":[{"internalType":"uint256","name":"totalVolume","type":"uint256"},{"internalType":"uint256","name":"dailyVolume","type":"uint256"},{"internalType":"uint256","name":"priceChange24h","type":"uint256"},{"internalType":"uint256","name":"allTimeHigh","type":"uint256"},{"internalType":"uint256","name":"allTimeLow","type":"uint256"},{"internalType":"uint256","name":"lastPrice","type":"uint256"}],"stateMutability":"view","type":"function"},{"inputs":[{"internalType":"address","name":"","type":"address"}],"name":"lastVolumeReset","outputs":[{"internalType":"uint256","name":"","type":"uint256"}],"stateMutability":"view","type":"function"},{"inputs":[{"internalType":"bytes32","name":"","type":"bytes32"},{"internalType":"address","name":"","type":"address"}],"name":"liquidityBalances","outputs":[{"internalType":"uint256","name":"","type":"uint256"}],"stateMutability":"view","type":"function"},{"inputs":[],"name":"owner","outputs":[{"internalType":"address","name":"","type":"address"}],"stateMutability":"view","type":"function"},{"inputs":[],"name":"platformRevenue","outputs":[{"internalType":"uint256","name":"","type":"uint256"}],"stateMutability":"view","type":"function"},{"inputs":[{"internalType":"bytes32","name":"pairId","type":"bytes32"},{"internalType":"uint256","name":"liquidity","type":"uint256"},{"internalType":"uint256","name":"amountAMin","type":"uint256"},{"internalType":"uint256","name":"amountBMin","type":"uint256"}],"name":"removeLiquidity","outputs":[{"internalType":"uint256","name":"amountA","type":"uint256"},{"internalType":"uint256","name":"amountB","type":"uint256"}],"stateMutability":"nonpayable","type":"function"},{"inputs":[],"name":"renounceOwnership","outputs":[],"stateMutability":"nonpayable","type":"function"},{"inputs":[],"name":"stakingRewards","outputs":[{"internalType":"uint256","name":"","type":"uint256"}],"stateMutability":"view","type":"function"},{"inputs":[],"name":"tokenFactory","outputs":[{"internalType":"contract TokenFactory","name":"","type":"address"}],"stateMutability":"view","type":"function"},{"inputs":[{"internalType":"address","name":"","type":"address"}],"name":"tokenHolderCount","outputs":[{"internalType":"uint256","name":"","type":"uint256"}],"stateMutability":"view","type":"function"},{"inputs":[{"internalType":"address","name":"","type":"address"}],"name":"tokenStats","outputs":[{"internalType":"uint256","name":"totalVolume","type":"uint256"},{"internalType":"uint256","name":"dailyVolume","type":"uint256"},{"internalType":"uint256","name":"priceChange24h","type":"uint256"},{"internalType":"uint256","name":"allTimeHigh","type":"uint256"},{"internalType":"uint256","name":"allTimeLow","type":"uint256"},{"internalType":"uint256","name":"lastPrice","type":"uint256"},{"internalType":"uint256","name":"marketCap","type":"uint256"}],"stateMutability":"view","type":"function"},{"inputs":[{"internalType":"address","name":"","type":"address"}],"name":"tokenVolume24h","outputs":[{"internalType":"uint256","name":"","type":"uint256"}],"stateMutability":"view","type":"function"},{"inputs":[{"internalType":"address","name":"","type":"address"}],"name":"totalFeesGenerated","outputs":[{"internalType":"uint256","name":"","type":"uint256"}],"stateMutability":"view","type":"function"},{"inputs":[{"internalType":"bytes32","name":"pairId","type":"bytes32"},{"internalType":"address","name":"tokenIn","type":"address"},{"internalType":"uint256","name":"amountIn","type":"uint256"},{"internalType":"uint256","name":"amountOutMin","type":"uint256"}],"name":"trade","outputs":[{"internalType":"uint256","name":"amountOut","type":"uint256"}],"stateMutability":"nonpayable","type":"function"},{"inputs":[{"internalType":"bytes32","name":"","type":"bytes32"}],"name":"tradingPairs","outputs":[{"internalType":"address","name":"tokenA","type":"address"},{"internalType":"address","name":"tokenB","type":"address"},{"internalType":"uint256","name":"reserveA","type":"uint256"},{"internalType":"uint256","name":"reserveB","type":"uint256"},{"internalType":"uint256","name":"totalSupply","type":"uint256"},{"internalType":"uint256","name":"lastTradeTime","type":"uint256"},{"internalType":"bool","name":"isActive","type":"bool"}],"stateMutability":"view","type":"function"},{"inputs":[{"internalType":"address","name":"newOwner","type":"address"}],"name":"transferOwnership","outputs":[],"stateMutability":"nonpayable","type":"function"},{"inputs":[{"internalType":"uint256","name":"_baseFee","type":"uint256"},{"internalType":"uint256","name":"_maxFee","type":"uint256"},{"internalType":"uint256","name":"_creatorShare","type":"uint256"},{"internalType":"uint256","name":"_platformShare","type":"uint256"},{"internalType":"uint256","name":"_stakingShare","type":"uint256"}],"name":"updateFees","outputs":[],"stateMutability":"nonpayable","type":"function"},{"inputs":[],"name":"whaleToken","outputs":[{"internalType":"contract WhaleToken","name":"","type":"address"}],"stateMutability":"view","type":"function"},{"inputs":[],"name":"withdrawPlatformRevenue","outputs":[],"stateMutability":"nonpayable","type":"function"},{"stateMutability":"payable","type":"receive"}],"bytecode":"0x60806040523461016057604051601f611c1538819003918201601f19168301916001600160401b0383118484101761013957808492604094855283398101031261016057610058602061005183610164565b9201610164565b9060015f55331561014d5760018054336001600160a01b0319821681179092556001600160a01b03167f8be0079c531659141344cd1fd0a4f28419497f9722a3daafe3b4186f6b6457e05f80a3600280546001600160a01b039283166001600160a01b0319918216179091556003805493909216921691909117905560405160a081018181106001600160401b0382111761013957600a9160809160405260058152605f6020820152604660408201526014606082015201526005600755605f60085560466009556014600a55600a600b55604051611a9c90816101798239f35b634e487b7160e01b5f52604160045260245ffd5b631e4fbdf760e01b5f525f60045260245ffd5b5f80fd5b51906001600160a01b03821682036101605756fe6080604052600436101561001a575b3615610018575f80fd5b005b5f5f3560e01c80631e3dd18b1461160057806323ca0eb01461158c57806324048ba11461156e57806326d78678146114f7578063457ffca21461141d5780634fb5bf7f146113d857806364b87a70146113ba578063715018a6146113705780637aab6444146110cb5780637cd71c481461109f57806383e5529e146110665780638906af48146110115780638da5cb5b14610fe85780639af1d35a14610fa85780639c4c274814610be0578063c9c6539614610975578063ca88d5c514610904578063ce79589b146103f8578063cedadb3d146103bf578063e1203ecc14610386578063e77772fe1461035d578063ece80528146102e2578063f07468be146102a9578063f1d1574414610280578063f1e9899e146101ff578063f2fde38b146101895763fa3c30a81461014e575061000e565b34610186576020366003190112610186576020906040906001600160a01b0361017561167a565b168152600f83522054604051908152f35b80fd5b5034610186576020366003190112610186576101a361167a565b6101ab6118cb565b6001600160a01b031680156101eb57600180546001600160a01b0319811683179091556001600160a01b03165f516020611a475f395f51905f528380a380f35b631e4fbdf760e01b82526004829052602482fd5b503461018657602036600319011261018657604060e091600435815260046020522060018060a01b038154169060018060a01b03600182015416906002810154600382015460048301549160ff600660058601549501541694604051968752602087015260408601526060850152608084015260a0830152151560c0820152f35b50346101865780600319360112610186576002546040516001600160a01b039091168152602090f35b5034610186576020366003190112610186576020906040906001600160a01b036102d161167a565b168152601083522054604051908152f35b50346101865760203660031901126101865760e0906040906001600160a01b0361030a61167a565b168152601360205220805490600181015490600281015460038201546004830154916006600585015494015494604051968752602087015260408601526060850152608084015260a083015260c0820152f35b50346101865780600319360112610186576003546040516001600160a01b039091168152602090f35b5034610186576020366003190112610186576020906040906001600160a01b036103ae61167a565b168152600d83522054604051908152f35b5034610186576020366003190112610186576020906040906001600160a01b036103e761167a565b168152600c83522054604051908152f35b503461018657608036600319011261018657610412611664565b60443561041d6118f2565b60043583526004602052604083209061043c60ff6006840154166116e8565b81546001600160a01b0384811691168114939091908480156108ee575b156108b95781156108745761046d816117ad565b8515610863576002850154956003860154965b8261271003612710811161084f57906104b36127106104a26104b99489611726565b046104ad8b82611726565b926116c7565b90611739565b96606435881061080d578710156107cf576127109161050091156107a857600287016104e68682546116c7565b9055600387016104f7898254611757565b90555b84611726565b04906024602060018060a01b03600354166040519283809263f27f801160e01b82528960048301525afa90811561070157879185918a91610758575b509261059d6105be946105928c60646105576009548b611726565b046064610566600a548c611726565b04916064610576600b548d611726565b04946001600160a01b031680610737575b5050506011546116c7565b6011556012546116c7565b601255868a52601060205260408a206105b78682546116c7565b9055611910565b83546001600160a01b0316828685830361072e5760018701546105ea93506001600160a01b0316611910565b83546001600160a01b0316838103610729575060018401546001600160a01b03165b6040516323b872dd60e01b81526020818061062c873033600485016118a9565b03818b895af180156107015761070c575b5060405163a9059cbb60e01b81526001600160a01b039190911694906020818061066b8a336004840161177c565b03818b8a5af18015610701579188959391600197959360209a506106d6575b50600542910155604051918252868883015260408201524260608201527ffcd787469e8a6f203bfd16a0cb03516726a80f30d3adb2d93af6739e007b54b260803392a455604051908152f35b6106f5908a3d8c116106fa575b6106ed8183611690565b810190611764565b61068a565b503d6106e3565b6040513d8a823e3d90fd5b6107249060203d6020116106fa576106ed8183611690565b61063d565b61060c565b6105ea92611910565b8160409161074e9352600f602052209182546116c7565b90555f8e81610587565b925050506020813d6020116107a0575b8161077560209383611690565b8101031261079c5751906001600160a01b038216820361079c57908690849061059d61053c565b8780fd5b3d9150610768565b600387016107b78682546116c7565b9055600287016107c8898254611757565b90556104fa565b60405162461bcd60e51b8152602060048201526016602482015275496e73756666696369656e74206c697175696469747960501b6044820152606490fd5b60405162461bcd60e51b815260206004820152601a602482015279125b9cdd59999a58da595b9d081bdd5d1c1d5d08185b5bdd5b9d60321b6044820152606490fd5b634e487b7160e01b8a52601160045260248afd5b600385015495600286015496610480565b60405162461bcd60e51b815260206004820152601d60248201527f416d6f756e74206d7573742062652067726561746572207468616e20300000006044820152606490fd5b60405162461bcd60e51b815260206004820152600d60248201526c24b73b30b634b2103a37b5b2b760991b6044820152606490fd5b5060018401546001600160a01b03168314610459565b50346101865760203660031901126101865760c0906040906001600160a01b0361092c61167a565b16815260136020522080549060018101549060028101546003820154906005600484015493015493604051958652602086015260408501526060840152608083015260a0820152f35b50346101865760403660031901126101865761098f61167a565b610997611664565b6001600160a01b038083169290821691838314610ba85783151580610b9f575b15610b6b576040516001600160601b0319606093841b8116602083019081529290931b909216603483015260288252906109f2604882611690565b51902091828452600460205260ff600660408620015416610b30576040519060e082016001600160401b03811183821017610b1c576040908152908252602080830193845282820186815260608401878152608085018881524260a08701908152600160c088018181528a8c52600496879052968b20975188546001600160a01b039182166001600160a01b0319918216178a55995191890180549290911691909916179097559151600286015551600385015551908301559151600582015590516006918201805460ff191691151560ff169190911790555491600160401b831015610b085750610aec82600160209401600655611638565b81549060031b9083821b915f19901b1916179055604051908152f35b634e487b7160e01b81526041600452602490fd5b634e487b7160e01b86526041600452602486fd5b60405162461bcd60e51b81526020600482015260136024820152725061697220616c72656164792065786973747360681b6044820152606490fd5b60405162461bcd60e51b815260206004820152600c60248201526b5a65726f206164647265737360a01b6044820152606490fd5b508215156109b7565b60405162461bcd60e51b815260206004820152601060248201526f4964656e746963616c20746f6b656e7360801b6044820152606490fd5b50346101865760a0366003190112610186576004359060243560443591610c056118f2565b83815260046020526040812093610c2260ff6006870154166116e8565b60028501928354801580610f9c575b15610eca57505b85546040516323b872dd60e01b81529060209082906001600160a01b0316818781610c68883033600485016118a9565b03925af18015610ea257610ead575b5060018601546040516323b872dd60e01b81529060209082906001600160a01b0316818781610cab8c3033600485016118a9565b03925af18015610ea257610e85575b506004860195865480155f14610e4157610cd48784611726565b856003821115610e335750808060011c60018101809111610e1f57905b828210610e005750505b6103e7198101908111610dec57965b8715610da757602098610d6089809460037fdfdd9dbcc558b79525f53ba7faeaa725e94f45e8795c3152c0e8353bb73025b7978c610d4b8b60019f546116c7565b905501610d598682546116c7565b90556116c7565b90558486526005895260408620878060a01b0333165f52895260405f20610d888382546116c7565b9055610d9b604051928392339684611797565b0390a355604051908152f35b60405162461bcd60e51b815260206004820152601d60248201527f496e73756666696369656e74206c6971756964697479206d696e7465640000006044820152606490fd5b634e487b7160e01b86526011600452602486fd5b909150610e1682610e118184611739565b6116c7565b60011c90610cf1565b634e487b7160e01b88526011600452602488fd5b9015610cfb57506001610cfb565b610e56610e4e8285611726565b875490611739565b610e6e610e63838a611726565b600385015490611739565b80821015610e7e57505b96610d0a565b9050610e78565b610e9d9060203d6020116106fa576106ed8183611690565b610cba565b6040513d86823e3d90fd5b610ec59060203d6020116106fa576106ed8183611690565b610c77565b946003870154610ee387610ede8386611726565b611739565b96828811610f3557505050608435851015610c385760405162461bcd60e51b8152602060048201526015602482015274125b9cdd59999a58da595b9d081088185b5bdd5b9d605a1b6044820152606490fd5b829750610ede90610f4593611726565b9081111580610f90575b610c385760405162461bcd60e51b8152602060048201526015602482015274125b9cdd59999a58da595b9d081048185b5bdd5b9d605a1b6044820152606490fd5b50606435811015610f4f565b50600387015415610c31565b503461018657806003193601126101865760a0600754600854600954600a5490600b54926040519485526020850152604084015260608301526080820152f35b50346101865780600319360112610186576001546040516001600160a01b039091168152602090f35b503461018657806003193601126101865761102a6118cb565b808080806011548160115560018060a01b036001541682821561105d575bf1156110515780f35b604051903d90823e3d90fd5b506108fc611048565b5034610186576020366003190112610186576020906040906001600160a01b0361108e61167a565b168152600e83522054604051908152f35b50346101865760203660031901126101865760206110c36110be61167a565b6117ad565b604051908152f35b5034610186576080366003190112610186576004356024356110eb6118f2565b8183526004602052604083209161110860ff6006850154166116e8565b808452600560209081526040808620335f9081529252902054821161132b576002830191611137835482611726565b936004810161114881548097611739565b9561115c6003840191610ede835487611726565b956044358810158061131f575b156112dc5785895260056020526040892060018060a01b0333165f5260205260405f20611197868254611757565b90556111a4888254611757565b90556111b1868254611757565b90556111be838254611757565b9055805460405163a9059cbb60e01b81529060209082906001600160a01b0316818a816111ef8c336004840161177c565b03925af180156112d1576112b4575b506001015460405163a9059cbb60e01b81529060209082906001600160a01b03168189816112308a336004840161177c565b03925af180156112a957916001939187936040985061128c575b507fdcd2a7a2ca607e210edca7c07bebf4592a7fc452d24305ca55ecdff503421fb087518061127c3394898b84611797565b0390a35582519182526020820152f35b6112a49060203d6020116106fa576106ed8183611690565b61124a565b6040513d88823e3d90fd5b6112cc9060203d6020116106fa576106ed8183611690565b6111fe565b6040513d89823e3d90fd5b60405162461bcd60e51b815260206004820152601b60248201527a496e73756666696369656e74206f757470757420616d6f756e747360281b6044820152606490fd5b50606435871015611169565b60405162461bcd60e51b815260206004820152601e60248201527f496e73756666696369656e74206c69717569646974792062616c616e636500006044820152606490fd5b50346101865780600319360112610186576113896118cb565b600180546001600160a01b0319811690915581906001600160a01b03165f516020611a475f395f51905f528280a380f35b50346101865780600319360112610186576020601254604051908152f35b50346101865760403660031901126101865760406113f4611664565b9160043581526005602052209060018060a01b03165f52602052602060405f2054604051908152f35b50346101865760a0366003190112610186576084356064356044356024356004356114466118cb565b8181116114b257606461145d86610e1187876116c7565b0361147457600755600855600955600a55600b5580f35b60405162461bcd60e51b81526020600482015260166024820152750536861726573206d7573742073756d20746f203130360541b6044820152606490fd5b60405162461bcd60e51b815260206004820152601e60248201527f42617365206665652063616e6e6f7420657863656564206d61782066656500006044820152606490fd5b503461018657602036600319011261018657604060c091600435815260046020522060018060a01b038154169060018060a01b0360018201541690600281015460038201549060ff6006600485015494015416936040519586526020860152604085015260608401526080830152151560a0820152f35b50346101865780600319360112610186576020601154604051908152f35b50346115fc575f3660031901126115fc576115a56118cb565b601280545f9091556002546001600160a01b0316803b156115fc575f906004604051809481936305dabd6960e51b83525af180156115f1576115e5575080f35b61001891505f90611690565b6040513d5f823e3d90fd5b5f80fd5b346115fc5760203660031901126115fc576004356006548110156115fc57611629602091611638565b90549060031b1c604051908152f35b6006548110156116505760065f5260205f2001905f90565b634e487b7160e01b5f52603260045260245ffd5b602435906001600160a01b03821682036115fc57565b600435906001600160a01b03821682036115fc57565b601f909101601f19168101906001600160401b038211908210176116b357604052565b634e487b7160e01b5f52604160045260245ffd5b919082018092116116d457565b634e487b7160e01b5f52601160045260245ffd5b156116ef57565b60405162461bcd60e51b815260206004820152600f60248201526e50616972206e6f742061637469766560881b6044820152606490fd5b818102929181159184041417156116d457565b8115611743570490565b634e487b7160e01b5f52601260045260245ffd5b919082039182116116d457565b908160209103126115fc575180151581036115fc5790565b6001600160a01b039091168152602081019190915260400190565b6040919493926060820195825260208201520152565b6001600160a01b03165f818152600e6020526040902054620151808101106116d457805f52600c60205260405f2054905f52600d60205260405f20546008549168056bc75e2d63100000811161188b575b683635c9adc5dea000001061186d575b6064811161184f575b6103e810611833575b60075480821061182e575090565b905090565b605a810290808204605a14901517156116d45760649004611820565b90605a810290808204605a14901517156116d4576064900490611817565b906050810290808204605014901517156116d457606490049061180e565b916050810290808204605014901517156116d45760649004916117fe565b6001600160a01b03918216815291166020820152604081019190915260600190565b6001546001600160a01b031633036118df57565b63118cdaa760e01b5f523360045260245ffd5b60025f54146119015760025f55565b633ee5aeb560e01b5f5260045ffd5b6001600160a01b03165f818152601360209081526040808320600e9092529091205490939291906201518081019081106116d4574211611a2d575b6119568285546116c7565b8455600184016119678382546116c7565b90555f52600c60205260405f2061197f8282546116c7565b9055670de0b6b3a7640000820291808304670de0b6b3a764000014901517156116d4576119ab91611739565b90816003820180548211611a25575b506004820180548015908115611a1b575b50611a13575b505060058101908154806119e457505055565b6119ee8185611757565b6064810290808204606414901517156116d457600291611a0d91611739565b91015555565b55815f6119d1565b905082105f6119cb565b55815f6119ba565b5f6001850155805f52600e6020524260405f205561194b56fe8be0079c531659141344cd1fd0a4f28419497f9722a3daafe3b4186f6b6457e0a264697066735822122071c9b9ea09ebcf0d84aaf4b8d979bb559e065b234207c4bcf2656f1c9bf98ed064736f6c634300081c0033","linkReferences":{},"deployedLinkReferences":{},"immutableReferences":{},"inputSourceName":"project/contracts/TradingEngine.sol","buildInfoId":"solc-0_8_28-7079be9912eddb04e01c38da66a2cee036e8873d"}