{"_format":"hh3-artifact-1","contractName":"WhaleToken","sourceName":"contracts/WhaleToken.sol","abi":[{"inputs":[],"stateMutability":"nonpayable","type":"constructor"},{"inputs":[],"name":"ECDSAInvalidSignature","type":"error"},{"inputs":[{"internalType":"uint256","name":"length","type":"uint256"}],"name":"ECDSAInvalidSignatureLength","type":"error"},{"inputs":[{"internalType":"bytes32","name":"s","type":"bytes32"}],"name":"ECDSAInvalidSignatureS","type":"error"},{"inputs":[{"internalType":"address","name":"spender","type":"address"},{"internalType":"uint256","name":"allowance","type":"uint256"},{"internalType":"uint256","name":"needed","type":"uint256"}],"name":"ERC20InsufficientAllowance","type":"error"},{"inputs":[{"internalType":"address","name":"sender","type":"address"},{"internalType":"uint256","name":"balance","type":"uint256"},{"internalType":"uint256","name":"needed","type":"uint256"}],"name":"ERC20InsufficientBalance","type":"error"},{"inputs":[{"internalType":"address","name":"approver","type":"address"}],"name":"ERC20InvalidApprover","type":"error"},{"inputs":[{"internalType":"address","name":"receiver","type":"address"}],"name":"ERC20InvalidReceiver","type":"error"},{"inputs":[{"internalType":"address","name":"sender","type":"address"}],"name":"ERC20InvalidSender","type":"error"},{"inputs":[{"internalType":"address","name":"spender","type":"address"}],"name":"ERC20InvalidSpender","type":"error"},{"inputs":[{"internalType":"uint256","name":"deadline","type":"uint256"}],"name":"ERC2612ExpiredSignature","type":"error"},{"inputs":[{"internalType":"address","name":"signer","type":"address"},{"internalType":"address","name":"owner","type":"address"}],"name":"ERC2612InvalidSigner","type":"error"},{"inputs":[],"name":"EnforcedPause","type":"error"},{"inputs":[],"name":"ExpectedPause","type":"error"},{"inputs":[{"internalType":"address","name":"account","type":"address"},{"internalType":"uint256","name":"currentNonce","type":"uint256"}],"name":"InvalidAccountNonce","type":"error"},{"inputs":[],"name":"InvalidShortString","type":"error"},{"inputs":[{"internalType":"address","name":"owner","type":"address"}],"name":"OwnableInvalidOwner","type":"error"},{"inputs":[{"internalType":"address","name":"account","type":"address"}],"name":"OwnableUnauthorizedAccount","type":"error"},{"inputs":[],"name":"ReentrancyGuardReentrantCall","type":"error"},{"inputs":[{"internalType":"string","name":"str","type":"string"}],"name":"StringTooLong","type":"error"},{"anonymous":false,"inputs":[{"indexed":true,"internalType":"address","name":"owner","type":"address"},{"indexed":true,"internalType":"address","name":"spender","type":"address"},{"indexed":false,"internalType":"uint256","name":"value","type":"uint256"}],"name":"Approval","type":"event"},{"anonymous":false,"inputs":[{"indexed":true,"internalType":"address","name":"bridge","type":"address"},{"indexed":false,"internalType":"bool","name":"authorized","type":"bool"}],"name":"BridgeAuthorized","type":"event"},{"anonymous":false,"inputs":[{"indexed":true,"internalType":"uint256","name":"chainId","type":"uint256"},{"indexed":false,"internalType":"bool","name":"supported","type":"bool"}],"name":"ChainSupported","type":"event"},{"anonymous":false,"inputs":[],"name":"EIP712DomainChanged","type":"event"},{"anonymous":false,"inputs":[{"indexed":false,"internalType":"uint256","name":"totalAmount","type":"uint256"},{"indexed":false,"internalType":"uint256","name":"timestamp","type":"uint256"}],"name":"FeeDistributed","type":"event"},{"anonymous":false,"inputs":[{"indexed":true,"internalType":"address","name":"previousOwner","type":"address"},{"indexed":true,"internalType":"address","name":"newOwner","type":"address"}],"name":"OwnershipTransferred","type":"event"},{"anonymous":false,"inputs":[{"indexed":false,"internalType":"address","name":"account","type":"address"}],"name":"Paused","type":"event"},{"anonymous":false,"inputs":[{"indexed":true,"internalType":"uint256","name":"proposalId","type":"uint256"}],"name":"ProposalCancelled","type":"event"},{"anonymous":false,"inputs":[{"indexed":true,"internalType":"uint256","name":"proposalId","type":"uint256"},{"indexed":true,"internalType":"address","name":"proposer","type":"address"},{"indexed":false,"internalType":"string","name":"title","type":"string"},{"indexed":false,"internalType":"uint256","name":"startTime","type":"uint256"},{"indexed":false,"internalType":"uint256","name":"endTime","type":"uint256"}],"name":"ProposalCreated","type":"event"},{"anonymous":false,"inputs":[{"indexed":true,"internalType":"uint256","name":"proposalId","type":"uint256"}],"name":"ProposalExecuted","type":"event"},{"anonymous":false,"inputs":[{"indexed":true,"internalType":"address","name":"user","type":"address"},{"indexed":false,"internalType":"uint256","name":"amount","type":"uint256"}],"name":"RewardsClaimed","type":"event"},{"anonymous":false,"inputs":[{"indexed":true,"internalType":"address","name":"user","type":"address"},{"indexed":false,"internalType":"uint256","name":"amount","type":"uint256"},{"indexed":false,"internalType":"uint256","name":"timestamp","type":"uint256"}],"name":"Staked","type":"event"},{"anonymous":false,"inputs":[{"indexed":true,"internalType":"address","name":"from","type":"address"},{"indexed":true,"internalType":"address","name":"to","type":"address"},{"indexed":false,"internalType":"uint256","name":"value","type":"uint256"}],"name":"Transfer","type":"event"},{"anonymous":false,"inputs":[{"indexed":false,"internalType":"address","name":"account","type":"address"}],"name":"Unpaused","type":"event"},{"anonymous":false,"inputs":[{"indexed":true,"internalType":"address","name":"user","type":"address"},{"indexed":false,"internalType":"uint256","name":"amount","type":"uint256"},{"indexed":false,"internalType":"uint256","name":"rewards","type":"uint256"}],"name":"Unstaked","type":"event"},{"anonymous":false,"inputs":[{"indexed":true,"internalType":"address","name":"voter","type":"address"},{"indexed":true,"internalType":"uint256","name":"proposalId","type":"uint256"},{"indexed":false,"internalType":"enum WhaleToken.VoteChoice","name":"choice","type":"uint8"},{"indexed":false,"internalType":"uint256","name":"weight","type":"uint256"}],"name":"VoteCast","type":"event"},{"inputs":[],"name":"DOMAIN_SEPARATOR","outputs":[{"internalType":"bytes32","name":"","type":"bytes32"}],"stateMutability":"view","type":"function"},{"inputs":[],"name":"MAX_APY","outputs":[{"internalType":"uint256","name":"","type":"uint256"}],"stateMutability":"view","type":"function"},{"inputs":[],"name":"MIN_STAKE_DURATION","outputs":[{"internalType":"uint256","name":"","type":"uint256"}],"stateMutability":"view","type":"function"},{"inputs":[],"name":"PROPOSAL_THRESHOLD","outputs":[{"internalType":"uint256","name":"","type":"uint256"}],"stateMutability":"view","type":"function"},{"inputs":[],"name":"QUORUM_PERCENTAGE","outputs":[{"internalType":"uint256","name":"","type":"uint256"}],"stateMutability":"view","type":"function"},{"inputs":[],"name":"TOTAL_SUPPLY","outputs":[{"internalType":"uint256","name":"","type":"uint256"}],"stateMutability":"view","type":"function"},{"inputs":[],"name":"VOTING_DELAY","outputs":[{"internalType":"uint256","name":"","type":"uint256"}],"stateMutability":"view","type":"function"},{"inputs":[],"name":"VOTING_PERIOD","outputs":[{"internalType":"uint256","name":"","type":"uint256"}],"stateMutability":"view","type":"function"},{"inputs":[{"internalType":"address","name":"owner","type":"address"},{"internalType":"address","name":"spender","type":"address"}],"name":"allowance","outputs":[{"internalType":"uint256","name":"","type":"uint256"}],"stateMutability":"view","type":"function"},{"inputs":[{"internalType":"address","name":"spender","type":"address"},{"internalType":"uint256","name":"value","type":"uint256"}],"name":"approve","outputs":[{"internalType":"bool","name":"","type":"bool"}],"stateMutability":"nonpayable","type":"function"},{"inputs":[{"internalType":"address","name":"","type":"address"}],"name":"authorizedBridges","outputs":[{"internalType":"bool","name":"","type":"bool"}],"stateMutability":"view","type":"function"},{"inputs":[{"internalType":"address","name":"account","type":"address"}],"name":"balanceOf","outputs":[{"internalType":"uint256","name":"","type":"uint256"}],"stateMutability":"view","type":"function"},{"inputs":[{"internalType":"address","name":"from","type":"address"},{"internalType":"uint256","name":"amount","type":"uint256"}],"name":"burn","outputs":[],"stateMutability":"nonpayable","type":"function"},{"inputs":[{"internalType":"address","name":"user","type":"address"}],"name":"calculatePendingRewards","outputs":[{"internalType":"uint256","name":"","type":"uint256"}],"stateMutability":"view","type":"function"},{"inputs":[{"internalType":"uint256","name":"proposalId","type":"uint256"}],"name":"cancelProposal","outputs":[],"stateMutability":"nonpayable","type":"function"},{"inputs":[],"name":"claimRevenueShare","outputs":[],"stateMutability":"nonpayable","type":"function"},{"inputs":[],"name":"claimRewards","outputs":[],"stateMutability":"nonpayable","type":"function"},{"inputs":[{"internalType":"string","name":"title","type":"string"},{"internalType":"string","name":"description","type":"string"},{"internalType":"address","name":"targetContract","type":"address"},{"internalType":"bytes","name":"callData","type":"bytes"}],"name":"createProposal","outputs":[{"internalType":"uint256","name":"","type":"uint256"}],"stateMutability":"nonpayable","type":"function"},{"inputs":[],"name":"decimals","outputs":[{"internalType":"uint8","name":"","type":"uint8"}],"stateMutability":"view","type":"function"},{"inputs":[],"name":"distributeFees","outputs":[],"stateMutability":"payable","type":"function"},{"inputs":[],"name":"eip712Domain","outputs":[{"internalType":"bytes1","name":"fields","type":"bytes1"},{"internalType":"string","name":"name","type":"string"},{"internalType":"string","name":"version","type":"string"},{"internalType":"uint256","name":"chainId","type":"uint256"},{"internalType":"address","name":"verifyingContract","type":"address"},{"internalType":"bytes32","name":"salt","type":"bytes32"},{"internalType":"uint256[]","name":"extensions","type":"uint256[]"}],"stateMutability":"view","type":"function"},{"inputs":[],"name":"emergencyWithdraw","outputs":[],"stateMutability":"nonpayable","type":"function"},{"inputs":[{"internalType":"uint256","name":"proposalId","type":"uint256"}],"name":"executeProposal","outputs":[],"stateMutability":"nonpayable","type":"function"},{"inputs":[{"internalType":"uint256","name":"proposalId","type":"uint256"}],"name":"getProposal","outputs":[{"internalType":"address","name":"proposer","type":"address"},{"internalType":"string","name":"title","type":"string"},{"internalType":"string","name":"description","type":"string"},{"internalType":"uint256","name":"votesFor","type":"uint256"},{"internalType":"uint256","name":"votesAgainst","type":"uint256"},{"internalType":"uint256","name":"votesAbstain","type":"uint256"},{"internalType":"uint256","name":"startTime","type":"uint256"},{"internalType":"uint256","name":"endTime","type":"uint256"},{"internalType":"enum WhaleToken.ProposalState","name":"state","type":"uint8"}],"stateMutability":"view","type":"function"},{"inputs":[{"internalType":"address","name":"user","type":"address"}],"name":"getStakingInfo","outputs":[{"internalType":"uint256","name":"staked","type":"uint256"},{"internalType":"uint256","name":"earned","type":"uint256"},{"internalType":"uint256","name":"pending","type":"uint256"},{"internalType":"uint256","name":"voting","type":"uint256"},{"internalType":"uint256","name":"revenueShare","type":"uint256"}],"stateMutability":"view","type":"function"},{"inputs":[{"internalType":"uint256","name":"proposalId","type":"uint256"},{"internalType":"address","name":"user","type":"address"}],"name":"hasVoted","outputs":[{"internalType":"bool","name":"","type":"bool"}],"stateMutability":"view","type":"function"},{"inputs":[{"internalType":"address","name":"","type":"address"}],"name":"lastClaimedBlock","outputs":[{"internalType":"uint256","name":"","type":"uint256"}],"stateMutability":"view","type":"function"},{"inputs":[{"internalType":"address","name":"","type":"address"}],"name":"lastTransactionBlock","outputs":[{"internalType":"uint256","name":"","type":"uint256"}],"stateMutability":"view","type":"function"},{"inputs":[],"name":"mevConfig","outputs":[{"internalType":"uint256","name":"maxSlippage","type":"uint256"},{"internalType":"uint256","name":"priceImpactThreshold","type":"uint256"},{"internalType":"uint256","name":"timeWindow","type":"uint256"},{"internalType":"uint256","name":"maxTransactionSize","type":"uint256"},{"internalType":"uint256","name":"commitRevealDelay","type":"uint256"},{"internalType":"bool","name":"sandwichProtectionEnabled","type":"bool"},{"internalType":"bool","name":"frontRunningProtectionEnabled","type":"bool"}],"stateMutability":"view","type":"function"},{"inputs":[{"internalType":"address","name":"to","type":"address"},{"internalType":"uint256","name":"amount","type":"uint256"}],"name":"mint","outputs":[],"stateMutability":"nonpayable","type":"function"},{"inputs":[],"name":"name","outputs":[{"internalType":"string","name":"","type":"string"}],"stateMutability":"view","type":"function"},{"inputs":[{"internalType":"address","name":"owner","type":"address"}],"name":"nonces","outputs":[{"internalType":"uint256","name":"","type":"uint256"}],"stateMutability":"view","type":"function"},{"inputs":[],"name":"owner","outputs":[{"internalType":"address","name":"","type":"address"}],"stateMutability":"view","type":"function"},{"inputs":[],"name":"pause","outputs":[],"stateMutability":"nonpayable","type":"function"},{"inputs":[],"name":"paused","outputs":[{"internalType":"bool","name":"","type":"bool"}],"stateMutability":"view","type":"function"},{"inputs":[{"internalType":"address","name":"owner","type":"address"},{"internalType":"address","name":"spender","type":"address"},{"internalType":"uint256","name":"value","type":"uint256"},{"internalType":"uint256","name":"deadline","type":"uint256"},{"internalType":"uint8","name":"v","type":"uint8"},{"internalType":"bytes32","name":"r","type":"bytes32"},{"internalType":"bytes32","name":"s","type":"bytes32"}],"name":"permit","outputs":[],"stateMutability":"nonpayable","type":"function"},{"inputs":[],"name":"proposalCount","outputs":[{"internalType":"uint256","name":"","type":"uint256"}],"stateMutability":"view","type":"function"},{"inputs":[{"internalType":"uint256","name":"","type":"uint256"}],"name":"proposals","outputs":[{"internalType":"uint256","name":"id","type":"uint256"},{"internalType":"address","name":"proposer","type":"address"},{"internalType":"string","name":"title","type":"string"},{"internalType":"string","name":"description","type":"string"},{"internalType":"address","name":"targetContract","type":"address"},{"internalType":"bytes","name":"callData","type":"bytes"},{"internalType":"uint256","name":"votesFor","type":"uint256"},{"internalType":"uint256","name":"votesAgainst","type":"uint256"},{"internalType":"uint256","name":"votesAbstain","type":"uint256"},{"internalType":"uint256","name":"startTime","type":"uint256"},{"internalType":"uint256","name":"endTime","type":"uint256"},{"internalType":"bool","name":"executed","type":"bool"},{"internalType":"bool","name":"cancelled","type":"bool"},{"internalType":"enum WhaleToken.ProposalState","name":"state","type":"uint8"}],"stateMutability":"view","type":"function"},{"inputs":[],"name":"renounceOwnership","outputs":[],"stateMutability":"nonpayable","type":"function"},{"inputs":[{"internalType":"address","name":"","type":"address"}],"name":"rewardsEarned","outputs":[{"internalType":"uint256","name":"","type":"uint256"}],"stateMutability":"view","type":"function"},{"inputs":[{"internalType":"address","name":"bridge","type":"address"},{"internalType":"bool","name":"authorized","type":"bool"}],"name":"setBridgeAuthorization","outputs":[],"stateMutability":"nonpayable","type":"function"},{"inputs":[{"internalType":"uint256","name":"newRate","type":"uint256"}],"name":"setStakingRewardRate","outputs":[],"stateMutability":"nonpayable","type":"function"},{"inputs":[{"internalType":"uint256","name":"chainId","type":"uint256"},{"internalType":"bool","name":"supported","type":"bool"}],"name":"setSupportedChain","outputs":[],"stateMutability":"nonpayable","type":"function"},{"inputs":[{"internalType":"uint256","name":"amount","type":"uint256"}],"name":"stake","outputs":[],"stateMutability":"nonpayable","type":"function"},{"inputs":[{"internalType":"address","name":"","type":"address"}],"name":"stakeTimestamp","outputs":[{"internalType":"uint256","name":"","type":"uint256"}],"stateMutability":"view","type":"function"},{"inputs":[{"internalType":"address","name":"","type":"address"}],"name":"stakedBalance","outputs":[{"internalType":"uint256","name":"","type":"uint256"}],"stateMutability":"view","type":"function"},{"inputs":[],"name":"stakingRewardRate","outputs":[{"internalType":"uint256","name":"","type":"uint256"}],"stateMutability":"view","type":"function"},{"inputs":[{"internalType":"uint256","name":"","type":"uint256"}],"name":"supportedChains","outputs":[{"internalType":"bool","name":"","type":"bool"}],"stateMutability":"view","type":"function"},{"inputs":[],"name":"symbol","outputs":[{"internalType":"string","name":"","type":"string"}],"stateMutability":"view","type":"function"},{"inputs":[],"name":"totalFeePool","outputs":[{"internalType":"uint256","name":"","type":"uint256"}],"stateMutability":"view","type":"function"},{"inputs":[],"name":"totalStaked","outputs":[{"internalType":"uint256","name":"","type":"uint256"}],"stateMutability":"view","type":"function"},{"inputs":[],"name":"totalSupply","outputs":[{"internalType":"uint256","name":"","type":"uint256"}],"stateMutability":"view","type":"function"},{"inputs":[{"internalType":"bytes32","name":"","type":"bytes32"}],"name":"transactionCommits","outputs":[{"internalType":"bytes32","name":"commitHash","type":"bytes32"},{"internalType":"uint256","name":"commitTime","type":"uint256"},{"internalType":"address","name":"user","type":"address"},{"internalType":"bool","name":"revealed","type":"bool"},{"internalType":"bool","name":"executed","type":"bool"}],"stateMutability":"view","type":"function"},{"inputs":[{"internalType":"address","name":"to","type":"address"},{"internalType":"uint256","name":"value","type":"uint256"}],"name":"transfer","outputs":[{"internalType":"bool","name":"","type":"bool"}],"stateMutability":"nonpayable","type":"function"},{"inputs":[{"internalType":"address","name":"from","type":"address"},{"internalType":"address","name":"to","type":"address"},{"internalType":"uint256","name":"value","type":"uint256"}],"name":"transferFrom","outputs":[{"internalType":"bool","name":"","type":"bool"}],"stateMutability":"nonpayable","type":"function"},{"inputs":[{"internalType":"address","name":"newOwner","type":"address"}],"name":"transferOwnership","outputs":[],"stateMutability":"nonpayable","type":"function"},{"inputs":[],"name":"unpause","outputs":[],"stateMutability":"nonpayable","type":"function"},{"inputs":[{"internalType":"uint256","name":"amount","type":"uint256"}],"name":"unstake","outputs":[],"stateMutability":"nonpayable","type":"function"},{"inputs":[{"internalType":"address","name":"","type":"address"}],"name":"userRateLimits","outputs":[{"internalType":"uint256","name":"totalVolume","type":"uint256"},{"internalType":"uint256","name":"lastResetTime","type":"uint256"},{"internalType":"uint256","name":"transactionCount","type":"uint256"}],"stateMutability":"view","type":"function"},{"inputs":[{"internalType":"bytes32","name":"proposalId","type":"bytes32"},{"internalType":"bool","name":"support","type":"bool"}],"name":"vote","outputs":[],"stateMutability":"nonpayable","type":"function"},{"inputs":[{"internalType":"uint256","name":"proposalId","type":"uint256"},{"internalType":"enum WhaleToken.VoteChoice","name":"choice","type":"uint8"}],"name":"voteDetailed","outputs":[],"stateMutability":"nonpayable","type":"function"},{"inputs":[{"internalType":"address","name":"","type":"address"}],"name":"votingPower","outputs":[{"internalType":"uint256","name":"","type":"uint256"}],"stateMutability":"view","type":"function"},{"stateMutability":"payable","type":"receive"}],"bytecode":"0x610160604052346106ad576040516100186040826106b1565b600b8152602081016a2bb430b632902a37b5b2b760a91b8152604051906100406040836106b1565b600b82526a2bb430b632902a37b5b2b760a91b6020830152604051926100676040856106b1565b60058452645748414c4560d81b6020850152604051936100886040866106b1565b60018552603160f81b60208601908152845190946001600160401b03821161048c5760035490600182811c921680156106a3575b60208310146105a65781601f849311610635575b50602090601f83116001146105cf575f926105c4575b50508160011b915f199060031b1c1916176003555b8051906001600160401b03821161048c5760045490600182811c921680156105ba575b60208310146105a65781601f849311610538575b50602090601f83116001146104d2575f926104c7575b50508160011b915f199060031b1c1916176004555b610166816106d4565b610120526101738461085b565b61014052519020918260e05251902080610100524660a0526040519060208201927f8b73c3c69bb8fe3d512ecc4cf759cc79239f7b179b0ffacaa9a75d522b39400f8452604083015260608201524660808201523060a082015260a081526101dc60c0826106b1565b5190206080523060c052600160085533156104b45760098054336001600160a01b0319821681179092556001600160a01b03167f8be0079c531659141344cd1fd0a4f28419497f9722a3daafe3b4186f6b6457e05f80a3600f601c556002546b033b2e3c9fd0803ce800000081018091116104a057600255335f525f60205260405f206b033b2e3c9fd0803ce800000081540190556040516b033b2e3c9fd0803ce800000081525f7fddf252ad1be2c89b69c2b068fc378daa952ba7f163c4a11628f55a4df523b3ef60203393a360405160e081016001600160401b0381118282101761048c5760409081526101f480835261012c602080850182905284840182905268056bc75e2d6310000060608601819052600260808701819052600160a0880181905260c0909701879052600a94909455600b839055600c92909255600d91909155600e91909155600f805461ffff1916610101179055601b90527f58ecbac161e56a5603d1649713bdad705c246fb6c16c7b97b4140eaeed5d9e0d805460ff1990811684179091557f0e777275d8fd5c02e0335897a882353bdaa7e47c1c92236c65cd26b9f508ce6680548216841790557f163f3f3ee5dfe888cb5389adb4a6d4b482c89cfd5ed7ebb20ffc2a0d0c33c9c380548216841790557f5b929abc2cde3ae99002c52a58e2b8bf3751ba7e8fdb3c480d381f7407be4cf380548216841790557f8d585323151910a5ef9867c86336d2329380a03979b52981d87719eb59c4382780548216841790556140d85f527fbcbcc3c91317df880e4368b74708cb4d50f6ef6540f4dfcff6964babf920fc708054909116909217909155516131e59081610994823960805181612d3a015260a05181612df7015260c05181612d04015260e05181612d8901526101005181612daf0152610120518161171f015261014051816117480152f35b634e487b7160e01b5f52604160045260245ffd5b634e487b7160e01b5f52601160045260245ffd5b631e4fbdf760e01b5f525f60045260245ffd5b015190505f80610148565b60045f9081528281209350601f198516905b8181106105205750908460019594939210610508575b505050811b0160045561015d565b01515f1960f88460031b161c191690555f80806104fa565b929360206001819287860151815501950193016104e4565b60045f529091507f8a35acfbc15ff81a39ae7d344fd709f28e8600b4aa8c65c6b64bfe7fe36bd19b601f840160051c8101916020851061059c575b90601f859493920160051c01905b81811061058e5750610132565b5f8155849350600101610581565b9091508190610573565b634e487b7160e01b5f52602260045260245ffd5b91607f169161011e565b015190505f806100e6565b60035f9081528281209350601f198516905b81811061061d5750908460019594939210610605575b505050811b016003556100fb565b01515f1960f88460031b161c191690555f80806105f7565b929360206001819287860151815501950193016105e1565b60035f529091507fc2575a0e9e593c00f959f8c92f12db2869c3395a3b0502d05e2516446f71f85b601f840160051c81019160208510610699575b90601f859493920160051c01905b81811061068b57506100d0565b5f815584935060010161067e565b9091508190610670565b91607f16916100bc565b5f80fd5b601f909101601f19168101906001600160401b0382119082101761048c57604052565b908151602081105f1461074e575090601f81511161070e5760208151910151602082106106ff571790565b5f198260200360031b1b161790565b604460209160405192839163305a27a960e01b83528160048401528051918291826024860152018484015e5f828201840152601f01601f19168101030190fd5b6001600160401b03811161048c57600554600181811c91168015610851575b60208210146105a657601f811161081e575b50602092601f82116001146107bd57928192935f926107b2575b50508160011b915f199060031b1c19161760055560ff90565b015190505f80610799565b601f1982169360055f52805f20915f5b86811061080657508360019596106107ee575b505050811b0160055560ff90565b01515f1960f88460031b161c191690555f80806107e0565b919260206001819286850151815501940192016107cd565b60055f52601f60205f20910160051c810190601f830160051c015b818110610846575061077f565b5f8155600101610839565b90607f169061076d565b908151602081105f14610886575090601f81511161070e5760208151910151602082106106ff571790565b6001600160401b03811161048c57600654600181811c91168015610989575b60208210146105a657601f8111610956575b50602092601f82116001146108f557928192935f926108ea575b50508160011b915f199060031b1c19161760065560ff90565b015190505f806108d1565b601f1982169360065f52805f20915f5b86811061093e5750836001959610610926575b505050811b0160065560ff90565b01515f1960f88460031b161c191690555f8080610918565b91926020600181928685015181550194019201610905565b60065f52601f60205f20910160051c810190601f830160051c015b81811061097e57506108b7565b5f8155600101610971565b90607f16906108a556fe608080604052600436101561001c575b50361561001a575f80fd5b005b5f3560e01c908163013cf08b146124bd5750806306fdde0314612418578063095ea7b3146123f2578063097aad10146123cf5780630d61b519146120f057806318160ddd146120d357806323b872dd14611ff4578063255c16fb14611fd75780632e17de7814611e33578063313ce56714611e185780633644e51514611df6578063372500ab14611d265780633d92f4e214611d0b5780633f4ba83a14611c9d57806340c10f1914611c605780634385963214611c1457806346c6f5f414611bb95780634f3fc2df14611b9c578063548d496f14611b6d57806354dffd0d14611a7b5780635c975abb14611a565780636021726714611a1e5780636fc063be146119e157806370259077146119a957806370a0823114611972578063715018a61461192a5780637ccd89e6146118b55780637ecebe001461187d578063817b1cd2146118605780638456cb59146117ff57806384b0196e146117075780638bfea439146116cf5780638da5cb5b146116a7578063902d55a51461168157806395d89b41146115a35780639dc29fac146114ef5780639e1359cd146113455780639f2ce67814611134578063a694fc3a14610fea578063a6c2660314610fc6578063a707603814610f8e578063a9059cbb14610f5d578063aa4704f314610eb1578063b1610d7e14610415578063b7d6851914610e4c578063bb57ad2014610d6b578063c07473f614610d33578063c19e82d514610cfb578063c26493f7146108bc578063c42db01414610863578063c7f758a81461077d578063d505accf1461063a578063d6159fe51461061d578063da35c66414610600578063db2e21bc146105b3578063dd62ed3e14610563578063e0a8f6f51461041a578063e0c570ba14610415578063e4a0e7e9146103b3578063e8c6e47414610364578063ee8a7c15146103495763f2fde38b146102d2575f61000f565b34610345576020366003190112610345576102eb612739565b6102f3612e1d565b6001600160a01b0316801561033257600980546001600160a01b0319811683179091556001600160a01b03165f5160206131505f395f51905f525f80a3005b631e4fbdf760e01b5f525f60045260245ffd5b5f80fd5b34610345575f366003190112610345576020604051600a8152f35b34610345576020366003190112610345576001600160a01b03610385612739565b165f526010602052606060405f20805490600260018201549101549060405192835260208301526040820152f35b34610345576020366003190112610345576004355f52601260205260a060405f2060ff81549160026001820154910154906040519384526020840152600180851b03811660408401528181851c161515606084015260a81c1615156080820152f35b612774565b3461034557602036600319011261034557600435805f52601d60205260405f2060018060a01b036001820154163314801561054f575b1561051b5760098101544210156104dd57600b01805460ff8160081c166104a45762ffff001916620501001790557f416e669c63d9a3a5e36ee7cc7e2104b8db28ccd286aa18966e98fa230c73b08c5f80a2005b60405162461bcd60e51b8152602060048201526011602482015270105b1c9958591e4818d85b98d95b1b1959607a1b6044820152606490fd5b60405162461bcd60e51b8152602060048201526016602482015275159bdd1a5b99c8185b1c9958591e481cdd185c9d195960521b6044820152606490fd5b60405162461bcd60e51b815260206004820152600c60248201526b155b985d5d1a1bdc9a5e995960a21b6044820152606490fd5b506009546001600160a01b03163314610450565b346103455760403660031901126103455761057c612739565b61058461274f565b6001600160a01b039182165f908152600160209081526040808320949093168252928352819020549051908152f35b34610345575f366003190112610345576105cb612e1d565b5f80808060018060a01b036009541647908282156105f7575bf1156105ec57005b6040513d5f823e3d90fd5b506108fc6105e4565b34610345575f366003190112610345576020601e54604051908152f35b34610345575f366003190112610345576020604051620151808152f35b346103455760e036600319011261034557610653612739565b61065b61274f565b604435906064359260843560ff811681036103455784421161076a5761072f6107389160018060a01b03841696875f52600760205260405f20908154916001830190556040519060208201927f6e71edae12b1b97f4d1f60370fef10105fa2faae0126114a169c64845d6126c984528a604084015260018060a01b038916606084015289608084015260a083015260c082015260c081526106fd60e0826126e5565b519020610708612d01565b906040519161190160f01b83526002830152602282015260c43591604260a4359220613077565b909291926130ef565b6001600160a01b0316848103610753575061001a9350612e62565b84906325c0072360e11b5f5260045260245260445ffd5b8463313c898160e11b5f5260045260245ffd5b34610345576020366003190112610345576004355f52601d60205260405f2060018060a01b03600182015416600682015461085f600784015460088501546009860154600a8701549160ff600b89015460101c169361083a600361080e6040519b6107f78d806107f08160028601612649565b03906126e5565b6108076040518094819301612649565b03826126e5565b61082c6040519b8c9b8c5261012060208d01526101208c0190612708565b908a820360408c0152612708565b966060890152608088015260a087015260c086015260e085015261010084019061272c565b0390f35b34610345575f3660031901126103455760e0600a5460ff600b54600c54600d54600e5491600f54936040519687526020870152604086015260608501526080840152818116151560a084015260081c16151560c0820152f35b34610345576080366003190112610345576004356001600160401b038111610345576108ec9036906004016127e2565b6024356001600160401b0381116103455761090b9036906004016127e2565b604435906001600160a01b0382168203610345576064356001600160401b03811161034557366023820112156103455761094f9036906024816004013591016127ac565b335f52601960205269152d02c7e14af680000060405f205410610caa57601e545f198114610b39576001908101601e8190555f818152601d6020526040902081815591820180546001600160a01b031916331790558551909491939060028501906001600160401b038111610bbb576109d2816109cc8454612611565b84612af9565b6020601f8211600114610c485790806109f2925f91610c3d575b50612b48565b90555b805160038501916001600160401b038211610bbb57610a1e82610a188554612611565b85612af9565b602090601f8311600114610bda57610a4092915f9183610bcf575b5050612b48565b90555b6004830180546001600160a01b0319166001600160a01b03909216919091179055805160058301916001600160401b038211610bbb57610a8782610a188554612611565b602090601f8311600114610b5857610aa892915f9183610b4d575050612b48565b90555b62015180420190814211610b39576009810190828255620a8c004201809311610b39576020948492600b83600a7f6c98a8c940418b35614f0cd02412d5c9606faff474cbb6cdd6640ba5d1a9f06b95019687550162ff0000198154169055549354610b2160405192606084526060840190612708565b948783015260408201528033940390a3604051908152f35b634e487b7160e01b5f52601160045260245ffd5b015190508780610a39565b90601f19831691845f52815f20925f5b818110610ba35750908460019594939210610b8b575b505050811b019055610aab565b01515f1960f88460031b161c19169055868080610b7e565b92936020600181928786015181550195019301610b68565b634e487b7160e01b5f52604160045260245ffd5b015190508980610a39565b90601f19831691845f52815f20925f5b818110610c255750908460019594939210610c0d575b505050811b019055610a43565b01515f1960f88460031b161c19169055888080610c00565b92936020600181928786015181550195019301610bea565b90508901518a6109ec565b601f19821690835f52805f20915f5b8b828210610c925750509083600194939210610c7a575b5050811b0190556109f5565b8a01515f1960f88460031b161c191690558980610c6e565b60018495602093958493015181550194019201610c57565b60405162461bcd60e51b8152602060048201526024808201527f496e73756666696369656e7420766f74696e6720706f77657220746f2070726f604482015263706f736560e01b6064820152608490fd5b34610345576020366003190112610345576001600160a01b03610d1c612739565b165f526016602052602060405f2054604051908152f35b34610345576020366003190112610345576001600160a01b03610d54612739565b165f526019602052602060405f2054604051908152f35b5f36600319011261034557610d7e612e1d565b3415610e0f5760185415610dcc57610d9834601754612942565b6017557f61930a6c1553eab59d5766da6e1bab8eba982aec848ae7683452f4a6423b6e4a60408051348152426020820152a1005b60405162461bcd60e51b815260206004820152601b60248201527a4e6f207374616b65727320746f206469737472696275746520746f60281b6044820152606490fd5b60405162461bcd60e51b81526020600482015260156024820152744e6f206665657320746f206469737472696275746560581b6044820152606490fd5b3461034557602036600319011261034557600435610e68612e1d565b60328111610e7557601c55005b60405162461bcd60e51b8152602060048201526014602482015273526174652065786365656473206d6178696d756d60601b6044820152606490fd5b346103455760203660031901126103455760a0610ecc612739565b5f600180841b038216805f52601360205260405f205492815f526015602052610ef960405f20549161283e565b90825f52601960205260405f2054926018549081610f30575b50506040519485526020850152604084015260608301526080820152f35b610f55929550610f5090601754905f52601360205260405f20549061280d565b612820565b928680610f12565b3461034557604036600319011261034557610f83610f79612739565b6024359033612c00565b602060405160018152f35b34610345576020366003190112610345576001600160a01b03610faf612739565b165f526011602052602060405f2054604051908152f35b34610345575f36600319011261034557602060405169152d02c7e14af68000008152f35b3461034557602036600319011261034557600435611006612c97565b61100e612e44565b6110198115156128f6565b335f525f6020528060405f2054106110f857611036813033612c00565b335f52601360205260405f20546110d1575b335f52601360205260405f2061105f828254612942565b9055335f5260146020524260405f205561107b81601854612942565b601855335f52601360205260405f2054335f52601960205260405f20556040519081524260208201527f1449c6dd7851abc30abf37f57715f492010519147cc2652fbc38202c18a6ee9060403392a26001600855005b6110da3361283e565b335f5260156020526110f160405f20918254612942565b9055611048565b60405162461bcd60e51b8152602060048201526014602482015273496e73756666696369656e742062616c616e636560601b6044820152606490fd5b3461034557604036600319011261034557600435611150612765565b1561133e575f5b335f52601960205261116e60405f20541515612991565b601e5482111580611335575b611183906128a3565b815f52601d60205260405f20600c81019060018060a01b0333165f52816020526111b460ff60405f205416156129cf565b6111c46009820154421015612a0b565b6111d4600a820154421115612a4c565b600b810160ff815460101c166006811015806113015760018214801561132a575b6111fe90612a8e565b6113015715611315575b50335f52601960205260405f20549160405190611224826126ca565b6001825260208201906112378683612ad3565b6040830191858352606084019142835260018060a01b0333165f5260205261126660405f2094511515856128e5565b519160038310156113015760029261ff0085549160081b169061ff001916178455516001840155519101556003831015611301575f5160206131905f395f51905f52916112d191846112d6576006016112c0828254612942565b90555b604051918291339583612adf565b0390a3005b600185036112f3576007016112ec828254612942565b90556112c3565b6008016112ec828254612942565b634e487b7160e01b5f52602160045260245ffd5b805462ff000019166201000017905584611208565b505f905081156111f5565b5081151561117a565b6001611157565b3461034557604036600319011261034557600435602435600381101561034557335f52601960205261137c60405f20541515612991565b601e54821115806114e6575b611391906128a3565b815f52601d60205260405f20600c81019060018060a01b0333165f52816020526113c260ff60405f205416156129cf565b6113d26009820154421015612a0b565b6113e2600a820154421115612a4c565b600b810160ff815460101c16600681101580611301576001821480156114db575b61140c90612a8e565b61130157156114c6575b50335f52601960205260405f205460405191611431836126ca565b6001835260208301926114448685612ad3565b6040810193838552606082019542875260018060a01b0333165f5260205261147360405f2092511515836128e5565b516003811015611301575f5160206131905f395f51905f52956112d19560029261ff0085549160081b169061ff0019161784555160018401555191015584155f146112d6576006016112c0828254612942565b805462ff000019166201000017905584611416565b505f90508115611403565b50811515611388565b3461034557604036600319011261034557611508612739565b60243590335f52601a60205261152460ff60405f20541661294f565b6001600160a01b0316801561159057805f525f60205260405f2054828110611577576020835f945f5160206131705f395f51905f52938587528684520360408620558060025403600255604051908152a3005b9063391434e360e21b5f5260045260245260445260645ffd5b634b637e8f60e11b5f525f60045260245ffd5b34610345575f366003190112610345576040515f6004546115c381612611565b808452906001811690811561165d57506001146115ff575b61085f836115eb818503826126e5565b604051918291602083526020830190612708565b60045f9081527f8a35acfbc15ff81a39ae7d344fd709f28e8600b4aa8c65c6b64bfe7fe36bd19b939250905b808210611643575090915081016020016115eb6115db565b91926001816020925483858801015201910190929161162b565b60ff191660208086019190915291151560051b840190910191506115eb90506115db565b34610345575f36600319011261034557604051676765c793fa10079d601b1b8152602090f35b34610345575f366003190112610345576009546040516001600160a01b039091168152602090f35b34610345576020366003190112610345576001600160a01b036116f0612739565b165f526015602052602060405f2054604051908152f35b34610345575f366003190112610345576117a36117437f0000000000000000000000000000000000000000000000000000000000000000612ec5565b61176c7f0000000000000000000000000000000000000000000000000000000000000000612fbf565b60206117b16040519261177f83856126e5565b5f84525f368137604051958695600f60f81b875260e08588015260e0870190612708565b908582036040870152612708565b4660608501523060808501525f60a085015283810360c08501528180845192838152019301915f5b8281106117e857505050500390f35b8351855286955093810193928101926001016117d9565b34610345575f36600319011261034557611817612e1d565b61181f612e44565b6009805460ff60a01b1916600160a01b1790556040513381527f62e78cea01bee320cd4e420270b5ea74000d11b0c9f74754ebdbfc544b05a25890602090a1005b34610345575f366003190112610345576020601854604051908152f35b34610345576020366003190112610345576001600160a01b0361189e612739565b165f526007602052602060405f2054604051908152f35b34610345576040366003190112610345576118ce612739565b7fc11208a19c10526c5b56ff36e4790217719cbe00bda41649d1d47b0d1d5d5c0d60206118f9612765565b92611902612e1d565b60018060a01b031692835f52601a825261191f8160405f206128e5565b6040519015158152a2005b34610345575f36600319011261034557611942612e1d565b600980546001600160a01b031981169091555f906001600160a01b03165f5160206131505f395f51905f528280a3005b34610345576020366003190112610345576001600160a01b03611993612739565b165f525f602052602060405f2054604051908152f35b34610345576020366003190112610345576001600160a01b036119ca612739565b165f526014602052602060405f2054604051908152f35b34610345576020366003190112610345576001600160a01b03611a02612739565b165f52601a602052602060ff60405f2054166040519015158152f35b34610345576020366003190112610345576001600160a01b03611a3f612739565b165f526013602052602060405f2054604051908152f35b34610345575f36600319011261034557602060ff60095460a01c166040519015158152f35b34610345575f36600319011261034557611a93612c97565b335f52601360205260405f205415611b3457601754335f526013602052611aca611ac160405f20548361280d565b60185490612820565b908115611af2575f8083611ae082958395612800565b6017553382f1156105ec576001600855005b60405162461bcd60e51b815260206004820152601a6024820152794e6f20726576656e756520736861726520617661696c61626c6560301b6044820152606490fd5b60405162461bcd60e51b81526020600482015260116024820152704e6f207374616b65642062616c616e636560781b6044820152606490fd5b34610345576020366003190112610345576004355f52601b602052602060ff60405f2054166040519015158152f35b34610345575f366003190112610345576020601c54604051908152f35b34610345576040366003190112610345576004357fe78910fc1a08062969a9edf6b274d453a04a1734507fabbd5bb445d5cb8eaeae6020611bf8612765565b611c00612e1d565b835f52601b825261191f8160405f206128e5565b3461034557604036600319011261034557611c2d61274f565b6004355f52601d602052600c60405f20019060018060a01b03165f52602052602060ff60405f2054166040519015158152f35b346103455760403660031901126103455761001a611c7c612739565b335f52601a602052611c9460ff60405f20541661294f565b60243590612cb7565b34610345575f36600319011261034557611cb5612e1d565b60095460ff8160a01c1615611cfc5760ff60a01b19166009556040513381527f5db9ee0a495bf2e6ff9c91a7834c1ba4fdd244a5e8aa4e537bd38aeae4b073aa90602090a1005b638dfc202b60e01b5f5260045ffd5b34610345575f36600319011261034557602060405160328152f35b34610345575f36600319011261034557611d3e612c97565b611d5c611d4a3361283e565b335f52601560205260405f2054612942565b8015611dbb57335f5260156020525f6040812055335f5260146020524260405f2055611d888133612cb7565b6040519081527ffc30cddea38e2bf4d6ea7d3f9ed3b6ad7f176419f4963bd81318067a4aee73fe60203392a26001600855005b60405162461bcd60e51b81526020600482015260136024820152724e6f207265776172647320746f20636c61696d60681b6044820152606490fd5b34610345575f366003190112610345576020611e10612d01565b604051908152f35b34610345575f36600319011261034557602060405160128152f35b3461034557602036600319011261034557600435611e4f612c97565b611e5a8115156128f6565b335f5260136020528060405f205410611f9457335f52601460205260405f205462093a808101809111610b39574210611f4f57611e99611d4a3361283e565b335f52601360205260405f20611eb0838254612800565b9055611ebe82601854612800565b601855335f5260156020525f6040812055335f5260146020524260405f2055335f52601360205260405f2054335f52601960205260405f2055611f02823330612c00565b80611f40575b60405191825260208201527f7fc4727e062e336010f2c282598ef5f14facb3de68cf8195c2f23e1454b2b74e60403392a26001600855005b611f4a8133612cb7565b611f08565b60405162461bcd60e51b815260206004820152601e60248201527f4d696e696d756d207374616b65206475726174696f6e206e6f74206d657400006044820152606490fd5b60405162461bcd60e51b815260206004820152601b60248201527a496e73756666696369656e74207374616b65642062616c616e636560281b6044820152606490fd5b34610345575f366003190112610345576020601754604051908152f35b346103455760603660031901126103455761200d612739565b61201561274f565b6001600160a01b0382165f818152600160209081526040808320338452909152902054909260443592915f198110612053575b50610f839350612c00565b8381106120b85784156120a557331561209257610f83945f52600160205260405f2060018060a01b0333165f526020528360405f209103905584612048565b634a1406b160e11b5f525f60045260245ffd5b63e602df0560e01b5f525f60045260245ffd5b8390637dc7a0d960e11b5f523360045260245260445260645ffd5b34610345575f366003190112610345576020600254604051908152f35b3461034557602036600319011261034557600435601e54811115806123c6575b612119906128a3565b805f52601d60205260405f20600a81015442111561238757600b8101805460ff81166123465760081c60ff1661230c5761215283612b5a565b805460ff8160101c166006811015611301576002036122cc5762ff00ff19166204000117905560048101546001600160a01b031690811515806122b7575b6121bc575b827f712ae1383f79ac853f8d882153778e0260ef8f03b504e2866e0593e04d2b291f5f80a2005b600501604051905f908054906121d182612611565b91600181169081156122a0575060011461226e575b505091815f809493819403925af13d15612269573d61220481612791565b9061221260405192836126e5565b81525f60203d92013e5b15612228578180612195565b60405162461bcd60e51b8152602060048201526019602482015278141c9bdc1bdcd85b08195e1958dd5d1a5bdb8819985a5b1959603a1b6044820152606490fd5b61221c565b9091505f5260205f205f905b82821061228c5750508101815f6121e6565b60018160209254848701520191019061227a565b60ff1916855250508015150282019050815f6121e6565b506122c56005820154612611565b1515612190565b60405162461bcd60e51b8152602060048201526018602482015277141c9bdc1bdcd85b08191a59081b9bdd081cdd58d8d9595960421b6044820152606490fd5b60405162461bcd60e51b8152602060048201526012602482015271141c9bdc1bdcd85b0818d85b98d95b1b195960721b6044820152606490fd5b60405162461bcd60e51b8152602060048201526019602482015278141c9bdc1bdcd85b08185b1c9958591e48195e1958dd5d1959603a1b6044820152606490fd5b60405162461bcd60e51b8152602060048201526017602482015276159bdd1a5b99c81c195c9a5bd9081b9bdd08195b991959604a1b6044820152606490fd5b50801515612110565b34610345576020366003190112610345576020611e106123ed612739565b61283e565b3461034557604036600319011261034557610f8361240e612739565b6024359033612e62565b34610345575f366003190112610345576040515f60035461243881612611565b808452906001811690811561165d575060011461245f5761085f836115eb818503826126e5565b60035f9081527fc2575a0e9e593c00f959f8c92f12db2869c3395a3b0502d05e2516446f71f85b939250905b8082106124a3575090915081016020016115eb6115db565b91926001816020925483858801015201910190929161248b565b34610345576020366003190112610345576004355f908152601d60205260409020805460018201546001600160a01b031692909190806125008160028501612649565b0361250b90826126e5565b604051918261251d8160038401612649565b0361252890846126e5565b600481015460405193906001600160a01b0316846125498160058601612649565b0361255490866126e5565b600683015494600784015490600885015492600986015494600a87015496600b0154976040519b8c9b8c5260208c015260408b016101c090526101c08b0161259b91612708565b8a810360608c01526125ac91612708565b9060808a015288810360a08a01526125c391612708565b9560c088015260e087015261010086015261012085015261014084015260ff811615156101608401528060081c60ff1615156101808401526101a083019060101c60ff169061085f9161272c565b90600182811c9216801561263f575b602083101461262b57565b634e487b7160e01b5f52602260045260245ffd5b91607f1691612620565b5f929181549161265883612611565b80835292600181169081156126ad575060011461267457505050565b5f9081526020812093945091925b838310612693575060209250010190565b600181602092949394548385870101520191019190612682565b915050602093945060ff929192191683830152151560051b010190565b608081019081106001600160401b03821117610bbb57604052565b601f909101601f19168101906001600160401b03821190821017610bbb57604052565b805180835260209291819084018484015e5f828201840152601f01601f1916010190565b9060068210156113015752565b600435906001600160a01b038216820361034557565b602435906001600160a01b038216820361034557565b60243590811515820361034557565b34610345575f36600319011261034557602060405162093a808152f35b6001600160401b038111610bbb57601f01601f191660200190565b9291926127b882612791565b916127c660405193846126e5565b829481845281830111610345578281602093845f960137010152565b9080601f83011215610345578160206127fd933591016127ac565b90565b91908203918211610b3957565b81810292918115918404141715610b3957565b811561282a570490565b634e487b7160e01b5f52601260045260245ffd5b6001600160a01b03165f818152601360205260409020541561289e5761289a816301e13380925f52601460205261287960405f205442612800565b905f526013602052606461289460405f2054601c549061280d565b0461280d565b0490565b505f90565b156128aa57565b60405162461bcd60e51b8152602060048201526013602482015272125b9d985b1a59081c1c9bdc1bdcd85b081251606a1b6044820152606490fd5b9060ff801983541691151516179055565b156128fd57565b60405162461bcd60e51b815260206004820152601d60248201527f416d6f756e74206d7573742062652067726561746572207468616e20300000006044820152606490fd5b91908201809211610b3957565b1561295657565b60405162461bcd60e51b8152602060048201526013602482015272556e617574686f72697a65642062726964676560681b6044820152606490fd5b1561299857565b60405162461bcd60e51b815260206004820152600f60248201526e2737903b37ba34b733903837bbb2b960891b6044820152606490fd5b156129d657565b60405162461bcd60e51b815260206004820152600d60248201526c105b1c9958591e481d9bdd1959609a1b6044820152606490fd5b15612a1257565b60405162461bcd60e51b8152602060048201526012602482015271159bdd1a5b99c81b9bdd081cdd185c9d195960721b6044820152606490fd5b15612a5357565b60405162461bcd60e51b8152602060048201526013602482015272159bdd1a5b99c81c195c9a5bd908195b991959606a1b6044820152606490fd5b15612a9557565b60405162461bcd60e51b8152602060048201526016602482015275496e76616c69642070726f706f73616c20737461746560501b6044820152606490fd5b60038210156113015752565b929190604084019360038210156113015760209181520152565b601f8211612b0657505050565b5f5260205f20906020601f840160051c83019310612b3e575b601f0160051c01905b818110612b33575050565b5f8155600101612b28565b9091508190612b1f565b8160011b915f199060031b1c19161790565b5f52601d60205260405f20600b81019060ff825460101c16600681101561130157600103612bfc57600681015490612ba66007820154916008612b9d8486612942565b91015490612942565b601854600a810290808204600a1490151715610b39576064900411159182612bf2575b505015612be157805462ff0000191662020000179055565b805462ff0000191662030000179055565b1190505f80612bc9565b5050565b6001600160a01b0316908115611590576001600160a01b0316918215612c8457815f525f60205260405f2054818110612c6b57815f5160206131705f395f51905f5292602092855f525f84520360405f2055845f525f825260405f20818154019055604051908152a3565b8263391434e360e21b5f5260045260245260445260645ffd5b63ec442f0560e01b5f525f60045260245ffd5b600260085414612ca8576002600855565b633ee5aeb560e01b5f5260045ffd5b6001600160a01b0316908115612c84575f5160206131705f395f51905f52602082612ce55f94600254612942565b60025584845283825260408420818154019055604051908152a3565b307f00000000000000000000000000000000000000000000000000000000000000006001600160a01b03161480612df4575b15612d5c577f000000000000000000000000000000000000000000000000000000000000000090565b60405160208101907f8b73c3c69bb8fe3d512ecc4cf759cc79239f7b179b0ffacaa9a75d522b39400f82527f000000000000000000000000000000000000000000000000000000000000000060408201527f000000000000000000000000000000000000000000000000000000000000000060608201524660808201523060a082015260a08152612dee60c0826126e5565b51902090565b507f00000000000000000000000000000000000000000000000000000000000000004614612d33565b6009546001600160a01b03163303612e3157565b63118cdaa760e01b5f523360045260245ffd5b60ff60095460a01c16612e5357565b63d93c066560e01b5f5260045ffd5b6001600160a01b03169081156120a5576001600160a01b03169182156120925760207f8c5be1e5ebec7d5bd14f71427d1e84f3dd0314c0f7b2291e5b200ac8c7c3b92591835f526001825260405f20855f5282528060405f2055604051908152a3565b60ff8114612f0b5760ff811690601f8211612efc5760405191612ee96040846126e5565b6020808452838101919036833783525290565b632cd44ac360e21b5f5260045ffd5b50604051600554815f612f1d83612611565b8083529260018116908115612fa05750600114612f41575b6127fd925003826126e5565b5060055f90815290917f036b6384b5eca791c62761152d0c79bb0604c104a5fb6f4eb0703f3154bb3db05b818310612f845750509060206127fd92820101612f35565b6020919350806001915483858801015201910190918392612f6c565b602092506127fd94915060ff191682840152151560051b820101612f35565b60ff8114612fe35760ff811690601f8211612efc5760405191612ee96040846126e5565b50604051600654815f612ff583612611565b8083529260018116908115612fa05750600114613018576127fd925003826126e5565b5060065f90815290917ff652222313e28459528d920b65115c16c04f3efc82aaedc97be59f3f377c0d3f5b81831061305b5750509060206127fd92820101612f35565b6020919350806001915483858801015201910190918392613043565b91906fa2a8918ca85bafe22016d0b997e4df60600160ff1b0384116130e4579160209360809260ff5f9560405194855216868401526040830152606082015282805260015afa156105ec575f516001600160a01b038116156130da57905f905f90565b505f906001905f90565b5050505f9160039190565b60048110156113015780613101575050565b600181036131185763f645eedf60e01b5f5260045ffd5b60028103613133575063fce698f760e01b5f5260045260245ffd5b60031461313d5750565b6335e2f38360e21b5f5260045260245ffdfe8be0079c531659141344cd1fd0a4f28419497f9722a3daafe3b4186f6b6457e0ddf252ad1be2c89b69c2b068fc378daa952ba7f163c4a11628f55a4df523b3ef2c9deb38f462962eadbd85a9d3a4120503ee091f1582eaaa10aa8c6797651d29a2646970667358221220c30be99473130801eb60ce80e48b420bb6ff91176937a5aef52558425bb39dca64736f6c634300081c0033","linkReferences":{},"deployedLinkReferences":{},"immutableReferences":{"3557":[{"length":32,"start":11578}],"3559":[{"length":32,"start":11767}],"3561":[{"length":32,"start":11524}],"3563":[{"length":32,"start":11657}],"3565":[{"length":32,"start":11695}],"3568":[{"length":32,"start":5919}],"3571":[{"length":32,"start":5960}]},"inputSourceName":"project/contracts/WhaleToken.sol","buildInfoId":"solc-0_8_28-7079be9912eddb04e01c38da66a2cee036e8873d"}